:020000040001F9
:10C0000000400020ADC20100BFC20100C1C201005A
:10C010000000000000000000000000000000000020
:10C02000000000000000000000000000C3C201008A
:10C030000000000000000000C5C20100C7C20100EE
:10C04000C9C20100C9C2010069EB0100C9C20100F7
:10C05000C9C2010000000000C9C20100C9C201003C
:10C06000C9C20100C9C20100C9C20100C9C20100A0
:10C07000C9C20100C9C20100C9C20100C9C2010090
:10C08000C9C201002DEA0100C9C20100C9C20100F4
:10C09000C9C20100C9C20100C9C20100C9C2010070
:10C0A000C9C20100C9C20100000000000000000078
:10C0B0000000000000000000000000000000000080
:10C0C00000F002F800F0C8F80CA030C808382418B6
:10C0D0002D18A246671EAB4654465D46AC4201D1C0
:10C0E00000F0BAF87E460F3E0FCCB646012633422A
:10C0F00000D0FB1AA246AB46334318472C3F000042
:10C100004C3F0000103A02D378C878C1FAD85207E1
:10C1100001D330C830C101D504680C6070470000FD
:10C120000023002400250026103A01D378C1FBD853
:10C13000520700D330C100D50B60704710B56E298F
:10C1400002D100F07FFF10BD702902D100F0B9F9D3
:10C1500010BD662902D103F035FD10BD652902D15D
:10C1600003F030FD10BD672902D103F02BFD10BD97
:10C17000612902D1C046C04610BD03681B0A01D325
:10C1800080231943692902D100F026FF10BD6429DC
:10C1900002D100F021FF10BD752902D100F01CFF73
:10C1A00010BD6F2902D101F04BF810BD782902D1E2
:10C1B00000F074F910BDE92902D100F0E7FF10BDCD
:10C1C000E42902D100F0E2FF10BDF52902D100F010
:10C1D000DDFF10BDEF2902D101F03EF810BDF829B6
:10C1E00002D100F069F910BD0368DB0901D3802397
:10C1F0001943632902D101F04AFD10BD732902D110
:10C2000001F04DFD10BDE32902D101F057FD10BD35
:10C21000F32902D101F05AFD10BD002010BD1FB559
:10C22000C046C0460098019901F0A1FA02F03AF820
:10C2300004000020002103F057FC401C6060002037
:10C24000002103F03BFCE06001F02CFF00F076FDE4
:10C250001FBD002002F0BCFE02F000FF1146FFF7F8
:10C26000DEFF02F0D7FB03F02EF80000401E00BFF7
:10C2700000BF00BF00BF00BF00BF00BF00BF00BFC6
:10C2800000BF00BF00BFF1D170470000401E00BFDB
:10C2900000BF00BF00BF00BF00BF00BF00BF00BFA6
:10C2A00000BF00BF00BFF1D170470000074802681F
:10C2B0000F210A4302600648804706480047FEE710
:10C2C000FEE7FEE7FEE7FEE7FEE70000240500408C
:10C2D000A9EA0100C1C001004343514330B55C18D5
:10C2E000010C130C0D4692B25D4380B251432C19E0
:10C2F000054655430A0C09044D1962415843010C87
:10C3000000044019514130BDFEB5054610460C46AB
:10C31000184373D0AE468C460020AD1A01469C41AE
:10C3200067D36646002701243D46B61A9D4102D3D5
:10C3300013463A462124654676462F04360C3E4382
:10C340002D0CB61A9D4104D3150C1B042B4312046B
:10C350001034654676462F06360A3E432D0AB61A35
:10C360009D4104D3150E1B022B431202083465466F
:10C3700076462F0736093E432D09B61A9D4104D350
:10C38000150F1B012B431201241D65467646AF078E
:10C39000B6083E43AD08B61A9D4104D3950F9B00E5
:10C3A0002B439200A41C65467646EF0776083E4371
:10C3B0006D08B61A9D411AD392185B41641C16E0B1
:10C3C0000018764665464941B71A9D410191009093
:10C3D00009D36046B11A98418E4684460098019967
:10C3E0000025401C6941DD0752082A435B08641E92
:10C3F000E6D57246634603B0F0BDFFE70020014674
:10C40000C046C0462A462346F5E710B50B4601460E
:10C41000184600F049FE10BD0FB41CB5084B06AA23
:10C420007B4469460090059800F025FE04460020F4
:10C43000694600F033FE20461CBC08BC04B0184717
:10C44000790C0000F8B50F460188090502D5224C89
:10C450007C4402E0204C7C440E3405460021243507
:10C4600008E016071209360FA65D6E541E07491C18
:10C4700032431B0916461E43F3D12246047800239B
:10C48000240705D5702F06D0002901D011320223D0
:10C4900000F049FDF8BD10320123F9E770B50446FC
:10C4A0000D462146106800F00CFD00230246294687
:10C4B0002046FFF7C7FF70BDD21DD308DB000CCBB1
:10C4C000C0E730B4036820241268234303600823C4
:10C4D000C36130BC0023B5E78C380000F3B50446D7
:10C4E000002081B020622046E1688847002872D091
:10C4F000252802D06268A168ABE0594F00267F442E
:10C500002046E16888472028054608DB312D06D201
:10C51000781920380078002801D00643F0E7B007EA
:10C5200001D5042086430020E0610746A0612A2D42
:10C530000AD0284602F09AFD002827D0303DB800E6
:10C5400000190090856119E00298BA00121902C81A
:10C55000916102902046E1688847012F054617D176
:10C56000E06900281FDA202086431CE000980A2199
:10C570008069484300994019303888612046E16855
:10C580008847054602F072FD0028EFD1012F0AD03E
:10C590002E2D08D12046E168884705462020064315
:10C5A0007F1C022FC3DBA069002803DA4042A06190
:10C5B00001200643F00701D0102086436C2D0BD0DC
:10C5C000682D09D04C2D3CD06A2D38D0742D38D030
:10C5D0007A2D36D016E040E0E1682F4620468847A5
:10C5E000B842054609D16C2F29D001208002E168AC
:10C5F000064320468847054604E06C2F1DD0FF20E7
:10C6000001300643002D28D028464138192803D888
:10C610000120C00206432035204626602946029AA2
:10C620001646FFF78BFD002810D001280BD0F61D11
:10C63000F008C0000830029055E74020E1E7802074
:10C64000D5E70020D3E7361D02964CE762682846FE
:10C65000A1689047206A401C44E7206AFEBD0000A4
:10C66000063800000FB400B58DB010A909900B90EA
:10C670000020C04300910A9000200C9007487844A5
:10C680000690074878446A4607900F9909A800F079
:10C6900003FE0DB008BC04B0184700003B0C0000BE
:10C6A000550C0000FFB51D460027FF4383B05C68B2
:10C6B000002001909E68A96904987F1C884700901B
:10C6C000296A88470028F6D10098401C0CD0032026
:10C6D00040028443002E19DD600614D500982B28F3
:10C6E00009D02D280FD103E00020C04307B0F0BDD2
:10C6F000012080020443A96904987F1C8847761EA4
:10C70000002E009002DD0098302803D00598002804
:10C7100025D035E00120A96940020443761E049823
:10C720007F1C8847002E009003DD782805D058280C
:10C7300003D00598002810D022E00598002801D0E9
:10C7400010281DD10120A96940028443761E049857
:10C750007F1C88470090102002E0082000E00A209B
:10C7600005900DE00121059A49020C430199761EBE
:10C77000514308180190A96904987F1C88470090CC
:10C78000002E05DD0599009800F070FD0028E9DA1B
:10C79000E96904988847A00502D40120C043A5E7B1
:10C7A000E00722D1600611D56005019800D540420E
:10C7B00029680A1D2A600968220501D5087014E05D
:10C7C000220701D5088010E008600EE02868011DEE
:10C7D00029600068210502D50199017005E0210753
:10C7E000019901D5018000E0016038467EE7000034
:10C7F00070B50446C068810713D0800601D5A56ACC
:10C8000004E0A169606840182169451A204600F0DB
:10C8100043FF002206462946204600F06DFE3046C2
:10C8200070BD002070BD70B5002802D0FFF7E0FF9A
:10C8300070BD0025074C6E1E08E02046FFF7D8FFAC
:10C84000002800D03546206D44086400002CF4D147
:10C85000284670BDF8280020F7B516460C4610464D
:10C8600000F07CF82078611C61280AD0722802D080
:10C87000772839D102E00125002404E002250424B0
:10C8800001E02D4D08240222032301270878491CCA
:10C890002B2806D0622807D02039C87F742807D0FB
:10C8A00008E01D431443F1E7042005433C43EDE752
:10C8B000102004430098214602F01EFC411C13D0B6
:10C8C0000021316171600121F5604902F1617061FF
:10C8D000200704D530460222002100F00DFE306D05
:10C8E000384330653046FEBD0020FEBDF8B50D462C
:10C8F0000646124C206DC10704D0410804D04408FC
:10C900006400F7E7224610E0542000F053FA0700D5
:10C9100010D07908206D49000122114308435421A9
:10C920002065384600F0D0F83A4629463046FFF7F1
:10C9300093FFF8BD0020F8BD02800000F828002019
:10C9400010B5002902D0FF22013201E0012292023B
:10C9500001235B0200F04AFE10BD0000FEB5044654
:10C96000466900690F4F0190E56800200090A80714
:10C9700007D0204600F090FE304602F07FFB0028F2
:10C9800001DA3846FEBD280502D5019800F043FAC9
:10C990004C21204600F098F8206D400840002065AA
:10C9A0000098FEBDFFFFFFFF30B5441C03E0017897
:10C9B000401C00290DD08107F9D10B4BDD0104C8C3
:10C9C000D11A91432940FAD0001B0A0603D0C01E99
:10C9D00030BD001B30BD0A0401D0801E30BD0902ED
:10C9E000FCD0401E30BD0000010101010346F0B53E
:10C9F0000B439B072DD1244DEF01042A29D308C8EE
:10CA000010C9121F5E1B9E433E4017D0D8B2E1B240
:10CA1000401A3106014310D198B2A1B2401A310434
:10CA200001430AD118022102000A090A401A310200
:10CA3000014302D1180E210E401AF0BDA342DCD0F2
:10CA400018BA21BA884201D90120F0BD0020C043A4
:10CA5000F0BD002A01D10020F0BD03780C78401C05
:10CA6000491C002B0DD0A3420BD1521E09D00378D4
:10CA70000C78401C491C002B03D0A34201D1521E4C
:10CA8000EBD1181BF0BD00000101010101E004C061
:10CA9000091F0429FBD28B0701D50280801CC9071E
:10CAA00000D00270704700290BD0C30702D002707B
:10CAB000401C491E022904D3830702D50280801C32
:10CAC000891EE3E70022EEE70022DFE7024670B5A9
:10CAD0000A4392072AD11E4DEE0104C808C9541B0F
:10CAE0009443344017D0D0B2D9B2401A2106014342
:10CAF00010D190B299B2401A210401430AD1100218
:10CB00001902000A090A401A2102014302D1100E3B
:10CB1000190E401A70BD9A42DFD010BA19BA884275
:10CB200001D9012070BD0020C04370BD02780B7890
:10CB3000401C491C002A09D09A4207D102780B7880
:10CB4000401C491C002A01D09A42EFD0D01A70BD77
:10CB500001010101002203098B4273D3030A8B42B6
:10CB600058D3030B8B423CD3030C8B4221D312E0EE
:10CB700003460B437FD4002243088B4274D303093E
:10CB80008B425FD3030A8B4244D3030B8B4228D3DF
:10CB9000030C8B420DD3FF22090212BA030C8B4205
:10CBA00002D31212090265D0030B8B4219D300E0A5
:10CBB000090AC30B8B4201D3CB03C01A5241830B2A
:10CBC0008B4201D38B03C01A5241430B8B4201D3DA
:10CBD0004B03C01A5241030B8B4201D30B03C01A03
:10CBE0005241C30A8B4201D3CB02C01A5241830A7D
:10CBF0008B4201D38B02C01A5241430A8B4201D3AC
:10CC00004B02C01A5241030A8B4201D30B02C01AD5
:10CC10005241CDD2C3098B4201D3CB01C01A52413C
:10CC200083098B4201D38B01C01A524143098B42C5
:10CC300001D34B01C01A524103098B4201D30B01AE
:10CC4000C01A5241C3088B4201D3CB00C01A5241D3
:10CC500083088B4201D38B00C01A524143088B4298
:10CC600001D34B00C01A5241411A00D20146524131
:10CC7000104670475DE0CA0F00D04942031000D350
:10CC80004042534000229C4603098B422DD3030AA5
:10CC90008B4212D3FC22890112BA030A8B420CD3B5
:10CCA000890192118B4208D3890192118B4204D3DE
:10CCB00089013AD0921100E08909C3098B4201D35E
:10CCC000CB01C01A524183098B4201D38B01C01A98
:10CCD000524143098B4201D34B01C01A524103090F
:10CCE0008B4201D30B01C01A5241C3088B4201D3BE
:10CCF000CB00C01A524183088B4201D38B00C01A6B
:10CD00005241D9D243088B4201D34B00C01A524141
:10CD1000411A00D20146634652415B10104601D3CE
:10CD20004042002B00D54942704763465B1000D358
:10CD3000404201B50020C046C04602BD70B5064C59
:10CD40007C44064D7D4403E0206800198047241D83
:10CD5000AC42F9D170BD0000303400003034000026
:10CD600010B502469E240002D115A307002902D067
:10CD70001843002904DB611A00290CDDC84010BDEE
:10CD80000906090E01D140004008611A03D4C840C9
:10CD900040420028F3DDFF2150000906884201D9F6
:10CDA000002010BDD017C043584010BD0048704748
:10CDB000F428002070B5064600F0BCFC056830463B
:10CDC0000B30C408E400B44201D8002070BD68688C
:10CDD0002A46002818D00168A14211D30B462146EB
:10CDE00008318B4208D3436801194B6003681B1B51
:10CDF0000B605160046001E041685160001D70BD2E
:10CE0000024640680028E6D12146284600F09AFCF8
:10CE10000028DCD170BD70B50446051F00F08AFC07
:10CE20000068002C1AD0446801E020466468002C99
:10CE300001D0AC42F9D301680A18AA4204D12A6889
:10CE400005468918016000E0456028684119A14243
:10CE500005D16168696021684018286070BD6C6008
:10CE600070BD70B5044685690068C10601D53026DD
:10CE700000E02026C00707D070BD62683046A16878
:10CE80009047206A401C20626D1EF6D570BD70B5BB
:10CE9000044685690078C00707D170BD6268A16843
:10CEA00020209047206A401C20626D1EF6D570BD80
:10CEB00009684A0501D540B27047C905FCD500B2E2
:10CEC000704709684A0501D5C0B27047C905FCD54D
:10CED00080B2704770B50C460546012A05D0287807
:10CEE000800600D5EA69002302E0012305E05B1C0F
:10CEF000934202D2E05C0028F9D1A869E618C01A72
:10CF0000A861286AC01828622846FFF7AAFF04E033
:10CF10006A682078A968641C9047B442F8D3284610
:10CF2000FFF7B5FF70BDFFB504460D4681B0243054
:10CF300000902168880604D51022E06991432160A1
:10CF400000E00120A84201DD471B00E00027049813
:10CF5000A1697A191018081AA0612078C00602D4B5
:10CF60002046FFF77EFF002608E003986268A1686C
:10CF7000805D9047206A401C761C2062049886429F
:10CF8000F3DB2078C0060AD52046FFF76AFF06E0EB
:10CF90006268A16830209047206A401C20623846B1
:10CFA0007F1E0028F4DC07E000986268A168405DFD
:10CFB0009047206A401C206228466D1E0028F3DC42
:10CFC0002046FFF764FF2078000602D5022005B056
:10CFD000F0BD0120FBE70000F7B5002575291068BA
:10CFE000009914A611D0FFF763FF002802DA40422F
:10CFF00011A608E0009909688A0701D50FA602E08A
:10D00000490704D50EA6012501E0FFF75AFF009F4E
:10D010000024243704E001F023F930313955641C31
:10D020000028F8D12B46324621460098FFF77BFFB7
:10D03000FEBD0000000000002D0000002B000000DD
:10D040002000000011680268006A530501D50870CD
:10D050000AE0D30501D5088006E0130602D5C21701
:10D0600005C101E0520608600120704701694A1CB1
:10D0700002610878704700B58FB0029100210591D8
:10D080000549019379440391114604906846FFF7DE
:10D0900025FA0FB000BD0000E5FFFFFF0A68107021
:10D0A000521C0A6070470000084B70B50D467B4467
:10D0B000FFF7E1FF0446284600F022F9002802D0DD
:10D0C0000020C04370BD204670BD00001F2200003C
:10D0D000F7B51546044686B02B497944002703C9A5
:10D0E0003E460090019111E007986A467100415A4E
:10D0F00002A801F075F8411C07D02178890603D5F4
:10D10000E269391891420ED83F18761C20788006C3
:10D1100002D5E069B84206DDAE42E5DB0798710052
:10D12000405A0028E0D1A069C01BA0612046FFF74B
:10D1300098FE154979445A3903C90090002001919D
:10D1400016E041006A460798415A02A801F048F8E3
:10D150000590401C0AD0002505E0626802A8A1687D
:10D16000405D90476D1C05988542F6D30498401C9D
:10D17000B0420490E5DB206AC01920622046FFF728
:10D1800086FE09B0F0BD00003E2C0000F7B5D21DB0
:10D190000025D20815A6D200F52905CA11D0002A0B
:10D1A00005DA00214042914111A60A4608E00099A3
:10D1B00009688B0701D50FA602E0490701D50EA625
:10D1C00001251146009F0024243704E000F003FBF2
:10D1D00030323A55641C02460A43F7D12B46324698
:10D1E00021460098FFF79FFEFEBD000000000000F2
:10D1F0002D0000002B0000002000000070B5044648
:10D200000021243408E05507D2086D0F30356554ED
:10D210005D07491C2A43DB0815461D43F3D104680A
:10D22000002310A2250708D520252C400C4304D04C
:10D23000C46901230CA2641EC461FFF774FE70BDB3
:10D2400010B5044621461068FFF73BFE0023024656
:10D250002046FFF7D3FF10BDD21DD108C9000CC96D
:10D26000CCE7000000000000300000003A2800D2A7
:10D270003038202302469A43412A01D310463738DA
:10D28000884201D30020C043704700000268511853
:10D29000137801601846704710B5D160054979448C
:10D2A000516105497944116200211161114600F074
:10D2B00011FD10BDEBFFFFFFA90500004268002A29
:10D2C00008D001680B78491C002B03D0521E06C001
:10D2D000184670470121C160881E70474268002AC5
:10D2E0000BD0C3680168002B07D183688B4204D040
:10D2F000491E521C06C0002070470020C0437047E2
:10D30000C068802108407047F8B505460C46C868DB
:10D310000521C9048843012189050843E06080068E
:10D3200002D5204600F0DEF97149E068014002298B
:10D3300003D0204600F080F9BCE00521012249031A
:10D340000140D20391420FD1C00306D56168E06A63
:10D35000884200D80846606006E02069E0626060AC
:10D36000606901F0A1FEA061A1680022EEB200296F
:10D370000EDAE06883050BD4C943A160092122605D
:10D3800049030843E0606068411C61600670ACE0DE
:10D39000E068012149030843E06000202060206923
:10D3A000002831D1606901F093FE0125274624371A
:10D3B000ED02002816D0A0898005800F08D0E06912
:10D3C000FFF7F8FC0028206102D0E068284318E04D
:10D3D00001202761E061E0680321090288430121FF
:10D3E00089020DE0E069FFF7E5FC00282061EFD03D
:10D3F000E0682843E0608105890F03D1FF210131F6
:10D400000843E06020696060E2683A4F2569D00512
:10D410001FD56168E06A884200D80846411B05D0E4
:10D420002246284600F012F9002843D1E0680102A4
:10D4300004D5E56200206560A06053E0691CE162EC
:10D440006160E169491E3843A160E06030462E709A
:10D45000F8BD100201D53A4009E06068411C6160E6
:10D460000670E06838430A2EE06006D00022E16AC8
:10D470006068814203D90B4602E00122F7E70346C8
:10D48000A7895B1B7F0504D4E7699F4201DD002A61
:10D490001ED0814200D801460F1A0020E562656067
:10D4A000002BA06009DD22461946284600F0CEF880
:10D4B000002802D00020C043F8BD002F08D0A0698A
:10D4C000E5626560C01BA061E06810210843E06070
:10D4D000E068000209D56168A069E562491B40184F
:10D4E0006560A0610120C043F8BD3046F8BD000072
:10D4F0008210000000000100F8B5044616460D46F3
:10D500004769007B800730D0384601F0E1FD0028F4
:10D510002BD132461026002A25D0012A02D0022A19
:10D5200023D104E0204600F09BFD45191BE038465E
:10D5300001F0BAFDE16831430028E16004DA2046D9
:10D5400000F07AF80120F8BDC9030BD56268E16AE2
:10D55000914200D81146A26989182269891A81422C
:10D5600000DD08462D18002D01DA0220F8BDE16A21
:10D570006068E268814206D29103E06203D501212E
:10D5800049048A433243A669AE4211DCE16A814212
:10D5900001D90B4600E003469F192369FF1AAF42E9
:10D5A00006DD814201D90F4600E007469F4206D1C1
:10D5B000202002430020A060A56220600DE0AD1B8A
:10D5C000E669AE1B8142A66000D90846C01A281A37
:10D5D00020605819606020208243034802400020E8
:10D5E000E26040342072F8BDBFCFD7FF70B5C46889
:10D5F000A50713D0650211D4D51FF93D0AD0FF3D10
:10D60000013D07D0FF3DFF3D023D07D101462431DA
:10D61000012305E0074E5D1EB54201D3012070BD18
:10D620000161C36141600F2109028C431443C4604E
:10D63000002070BDFFFFFF00C168802211439203EC
:10D640009143C1600021816001607047F7B51446C5
:10D650000E463348D5685769054209D03846A16956
:10D6600001F0EAFD002811DB2D48C0430540E560CC
:10D670002B4632463846009901F0F2FD4200A1697E
:10D680005208B21A89180028A16104D02046FFF779
:10D69000D3FF0020C043FEBD70B504460569C06AD3
:10D6A0006168884200D80846E1680522D2049143A7
:10D6B000E160C90314D5A84209D02246411B28467F
:10D6C000FFF7C4FF002802D00020C04370BDE56210
:10D6D00000206560A060E068012109048843E060E3
:10D6E000002070BD10B50446C06820218843E0606A
:10D6F000A16AA06988420ED02046FFF7CDFFE068FE
:10D7000003210903884310210843E060A06AA06157
:10D710002069E06260600349E0680840E06010BD95
:10D7200010000200BFBFFFFF10B500F081FD00F048
:10D7300079FD10BD00487047F429002070477047FC
:10D740007047704738B504460A460020694601F024
:10D75000FBF8002805D002462046009900F0AAFDFB
:10D76000012038BD10B5012001F0DCF810BDF8B57E
:10D7700001F0DEF8054600200C461020C0460646A3
:10D78000A819A0420DD932466946002001F0DCF804
:10D79000070001D101F0C6F80098A04200D005466C
:10D7A000C419FFF7C7FFF61D07460560F008C00063
:10D7B0004619284600F008F8B44204D031463868CB
:10D7C000A21B00F077FDF8BD002101604160806080
:10D7D0007047102070470B4670B5024689078008D5
:10D7E000084319469D08141AA9412509080705434D
:10D7F00008092C194841250A01060D43010A2C1974
:10D800004141200C0D0428430D0C00194D4100210D
:10D8100040194D41C00869070843E908840F8D008D
:10D820002543840024184D4124196D41121BAB413E
:10D8300007E00925ED432C11521963410024401CD7
:10D8400061411C460A250026551BB441F1D270BD2A
:10D8500010B5044600F01EFD0068005DC007C00F53
:10D8600010BD00007047FFB50C461E468FB003CABE
:10D87000089009914F007D0D00D16D1E00210846D2
:10D880000020C0460321099A89050840002A03DACE
:10D890008200801840080840800D01280A9002DDAF
:10D8A0000020C0430A90089807430DD0EF48F04984
:10D8B000281848430714189800281DD07542291EBF
:10D8C0001DDD0A9842421BE01898012802D0002072
:10D8D000302104E00020F24305E02154401CB04216
:10D8E000FBDB30460022189B002121540F998B60EE
:10D8F0000A60486013B0F0BDBD1B6D1CDFE70A9ADB
:10D90000002900DA69420BA800F032FD0BA803AB36
:10D9100007C807C30899099800F090FD01910146D6
:10D92000D44802920918002D00910ADDD1490398CC
:10D930000A9A4942401803A90390684600F0A3FFE1
:10D9400007E003990A9A081803A90390684600F0B3
:10D9500070FF009000040292000C019103D000209F
:10D96000C043410800E01046189A002A03D0002264
:10D97000009215461EE0751E05D4FFF72CFF3032CD
:10D9800062556D1EF9D501220843079602D0002288
:10D990007F1C04E02078302801D100227F1E002A5D
:10D9A000069788D01EE0112D07DAFFF714FF3032FA
:10D9B00062556D1C02460A43F5D108430FD1002180
:10D9C000681E05E0235C625C6354491C2254401EBF
:10D9D0008142F7DBA81B401E0795069002E00098E5
:10D9E00000280AD0079A18990020A0540F98079B86
:10D9F000069A4360026081607CE71126002018903F
:10DA000059E7D21DF0B50D460446D10893B0C900C0
:10DA100003C90C900D9101F09FFA02460D98C00FBA
:10DA200001D02D2007E02068810701D52B2002E0DE
:10DA30004007C00F4001032A0F9001D0072A05DBE1
:10DA400003462946204600F04FFC0DE12078800671
:10DA500001D5E76900E006272846652D04D0662831
:10DA600014D0672D69D12DE00020112F009001DB2B
:10DA7000112300E07B1C0CAA03A910A8FFF7F3FEFA
:10DA80001199002610987D1C0E9142E001203B4622
:10DA90000CAAC0070B900120009003A910A8FFF763
:10DAA000E2FE119D12981099002600280E9501D1D2
:10DAB000781C0D18781B02D44642761E7D1CE81B8C
:10DAC00000903AE0012F00DA01270020112F00908A
:10DAD00001DD112300E03B460CAA03A910A8FFF7C3
:10DAE000C2FE11993D46109800260E912178090733
:10DAF0000BD40E99A94200DA0D4603A9012D04DDCD
:10DB00004A19203AD27F302A06D0B84201DA011DE4
:10DB100004DA012100910FE06D1EEFE7002802DC1E
:10DB200086192D1A03E0411CA94200DD0D46801B19
:10DB3000401C00900120C0070B902078000705D4FE
:10DB40000098A84202DB0020C043009069460020F4
:10DB5000C8720B98012102AF0337C907884225D04C
:10DB6000022010902B2011900B9800280BDA4042D5
:10DB70000B902D20119006E00B9800F071FB3031D6
:10DB80007F1E0B9039701099481E00291090F3DC0D
:10DB90000B980028F0D111987F1E3870208800055E
:10DBA00001D5452000E065207F1E387001A8C01B0C
:10DBB000C01D0B900F98002800D00120411900983B
:10DBC000C01709180B980818A169081A401EA0610F
:10DBD0002078C00602D42046FFF743F90F980028AA
:10DBE00005D06268A1689047206A401C20622078B6
:10DBF000C00624D52046FFF734F920E0002E07DBCD
:10DC00000E98B04204DD03A86268805DA16802E05E
:10DC10006268A16830209047206A761C401C206210
:10DC20000098401E00900AD100F03CFBC06862687A
:10DC30000168405CA1689047206A401C2062284629
:10DC40006D1E0028DADC07E062683878A1687F1C66
:10DC50009047206A401C20620B99481E00290B90B7
:10DC6000F2DC2046FFF713F9022043E601FCFFFF38
:10DC7000104D0000E1DFFFFF10B54369002B02D01B
:10DC8000C046C04601E0FFF725F9012010BD12781B
:10DC9000014624310A7000224A700122ECE7116823
:10DCA0000022D243E8E710B54369002B02D0C046FA
:10DCB000C04601E0FFF70CFA012010BD12880146B2
:10DCC000243182840022C2840122ECE71168002200
:10DCD000D243E8E7F3B50C468FB000200C9001204A
:10DCE00000260E9008460C300390626903980121CB
:10DCF000904705002ED0252D2DD0216A8847002879
:10DD000018D06269039801219047216A884700284A
:10DD1000F7D16269411E0398904700E0761CA16923
:10DD20000F988847216A88470028F7D1E1690F9842
:10DD30008847DAE7A1690F988847A842074601D1CA
:10DD4000761CD2E7E1690F9888477F1C02D10C98B6
:10DD5000002877D071E16269039800273D46394673
:10DD600090472A280CD16269039801219047012528
:10DD700006E00A214F433F18303FEBD41020054303
:10DD80006269039801219047014630390A2903D27C
:10DD9000AF498F42DEDCECE7E90600D4AD4F6C28DA
:10DDA0000AD04C2810D0682824D06A282ED0742895
:10DDB0000CD07A280AD00DE06269039801219047BF
:10DDC0006C2823D004211CE02020054362690398BD
:10DDD00001219047A760652865604FD026DC582850
:10DDE00039D01ADC452849D012DC252834D0412806
:10DDF000B0D143E06269039801219047682802D0BE
:10DE000008210D43E6E70120C002DEE70220DCE73F
:10DE1000462833D047289DD130E05B287BD061284D
:10DE20002CD0632877D0642894D15EE06F284CD042
:10DE300009DC662822D0672820D0692826D06E28E1
:10DE400088D12EE0F5E070284AD073286CD0752870
:10DE50004BD07828CCD150E0A1690F98884725286D
:10DE6000054600D16CE7E1690F9888476D1C00D129
:10DE70006DE7E2E00A2248E00A224FE00120234653
:10DE80006A460F99C043C046C046CBE040212846B1
:10DE9000234608436060A80701D5002235E0002230
:10DEA0003CE02068011D21600068290501D506704D
:10DEB0001BE7290701D5068017E7A90703D5F11746
:10DEC0000660416011E706600FE7402128462346BF
:10DED00008436060A80701D5082216E008221DE06B
:10DEE0005D4928460840606016E0402128462346E8
:10DEF00008436060A807BFD5BCE740212846084317
:10DF00006060A80708D52346102201200F99C0435E
:10DF1000C046C04686E007E01022234601200F9944
:10DF2000C043FEF7BFFB7DE0002163280B46019153
:10DF3000009102910D9102D05B2807D03BE0E806EA
:10DF400001D40120A0600120009034E0E0680121AC
:10DF50000D906269039890475E2807D101200190D7
:10DF6000E06801210D9062690398904721690029BA
:10DF700006D10B4604AA8F00491C0829D351FADBAD
:10DF800000285AD02169002927D00298401C02900D
:10DF900062690398012190475D28F1D1019800281A
:10DFA00008D0002004AB8100401C5A58D2430828F6
:10DFB0005A50F8DB04AB2069002820791DD04007B7
:10DFC00026D5029A00980D9B0092224602900120CD
:10DFD0000F99C043C046C04624E0C117C90E0918B6
:10DFE0004A114909930004AA9A184901411A136871
:10DFF0000120884003431360CAE7400722461748C0
:10E000000F9902D5C046C0460CE0C046C04609E0A4
:10E010000298224600990D9B009002910F480F999B
:10E02000C046C04600280ADA401C06D10E980028D7
:10E0300003D00020C04311B0F0BD0C98FBE7E90706
:10E0400002D10C99491C0C91361800200E904CE618
:10E05000CCCCCC0CFFFFFF7FF1F7FFFFFEFFFFFFF3
:10E0600010B50146C268900703D0900607D5886AAC
:10E070000AE000F01BF901210160881E10BD8B69C8
:10E080004868C0180B69C01A40310B7A002B02D0C7
:10E09000497A401A10BD1103FCD50028FADD401E54
:10E0A00010BD000010B543485421FEF70DFD424855
:10E0B0005421FEF709FD41485421FEF705FD404873
:10E0C0003C493D4B404A01603E4803603B4810607C
:10E0D0005A1C0A65411C1965012101653C48354AF5
:10E0E0003AA17844FEF7B8FB002804D138487844B8
:10E0F0000C3800F011FC38482F4A36A17844FEF75E
:10E10000ABFB002804D1344878440C3800F004FC00
:10E1100032482A4A2FA17844FEF79EFB002804D1FA
:10E120002E4878440C3800F0F7FB40232148DC00EF
:10E1300000212246FFF75AFA002804D024487844E8
:10E140005C3800F0E9FB1C48224640230021FFF721
:10E150004DFA002804D0204878445C3800F0DCFBFD
:10E160001648224610230021FFF740FA002804D069
:10E170001A4878445C3800F0CFFB10BD0F4870B5EA
:10E18000006D44080B486400FEF7E8FB0A48FEF700
:10E19000E5FB0A48FEF7E2FB09E0206D4508204652
:10E1A0006D00FEF7DBFB2046FEF735FE2C46002C0B
:10E1B000F3D170BDF82800204C290020A0290020B0
:10E1C00034280020382800203C280020720000005D
:10E1D000361B000077000000231B0000111B00000D
:10E1E00070B516460C46054600F054F80368FF204B
:10E1F0000230C05C012807D0FF2C10D8185D002821
:10E200000DD001202C7070BDFF2032462146083011
:10E21000C0581B182846FF330833984770BD0020AC
:10E22000C04370BD10B5002801D000F02DF810BD1E
:10E2300010B5002102A000F055FB012010BD000028
:10E240005349475056464E3A2050757265207669BC
:10E25000727475616C20666E2063616C6C6564001D
:10E2600001468008081A02091018020A1018020C48
:10E270001018C008820012185200891A01E00A39E9
:10E28000401C0A29FBD2704701491820ABBEFEE7AB
:10E290002600020010B500F005F8001D10BD00BFFB
:10E2A0004918000000487047F829002000487047CE
:10E2B0000C2A002010B50346406801E00346406880
:10E2C000002801D08842F9D31868C3188B4206D0C1
:10E2D000CB1CD808C000001D411A521A0146081D67
:10E2E0000A60FEF798FD10BDF8B51F4604460123ED
:10E2F0000068DB02032601461840072A05DB0028D8
:10E3000001D017A506E017A504E0002801D016A546
:10E3100000E016A5102081432160A069C01E002FD7
:10E32000A06101D0401EA0612046FEF79AFD002F9B
:10E3300009D038466268A1689047206A401C206274
:10E34000C01C206206E0206AFAE762682878A168AB
:10E350006D1C9047761EF8D22046FEF798FDF8BD5A
:10E360004E414E006E616E00494E4600696E660079
:10E37000F7B516468AB0304878446C4603467C337D
:10E38000C06F5A689B680DC42B4B7B446E330833B7
:10E3900003AC0DCB0DC43720C001081837211B304A
:10E3A000FEF7E6FB05460C46803D1B3C02D5644269
:10E3B000012000E00020002709900FE0E0070BD0CB
:10E3C0000C201D497843794432464E39411868463D
:10E3D00000F02FFA6B4607C364107F1C002CEDD1B0
:10E3E000154F7F442E3F16E0E80712D02001C019D8
:10E3F00001460EC9069108930792C068F04201D108
:10E4000098190890324606A903A800F012FA03AB47
:10E4100007C36D10641C002DE6D132466946099889
:10E42000002803A802D000F02EFA01E000F001FA63
:10E430000A9B07C30DB0F0BDA819000003464000B9
:10E440000A4610B5400D0BD00121C9070F24A402C4
:10E4500000191C0364082143540D2143D20207E034
:10E4600000210120F2E7D40F490021435200401E51
:10E470000029F8DADB0FDB07184310BDFFB50D46A6
:10E48000144685B04868516800F04DFD0091019038
:10E49000A868A16800F047FD02910390A868616830
:10E4A00000F041FD029A12188242029201D201202C
:10E4B00000E00020019A0B18D2180028019202D027
:10E4C0008A4202D903E08A4201D2012000E0002002
:10E4D0000099081800906868A16800F024FD029A6D
:10E4E00012188242029201D2012000E00020019A1B
:10E4F0000B18D2180028019202D08A4202D903E0F8
:10E500008A4201D2012000E0002000990818009002
:10E510002868216840004900400849084018EE4931
:10E52000471814E001994000C90F08430090019872
:10E5300002994000C90F08430190029803994000D6
:10E54000C90F08430290039840007F1E0390009873
:10E550000028E7DA0898002801D0E04E00E0002605
:10E56000B74228DAF71BF806C00E15D0029B20210F
:10E57000091A039A8B401A430392029A019BC240E4
:10E580008B401A430292019A009BC2408B40009933
:10E590001A430192C14000917A110BD06B460320BF
:10E5A000811A01D5002101E0890059588700401ED9
:10E5B000D951F5D5374603980299002800D001209B
:10E5C000014308980291002808460CD0002800D08A
:10E5D00001200199019A490508430121D20AC90283
:10E5E000D202019200E001210E9B0122D207012BF1
:10E5F00002D0002B03D013E0002807D116E0904290
:10E6000004D890420CD1019B0B4209D0019B5918B0
:10E61000019105D10099491C009101D17F1C009204
:10E62000002803D0102108460020C0462868216831
:10E63000019B009A4840C10F0598C90739430EC095
:10E6400009B0F0BDFFB587B0099A089808995368DA
:10E65000926840688968964600220393174694465C
:10E66000089A12685300099A5B081268520052080F
:10E670009A1A9B4BD4180A9A002A01D0352200E03E
:10E68000402206920022012315460492DB070593DF
:10E6900024E0002D05D175460346039E4D1BB34172
:10E6A00009D375466646039B491B049D9841059B0B
:10E6B0007519AC465F4163463B4308D0059B049EF9
:10E6C000DD0776082E435B080496059301E0641E7F
:10E6D000521EC50FED0749184041521C069B9A4235
:10E6E000D7DB002D04D17546039A6B1A824101D203
:10E6F00003200CE0039A0B466B404240134301D1C8
:10E70000022004E0014301D0012000E00020614626
:10E7100001910021009702910A99002905D06146D4
:10E72000400201436D4B019102E0800700230290FB
:10E730009C423ADA1A1BD006C00E15D0029D202149
:10E74000019C091AC5408C402543029C8C4000D096
:10E7500001242543019C02953D46C4408D40394625
:10E760002C43C1400194009154111DD06D460221EB
:10E77000002202290CD10320001B07E0002804DB43
:10E780008600AE59002E00D00122401C0328F5DB84
:10E79000081B02D588002A5004E080002858104346
:10E7A0008A00A850491EE3D51C460A980028029802
:10E7B0000CD0002800D001200199019A4905084396
:10E7C0000121D20AC902D202019200E00121109B6C
:10E7D0000122D207012B02D0002B03D013E0002826
:10E7E00007D116E0904204D890420CD1019B0B4215
:10E7F00009D0019B5918019105D10099491C00913C
:10E8000001D1641C0092002803D01021084600208A
:10E81000C04608980999019A00680968484000991B
:10E82000C30F0798DB0723430360826041600BB08E
:10E83000F0BD1FB5002300920A46014601A8FFF76C
:10E840001DFE01A807C804B010BD1FB5012300922A
:10E850000A46014601A8FFF711FE01A80F2407C8C8
:10E86000A402C30F4000DB074008001B002900DBA7
:10E870000020490000054908CC0A204349051843F7
:10E88000D20A1143DFE71FB5002300920A46014672
:10E8900001A8FFF7D7FE01A807C8D4E71FB50123D9
:10E8A00000920A46014601A8FFF7CCFE01A80F24FA
:10E8B00007C8A402C30F4000DB074008001B002963
:10E8C00000DB0020490000054908CC0A2043490527
:10E8D0001843D20A1143B6E702C0FFFF013C000013
:10E8E000FF3F000070B505460C460A2000E06D1C95
:10E8F00000F046F8002D06D028780028F7D102E075
:10E90000641C00F03DF8002C02D020780028F7D1DC
:10E910000A2000F035F870BD10B500F039F8FFF7A7
:10E9200081FC10BD10B500F04DF8FFF77BFC10BD69
:10E9300001226946114B120382188A421A6001D8DB
:10E94000114670471960704770B50C4C6D46012632
:10E9500036032368AD1B9A18AA420ED8AD1A901937
:10E96000EE0F75196D10AA18904200D91046C01DFF
:10E970000B60C208D200D01A226070BD402800206F
:10E9800008B5694608700320ABBE08BD704700009B
:10E9900010B5014602A0FFF7A5FF012010BD000041
:10E9A00053494752545245443A205265646972654E
:10E9B00063743A2063616E2774206F70656E3A202D
:10E9C0000000000010B5012805D0002103A0FFF7CA
:10E9D00089FF012010BD09A1F8E700005349475203
:10E9E000544D454D3A204F7574206F66206865611F
:10E9F00070206D656D6F7279000000003A204865E7
:10EA00006170206D656D6F727920636F72727570C1
:10EA10007465640010B500F014FE00F011FE00F003
:10EA2000FFFC10BD002101604161704770B5184CBA
:10EA300063680225174A00211748002B04D0436859
:10EA40005B1C436061609560144B1E68002E1DD0F6
:10EA5000196001231B0493604678002E16D0666867
:10EA6000002E04D04668761C46606160956044685C
:10EA70000B4D24066D682C4385682C1B002C05DC8F
:10EA8000417008488360936000F03EFF70BD000055
:10EA900000110140401301401C280020401101409A
:10EAA0000015014000130140F8B528480126018CEB
:10EAB000CAB22749012A17D1838C1B0714D1038DB1
:10EAC0001B061C0F03D1848D2406240F0FD01B0FAF
:10EAD000012B03D1848D2406240F08D0032B03D1EE
:10EAE000838D1B061B0F02D0012A07D014E0194AA0
:10EAF0004A600122184BD2039A6102E0828C12070D
:10EB00000AD1028D1206120F042A05D1808D00064B
:10EB1000000F01D1114886600D4800258661104C18
:10EB20006560800586600F4F606800280DD1C820A1
:10EB3000FDF79CFB6D1CBD42F6D3054900208861A2
:10EB40008805866060680028FCD0F8BDC00F00F022
:10EB500000050040DFFF07C0006C004000060040D9
:10EB600000010040881300000C4841680A060C4967
:10EB700004D5CA69002A01D0012106E04068400797
:10EB80000AD58868002807D00021064800680028B8
:10EB900002D0044A926810477047000000230040EA
:10EBA000002100400828002070B5044600680122BA
:10EBB00003690021204698470546401C0ED0206876
:10EBC0000222036900212046984706462068002259
:10EBD0000369294620469847304670BD0020C0434F
:10EBE00070BD000070B4084901600021074A10237D
:10EBF0000D468C001659864200D11551491C5B1EEA
:10EC0000F7D170BC70470000C0FD0100B42800209F
:10EC100010B50C46001D00F0F1FD204610BD30B4CB
:10EC200018224A431218182461430818136AC0684E
:10EC30000C32002B04D0002806D030BC111D184720
:10EC4000002801D030BC004730BC704770B5044686
:10EC50000D46001D00F01AFDE56370BD70B50E464F
:10EC60000E4901600021416081601546022318228F
:10EC70000B490C3000F09CF904464B200C3CC001C1
:10EC8000E0632A463146201D00F02AFD2246054950
:10EC9000201D00F0A9FD204670BD0000ECFD010024
:10ECA00025EA01001FEC010010B50021FDF748FE28
:10ECB00010BD000010B51C46FFF7D0FF21464030C4
:10ECC00000F040F8034940380160034941640349BA
:10ECD000016410BDFCFD010048FE010014FE0100AE
:10ECE00010B5403000F050F8403810BD002070479B
:10ECF0000020704700207047F8B58E180D46074673
:10ED00000C46B14209D038682178426A3846641C02
:10ED10009047401C01D0B442F5D1601BF8BD0020E3
:10ED200070470FB470B5054606AC4069FDF77BFD32
:10ED3000224668690599FDF768FB70BC08BC04B001
:10ED40001847000010B584B000F07CF804460A486B
:10ED500020600A48606000206061224608A1684681
:10ED6000FDF75AFB07A16846FDF7C0FD6061FFF79C
:10ED70009BFF204604B010BD58FE01008CFE010030
:10ED80003A257000772B000010B504460548206036
:10ED9000054860606069FDF7E1FD204600F064F819
:10EDA00010BD000058FE01008CFE0100007B704782
:10EDB00070B506460C480D460468002C12D0A068B9
:10EDC00000280CD02A463146FDF710FE002806D157
:10EDD000A068FDF7E9FDA84201D1204670BD646836
:10EDE000002CECD1002070BD28280020064B0360C9
:10EDF0000023436081600273002903D003490A683D
:10EE000042600860704700009CFE01002828002036
:10EE10000A4901608168002905D0094A11688142C8
:10EE200002D14168116070474A68824203D011469E
:10EE300052688242FBD142684A6070479CFE0100E2
:10EE40002828002010B5054A04C00022FFF7CEFF95
:10EE50000349001F01600349416010BDC0FD01006E
:10EE6000ACFE0100D8FE010010B5001DFFF7D0FF79
:10EE7000001FFFF7B7FE10BD10B50446406800281C
:10EE800003D0FFF793FF012801D0002010BD606878
:10EE900010BD10B504464068002803D0FFF786FF78
:10EEA000002801D0002010BD60680028FBD0001FA2
:10EEB00010BD4068002800D00120704710B54068A0
:10EEC000002804D0FFF772FF002801D0002010BDF9
:10EED000012010BD0068704710B504460020206076
:10EEE000606008782F280FD1487800280CD04B1C80
:10EEF00000211A46236010782F2807D0002807D059
:10EF0000521C491C2260F6E7204610BD501C2060B0
:10EF10001846FFF74DFF6060204610BD10B5403821
:10EF2000FFF776FE10BDF8B5040C8BB2264682B210
:10EF30005E43104658430D0C370C360400218019EF
:10EF4000164679416E43370C3604801926467941BE
:10EF50006E438919F8BD00004900CA02104300D071
:10EF600004204A0D01D001221043054A490D914267
:10EF700001D102210843012800D10520704700007B
:10EF8000FF070000F7B507460E4600251020FDF7E5
:10EF900011FF04000AD06760A6600298E060FDF7E8
:10EFA00005FF0168216004602846FEBD0125FBE7DE
:10EFB000FFB581B01C4617460E0006D0019D02E049
:10EFC0002846B047ED19641EFAD2019805B0F0BD8D
:10EFD000F8B50646FDF7EAFE009015E0002E04D0D5
:10EFE000E068B04201D025460FE020682860009814
:10EFF000A1680768606888472046FDF70CFF009805
:10F000000068B84201D0009805462C68002CE5D174
:10F01000F8BD10B50020FEF787FB10BD10B50B48FA
:10F020000022026042608260C26002610721426188
:10F0300000F09EF900230B220A210548FFF73AFE53
:10F04000044A0549FFF79EFF10BD00004428002038
:10F050005C28002000C00100E1EC010002486A4683
:10F06000C008C00070470000172A002030380A2866
:10F0700001D201207047002070470000032801DA08
:10F080000020704781000748002209188039486F26
:10F090004A67002802D00168496808470020C04339
:10F0A00070470000B4280020032801DA00207047D0
:10F0B0000649800040188038406F002802D001685F
:10F0C000896908470020C04370470000B428002029
:10F0D000032801DA01207047064980004018803873
:10F0E000406F002802D00168C96808470020C0436B
:10F0F00070470000B4280020F0B50E4683B00446E7
:10F100004649FDF7E3FC464D002815D04549204609
:10F11000FDF7DCFC00281AD043492046FDF7D6FC59
:10F1200000281FD0414F0025A8003858002824D0BF
:10F130006D1C102DF8D36CE02868002804D10B2238
:10F1400009213B4800F0CCFA002003B0F0BD28684C
:10F15000002804D10B220921354800F0C1FA012012
:10F1600003B0F0BD2868002804D10B2209213048E3
:10F1700000F0B6FA022003B0F0BD102D49D220787D
:10F180003A2811D021466846FFF7A6FE6846FFF7E9
:10F1900090FE00283DD06846FFF790FE00286846A4
:10F1A00009D0FFF776FE2DE06A4622A12046FDF742
:10F1B00059FA009826E0FFF75FFE002829D0B10732
:10F1C00001D5022408E0710701D5012404E03107CC
:10F1D00001D5092400E000243107890F02D0012164
:10F1E00049020C43710702D5012189020C432646CE
:10F1F00004466846FFF76EFE014620683246836883
:10F2000020469847002804D0A9007850E81C03B095
:10F21000F0BD0020C04303B0F0BD00001CFC0100A5
:10F220000C28002023FC01002BFC0100B428002046
:10F23000142800203A257000032801DA00207047C6
:10F24000064A800080188038406F002803D002688A
:10F250001369002218470020C0437047B4280020DB
:10F2600070B514460E46032814DA124800680028C8
:10F2700004D10B220921104800F032FA0025002C9D
:10F2800006D9715D0C4800F0B9FA6D1CA542F8D39F
:10F2900020460AE00949800040188038406F002865
:10F2A00005D001680B6831469847201A70BD0020D0
:10F2B000C04370BD0C28002014280020B428002072
:10F2C000012000F000F8002801D000F02BF9FEE743
:10F2D00010B58A68002A02DCFEF716F810BD521E2F
:10F2E0008A604A68C0B2531C4B60107010BD0000A9
:10F2F00070B50446002020560D46401C04D12A2239
:10F300000A490BA000F0ECF80F48002D08D0012DA1
:10F3100005D10022A256012192001018016070BD93
:10F320000021625692001018016070BD58FF010064
:10F330006F626A2D3E70696E20213D202850696EF3
:10F340004E616D65294E43000007005001704A1C54
:10F350000AD001228A4005494260C160091D01614D
:10F36000091D4161091D81607047000008050050BA
:10F3700070B50D4604460026FFF7E8FF6D1C12D05D
:10F38000A057401C04D124220749084800F0A8F8DF
:10F3900021696068086001212046FFF7A9FF314616
:10F3A000204600F035F870BDE0FE0100F8F30100E2
:10F3B000F8B504460E4600271546FFF7C7FF761C32
:10F3C00016D0E057401C04D124220A490AA000F0BC
:10F3D00087F86068002D01D0E16800E021690860CD
:10F3E00001212046FFF784FF3946204600F010F83F
:10F3F000F8BD0000E0FE01006F626A2D3E70696E8C
:10F4000020213D202850696E4E616D65294E4300D4
:10F4100010B502460020105600F014F910BD00008F
:10F42000E12149021948FFF711FC1E4818A10746BF
:10F43000FFF777FC7F261C4DF6051C4C002020565C
:10F44000401C04D124221A491AA000F049F8E168AE
:10F4500060680860304600F011FB144C0020205614
:10F46000401C04D12422124912A000F039F821696D
:10F4700060680860304600F001FB286813A1401C5A
:10F4800028603846FFF74DFCD7E700005C280020D5
:10F490005374617274206170706C69636174696F18
:10F4A0006E0D0A009C28002000280020442800201F
:10F4B000D4FB01006F626A2D3E70696E20213D20F1
:10F4C0002850696E4E616D65294E430046696E692C
:10F4D0007368206120706572696F640D0A00000016
:10F4E00013460A4610B5014601A0FFF7E9FE10BD1C
:10F4F0006D626564206173736572746174696F6EA7
:10F50000206661696C65643A2025732C2066696CFD
:10F51000653A2025732C206C696E65202564200ACD
:10F520000000000098B012216846FFF721FF132168
:10F5300006A8FFF71DFF12210CA8FFF719FF1321E2
:10F5400012A8FFF715FF694600200856401C04D199
:10F550002422344934A0FFF7C3FF039901980860BF
:10F56000694618200856401C04D124222D492EA09B
:10F57000FFF7B6FF0A990798086008A910200856F7
:10F58000401C04D12422274927A0FFF7A9FF109986
:10F590000D98086010A908200856401C04D12422A8
:10F5A000204921A0FFF79CFF159913980860962029
:10F5B00000F076FA694600200856401C04D1242247
:10F5C000184919A0FFF78CFF049901980860694653
:10F5D00018200856401C04D12422124912A0FFF71B
:10F5E0007FFF09990798086008A910200856401C59
:10F5F00004D124220B490CA0FFF772FF0F990D983C
:10F60000086010A908200856401C04D1242205498E
:10F6100005A0FFF765FF169913980860962000F083
:10F620003FFA90E7E0FE01006F626A2D3E70696E5E
:10F6300020213D202850696E4E616D65294E4300A2
:10F640007047704770B504460D46401C04D11A221D
:10F65000074908A0FFF744FF0B48A10008180168FC
:10F660000C22914301600168AA001143016070BD42
:10F67000C0FF010070696E20213D202850696E4E48
:10F68000616D65294E4300000007005030B44B22E5
:10F69000052412012402914206DC4F21006809036F
:10F6A0000019416230BC70470C4B0122D5005D59F6
:10F6B0008D4208DDD100C91880390068C96F001972
:10F6C000416230BC7047521C112AEFDB01210068F7
:10F6D00009070019416230BC7047000034FC01008A
:10F6E000F8B504463C4820603C48154646680A4642
:10F6F0000123194691400E43466047681E02374376
:10F70000476047690F43476141693143416141693E
:10F71000AB40994341614169B300994341614B2337
:10F72000DB0101212E4E0015CF00F7599F4207DD66
:10F73000C900891980392368C96F1B18596207E00D
:10F74000491C1129F0DB0121236809071B185962A4
:10F75000236800211B18D9662668042336183360F5
:10F76000236801269E6023681E602368FF330133EF
:10F77000996027684B1E3F18FB602368FF330133F5
:10F78000D96123681B18D9612768F91DF931CB6944
:10F79000012BFCD10021616008213B189960216890
:10F7A0000918CA6023680A211B1819612168081802
:10F7B0004561501C03D003211046FFF743FF681C2E
:10F7C00003D003212846FFF73DFF064846606268E4
:10F7D00021680261C160F8BD0020004000050050B2
:10F7E00034FC010008280020034B9960406819464A
:10F7F00080000A50704700000828002010B40268FA
:10F800000024FF320132D369012BFCD1D46100689E
:10F8100005221202C9B28018C16110BC704710B530
:10F8200004460068C0688047606840680028206817
:10F8300011D04068804761680246486803689A1A98
:10F84000002A0BDC82684A60616809680029EBD0F5
:10F8500040688847E8E78068804710BD48682168AD
:10F8600000680969884710BD0249002048600249C4
:10F87000086070470011014040110140064841787E
:10F88000002907D00121054A09049160044A9160CA
:10F8900000214170704700001C2800200013014027
:10F8A0004013014070B5104C207800281BD10F493F
:10F8B00088600F49022088600E4948600E49086838
:10F8C000FF22120290430322012592031043086095
:10F8D0000A49680408600A4908600A4805602F2040
:10F8E000FCF7D4FC257070BD1C28002000150140D9
:10F8F000401301400013014010E400E080E200E00A
:10F9000000E100E00010014010B50248FFF787FF5A
:10F9100010BD0000D8FC010010B5114C2078002863
:10F9200001D1FFF7BFFF0F4841680022002906D030
:10F930006168491C616042600B4902208860606810
:10F940001106030A1943094B00065B68114318436B
:10F95000074A0023FCF7C0FC4904C00B084310BD54
:10F960001C280020001101404013014000150140F7
:10F9700040420F00F8B5394C05462078002801D1E7
:10F98000FFF790FF364F78680021364E002805D0EB
:10F990006068401C606079600220B0602F48406859
:10F9A0000C46020A090611432F4A000652682143F9
:10F9B00010432E4A0023FCF78FFC02464804D20B6A
:10F9C0000243C90B601961410123DB079A4204D944
:10F9D0009D4202D20122001C5141420CC903244B1A
:10F9E0001143C0030022C01851415A1C0023FCF7E8
:10F9F0008BFC1A494A78002A02D08A6890422CD09F
:10FA00007A68002A05D04A68521C4A607C6002224B
:10FA1000B2604A68144B12065D682A43821A022AB1
:10FA20000DDC7868002805D04868401C48607C6080
:10FA30000220B06048685A6800061043801C020229
:10FA40000C4B120A1A6088604878002805D1012002
:10FA500048700004B06008494860F8BD1C280020C8
:10FA600000110140401301400015014040420F00C9
:10FA70003F420F00401501400013014070B5074997
:10FA800000F048F8FDF76CF90446FFF745FF05461E
:10FA9000FFF742FF401BA042FAD370BD0024744917
:10FAA00070B57D21C90048430446FFF735FF054680
:10FAB000FFF732FF401BA042FAD370BD10B50029FA
:10FAC0000AD00878002807D005487844FCF7FEFFE4
:10FAD000002801D0002010BD0248784410BD00006D
:10FAE0007E0500007605000010B500290AD00878D0
:10FAF000002807D005487844FCF7E8FF002801D02B
:10FB0000002010BD0248784410BD00006E050000C2
:10FB10006605000070B5420064414B005C41120E66
:10FB200039D01B0E38D0FF2A3CD0FF2B3AD04002F0
:10FB30004902400A490A060045184E43000A090ACC
:10FB4000D2184843ED017F3A0104731A4019190C89
:10FB50004318990F04D001215B0849075B1A521C16
:10FB6000D80904D3401CF50301D19D0607D0FF2A14
:10FB700008D2D50506D0E4072043401970BD012501
:10FB8000A843F4E7002A01DCE00770BD2402FF204F
:10FB90002043C00570BD1B0EFF2A03D0FF2B01D0F0
:10FBA000E00770BDFF2645003606B54206D84D0079
:10FBB000B54203D8D218FF2A00D0E7E7004870BD4D
:10FBC0000000C07F03B402487844844603BC604709
:10FBD00037DEFFFF6D6265642F5441524745545F25
:10FBE0004E524635313832322F5441524745545FD8
:10FBF0004E4F524449432F5441524745545F4D4361
:10FC0000555F4E524635313832322F6770696F5F1B
:10FC10006F626A6563742E68000000002F7374645D
:10FC2000696E002F7374646F7574002F737464654C
:10FC300072720000B004000000F0040060090000CF
:10FC400000D00900C012000000B0130080250000A1
:10FC5000005027004038000000003B00004B00002F
:10FC600000A04E008070000000F07500127A0000C5
:10FC7000000080000096000000509D00C0DA0000E7
:10FC80000010E50000E1000000F0EB00002C010096
:10FC900000903A0100C2010000E0D7010084030097
:10FCA00000B0AF0390D0030000000004000807007C
:10FCB00000705F0700100E00A4DFBE0E40420F0070
:10FCC00000000010A5F8010019F901007DF80100FD
:10FCD00069F8010075F90100C4FC01002C2800201E
:10FCE0003031323334353637383941424344454672
:10FCF000403058003031323334353637383961626C
:10FD0000636465664030780004000008000000006D
:10FD100000000002000100001000000000000000D0
:10FD20000000000002400000000000A000000000F1
:10FD300005400000000000C8000000000C4000006A
:10FD40000000409C00000000194000000020BCBEE4
:10FD50000000000034400000BFC91B8E00000004FA
:10FD6000B5400000504BCFD06607E2CF0100000045
:10FD70006C4100003E8251AADFEEA7340100000072
:10FD8000D9420000DCB5A0E23A301F97FFFFFFFF29
:10FD9000B4450000FD25A0C8E9A3C14FFFFFFFFF48
:10FDA000FF3F00000000008000000000FF3F000057
:10FDB00000000080000000000000000000000000C3
:10FDC00013F0010013F0010013F0010013F0010023
:10FDD00013F0010013F00100A9EB0100E5EB0100B5
:10FDE0000000000000000000000000000000000013
:10FDF000000000000000000000000000E1EC010035
:10FE0000000000000000000000000000C0FFFFFF35
:10FE100000000000F9EC0100F1EC0100000000001E
:10FE20001FED0100F5EC010000000000EDEC010009
:10FE300000000000000000001DEF010000000000B5
:10FE4000BCFFFFFF000000000000000000000000F9
:10FE50000000000000000000F9EC0100F1EC0100DE
:10FE6000000000001FED0100F5EC010000000000A3
:10FE7000EDEC010089ED01000000000013F001002D
:10FE800013F00100FCFFFFFF000000000000000075
:10FE900000000000000000000000000011EE010062
:10FEA00000000000000000000000000013F001004E
:10FEB00013F0010013F0010013F0010013F0010032
:10FEC00013F00100A9EB010069EE01000000000041
:10FED000FCFFFFFF00000000000000000000000029
:10FEE000433A5C4A656E6B696E735C776F726B73D5
:10FEF000706163655C6D6265642D322D6275696C3D
:10FF0000642D6C6962726172795C2E6275696C64D1
:10FF10005C6D6265645C5441524745545F4E524685
:10FF200035313832325C5441524745545F4E4F525E
:10FF30004449435C5441524745545F4D43555F4EDD
:10FF4000524635313832325C6770696F5F6F626A72
:10FF50006563742E68000000433A5C4A656E6B6905
:10FF60006E735C776F726B73706163655C6D6265F5
:10FF7000642D322D6275696C642D6C6962726172D8
:10FF8000795C68616C5C746172676574735C6861EC
:10FF90006C5C5441524745545F4E4F524449435C58
:10FFA0005441524745545F4D43555F4E524635319B
:10FFB0003832325C6770696F5F6170692E63000070
:10FFC000433A5C4A656E6B696E735C776F726B73F4
:10FFD000706163655C6D6265642D322D6275696C5C
:10FFE000642D6C6962726172795C68616C5C7461C9
:10FFF00072676574735C68616C5C54415247455428
:020000040002F8
:100000005F4E4F524449435C5441524745545F4D03
:1000100043555F4E524635313832325C70696E6DF1
:1000200061702E63000000007801020000280020AB
:100030004400000004C10100BC010200442800206B
:10004000CC01000020C101001C00000043000000A2
:10005000F8FFFFFF0C0000000E0000000F00000082
:100060002E0000001001000043000000F8FFFFFF19
:1000700000404040404040404040414141414140BB
:100080004040404040404040404040404040404070
:1000900040050202020202020202020202020202FF
:1000A0000220202020202020202020020202020204
:1000B000020290909090909010101010101010105C
:1000C0001010101010101010101010100202020268
:1000D00002028888888888880808080808080808AC
:1000E00008080808080808080808080802020202A8
:1000F00040000000000000000000000000000000C0
:1001000000000000000000000000000000000000EF
:1001100000000000000000000000000000000000DF
:1001200000000000000000000000000000000000CF
:1001300000000000000000000000000000000000BF
:1001400000000000000000000000000000000000AF
:10015000000000000000000000000000000000009F
:10016000000000000000000000000000000000008F
:1001700000000000A9EEFFFF000000000024F400D2
:10018000000000000000000000000000000000006F
:10019000000000000000000000000000000000005F
:1001A000000000000000000000000000000000004F
:0C01B00000000000000000000000000043
:040000050001C0C175
:00000001FF
