:020000021000EC
:10B00000008000200D1202005D1202005F1202009B
:10B010000000000000000000000000000000000030
:10B0200000000000000000000000000023FB010001
:10B030000000000000000000A9FB0100F1FB01007E
:10B040006712020067120200671202006712020014
:10B05000671202000000000067120200671202007F
:10B0600067120200671202006712020067120200F4
:10B0700067120200671202006712020067120200E4
:10B0800067120200671202006712020067120200D4
:10B0900067120200671202006712020067120200C4
:10B0A000671202006712020010B5064C2378002BCD
:10B0B00007D1054B002B02D0044800E000BF01235C
:10B0C000237010BD203A002000000000280003007B
:10B0D000084B10B5002B03D00749084800E000BF1B
:10B0E00007480368002B00D110BD064B002BFBD096
:10B0F0009847F9E700000000243A002028000300E8
:10B100005C39002000000000164B002B00D1144BCE
:10B110009D46402292029A1A924600218B460F4683
:10B120001348144A121A0DF0BDF90F4B002B00D032
:10B1300098470E4B002B00D09847002000210400B8
:10B140000D000D48002802D00C4804F04EFB0CF016
:10B1500033FD2000290004F015FB04F043FBC0463A
:10B1600000000800008000200000000077F70100C8
:10B17000203A0020E4570020EBF701000000000017
:10B18000C36810B50400002B01D09B6898472000CD
:10B1900010BD10B50368984710BD002801D00B689A
:10B1A000036070477047C36810B50400002B01D0DE
:10B1B0009B689847200010BDCB6870B504000D0057
:10B1C000002B01D05B689847EB682000E36070BDFE
:10B1D00070B504002500436842691835991800F0DD
:10B1E000EFF8636A002B04D1044A0549054804F0CE
:10B1F0002BF9636A28001B68984770BD8F02000016
:10B200005CF102007DF1020070B504000D0006F053
:10B21000FDF9200000F0DCF86561206904F0F2F827
:10B220002918200000F0CCF806F02EFA70BD70B599
:10B230000400250006F0EAF91835200000F0C8F8EF
:10B240002800FFF7B0FF002D01D00023636206F055
:10B250001BFA70BD10B50400064B08330360FFF7FE
:10B26000E6FF20001830FFF79EFF200000F0B6F840
:10B27000200010BD84F1020010B50400FFF7EAFFC2
:10B28000200004F017FB200010BD000070B5050081
:10B29000436A04001835002B04D1054A05490648C5
:10B2A00004F0D2F8636A28001B68984770BDC04656
:10B2B0008F0200005CF102007DF1020010B5040075
:10B2C000034B08330360FFF7C5FF200010BDC046E5
:10B2D00098F1020010B50400FFF7F0FF200004F021
:10B2E000E9FA200010BD10B5040006F08FF92368BC
:10B2F000002B05D1E06804F085F80123606023602D
:10B3000006F0C2F910BD70B50500002406F07EF904
:10B310002B68A34204D0E86804F074F86C68041B3E
:10B3200006F0B2F9200070BD70B5050006F06EF9A8
:10B330002800AC68FFF7E7FF241806F0A5F9200005
:10B3400070BD10B5FFF7F0FFFA21890011F096FEED
:10B3500010BD10B5040006F059F9E06804F052F889
:10B3600000236060A36006F08FF910BD002310B5C4
:10B37000036043608360040004F04AF8E06020004A
:10B38000FFF7E7FF200010BD10B503689B689847E2
:10B3900010BD0000084B10B5083303600023436064
:10B3A0008360C360040004F033F80449206103F0B3
:10B3B000BDFF200010BDC046ACF1020089B3010002
:10B3C00010B50A000300011D006903F0DAFF10BD8B
:10B3D00010B5011D006903F0F5FF10BD10B50400A4
:10B3E000034B08330360FFF7F3FF200010BDC04696
:10B3F000ACF10200002310B5040083669A4202D12A
:10B4000000F09BF801E000F067F8200010BD10B5D7
:10B4100000F054F910BD10B5040000F0A0F82000B1
:10B420005C30FFF7ADFE200010BDF7B54369160094
:10B430000A7907009A40050003695437CB1A1A436A
:10B440004B6901929B1BDA1793439B194B61037B5A
:10B4500038004B710C00009700F003FA2A001368C3
:10B46000002B08D058696169471A02D508331A00C1
:10B47000F5E788421ED0A360002B02D021000831DE
:10B4800019610023E3601460EB6A2261002B1ED077
:10B490002A0028321278002A19D02A68944216D13C
:10B4A000E268002A13D16169286B891BCA1791438E
:10B4B00098470CE09B68A360002B02D02100083164
:10B4C0001961210013680C31E3601961DBE7009812
:10B4D00000F0CBF90198FEBD002370B504000D000B
:10B4E000026183614361002D04D063696D080133FB
:10B4F0006361F8E721626262E561256000F0D4F9DA
:10B5000023006060200028332573A56034301D704F
:10B51000E562256300F0ADF9031E0CDB200054301A
:10B5200000F09CF9031E06DB2000583000F096F96D
:10B53000031E00DD2B00180070BD70B5050008006B
:10B540000E000CF0E1FB041E06D0020031002800C2
:10B55000FFF7C2FFAC6101E00120404270BD70B551
:10B5600004000668002E0CD02568002D07D0EB697A
:10B57000002B02D0280024309847ED68F5E7B66824
:10B58000F0E7E36A002B03D00121206B4942984782
:10B590002000583000F064F92000543000F060F9C9
:10B5A0002000343000F06DF9A0690CF0B7FB70BDDD
:10B5B0000323F7B5273199430300050058331800DA
:10B5C00001930F0000F04DF92B00EC691C33002CA7
:10B5D00013D0226897420CD8E268002A03D01A6080
:10B5E000A368936001E0A2681A60019800F03DF939
:10B5F0001AE02300A4680833E9E72B6A9F420ED8BB
:10B60000DB1B2B6201236E6A0198F2196A623760B4
:10B61000337100F02AF92000341E05D10CE00198A6
:10B6200000F023F9200007E001220023200052420D
:10B630006361A261E3612430FEBD70B50C00243C5F
:10B64000E3690600002B01D0080098473500583503
:10B65000280000F006F93200F3691C32002B07D0F5
:10B660001868216888420CD21A009B680832F5E7F6
:10B670000023E3601368A3602800146000F0F5F86D
:10B6800070BD8842F4D1E36013689B68F3E770B53E
:10B69000140005000E0000F007F9210024394B6961
:10B6A00002001B180E624B612800FFF7BEFE04006B
:10B6B0002800343000F0E9F8200070BDF0B587B004
:10B6C0000400009100F0F0F8009B05001B180293A5
:10B6D0002300283301930023019A0393137026005B
:10B6E0005436300000F0BDF8237B013323736368C8
:10B6F0005B1B002B00DC6560236805A90593002B0C
:10B7000007D05A69521B002A03DC19009B680831D4
:10B71000F5E72360002B00D01C61039B30000B6019
:10B7200000F0A3F8059B05A9002B0ED01A000025F8
:10B730009F68D06895601500002801D00200F8E7E6
:10B7400008330A6019003B00EEE7059D002D25D067
:10B750002B6AAF68002B02D0280024309847AB69D1
:10B76000002B0ADB6A69D3186B6100F09DF8290091
:10B7700002002000FFF759FE0EE02B790133DBB207
:10B780001A002B7161698A4000D1012329002B71B5
:10B7900024312000FFF751FF3D00D7E700F084F887
:10B7A000009B0700002B19DB029B1D1A002D17DCE4
:10B7B000E36A002B3FD0300000F053F8E36A002B1F
:10B7C00008D02268002A05D05169206BC91BCA170E
:10B7D000914398470123019A137021E001256D429E
:10B7E000300000F03EF82368002B06D05969CF1BCB
:10B7F000FB179F43AF4200D23D00300000F035F808
:10B8000020002900343000F044F8A368002B0ED04B
:10B81000300000F026F8A368002B05D0013BA360A0
:10B82000300000F022F806E0300000F01EF800F0D2
:10B830003BF8050053E707B0F0BD2438C1617047FD
:10B8400010B50448FFF785FD034A13680133136000
:10B8500010BDC0466C3A00203C3A002000207047E2
:10B86000704710B505F0D2FE10BD10B505F00CFF05
:10B8700010BD10B5002802D0002104F01FF80020F0
:10B8800010BD10B504F036F810BD10B504F02DF859
:10B8900010BD10B5002901DA0121494204F020F859
:10B8A000C317181AC00F10BDF0B51E4B87B01F7814
:10B8B00001931D4D1D4E002F2BD12800FFF756FD83
:10B8C0001B4C2000FFF766FD676237602700194BAD
:10B8D00028002360FFF707FD174B18370293174B1B
:10B8E00038000593FFF75FFC059B002B03D05B68D6
:10B8F00002A938009847FA21059B89046362200059
:10B900000093FFF781FC02A8FFF74DFC0123019A89
:10B9100013702800FFF715FD33681B04181807B0D3
:10B92000F0BDC046403A00206C3A00203C3A00206E
:10B93000443A00208CF1020041B8010050F10200AD
:10B94000704710B50368002B01D00800984710BD60
:10B9500002000B00F0B5126889B0019203AA15002D
:10B960001E004068016889688C4692CE92C5DB68EB
:10B970000199D36000231361E04709B0F0BD0000D6
:10B9800070B50400002521600E0045600C220830CF
:10B9900029000CF087FD094BA5616361AE420AD115
:10B9A000074D2B68002B02D103F01AFB2860236897
:10B9B0009B00EB586360200070BDC04643B9010096
:10B9C0009C3A002070B500280DD1114C2668002E3D
:10B9D00007D11C3003F05CFF05003100FFF7D0FFFA
:10B9E0002560206812E001260A4D0B4C2B6833427B
:10B9F0000BD1280003F004FF002806D031002000FE
:10BA0000FFF7BEFF280003F027FF200070BDC046EF
:10BA10007C3A0020A03A0020803A0020436810B50C
:10BA20000400002B02D1044803F0B2FD60680368F3
:10BA30009B69984710BDC046EEF10200436810B5FF
:10BA40000400002B02D1044803F0A2FD60680368E3
:10BA50009B6B984710BDC046EEF1020003000A0040
:10BA600070B5083370CA70C3CB684361002383612B
:10BA700070BD0000030007B59A680830002A06D0A0
:10BA8000034A002A03D0019301A95B69984707BDC7
:10BA900041B90100704710B50800FFF793FFFFF7A9
:10BAA000E9FF10BDF7B5FA26B6007143009308AB65
:10BAB0001B780400080015491700019311F054FA8F
:10BAC00085B2300025807843104911F04DFA6B465D
:10BAD0001B8880B2A3806B461B796080A371032D05
:10BAE00001D80423238080232288DB019A4200D9D5
:10BAF0002380032801D80422628062889A4202D9F6
:10BB00008023DB0163802000FEBDC046710200007F
:10BB100070DF704771DF704710B50AF04BFB10BD46
:10BB2000074B10B51C78002C07D1012220001A7099
:10BB300003F052FA2100FFF7AEFF002010BDC0460F
:10BB4000A43A0020F0B505008BB005F019FE2800DE
:10BB500007F0C6FE280000F009FA002003F03CFAC6
:10BB6000036806009B699847336804001B6A30002D
:10BB7000984733680090DB6A3000984703002888B4
:10BB800010380D2800D9D2E011F0DAF90751D1D1DF
:10BB9000D18AD1D1D1D1D192D1AFAE88200031009C
:10BBA000AF7D01F038FB22000121EB7B583201937D
:10BBB0001378287A8B4349180B431370023A137891
:10BBC00069460133137004ABD8701E809F70002348
:10BBD000097904AA137153719371D371137253725B
:10BBE000D372137353739373D373137491722B00C3
:10BBF000290018330622093105A809930CF0C8FB67
:10BC000029000B2004AB06221031C0180CF0C0FB39
:10BC100094346368A360A068002800D187E0C368FB
:10BC200004A99847A368002BF3D01B69F2E74349A6
:10BC30002000AF8801F0EFFA2B7A300001933368CF
:10BC40009B6A98470600ED30FF300622390000F06D
:10BC50004CFF338FBB4204D13000736B34309B6890
:10BC60009847220056321378013BDBB21370002B49
:10BC700003D1022193788B4393706A46127904AB07
:10BC80001F809A70A0346368A360A06800284ED01B
:10BC9000C36804A99847A368002BF4D01B69F3E795
:10BCA00029005B690831002B41D0A88898473EE005
:10BCB0002E7A002E05D122000121583213788B43B1
:10BCC0001370636E002B32D01D4A002A2FD0A3665A
:10BCD000A06E00282BD0C36831009847A36E002BBC
:10BCE00001D1636EF3E71B69F1E7012629000F27F5
:10BCF0002B7C09315A07920F1E400192DB08062265
:10BD000004A8EF5702930CF043FB6A46127904AB88
:10BD10001A726A46127A9F715A72DE712B002000E5
:10BD200011338C3407938030236804A99847290085
:10BD3000009802F0E9F80BB0F0BDC046FFFF00002C
:10BD400041B9010010B5244988B0162005F08CFADD
:10BD50006A46012313700633D37000231F495370C2
:10BD6000937068461E4B48220AF096FB002801D0CB
:10BD70000AF07CFA03AC2200012103200AF0F8FB50
:10BD8000C0230122DB002361237B1343237304239D
:10BD90002380002801D007201CE020000AF000FCCE
:10BDA0000028F8D101A8FFF7B5FE0028F3D101A9BA
:10BDB000FFF7AEFE0028EED10A480AF0B5FB80B2CC
:10BDC000002807D108480AF0B9FB80B2002801D149
:10BDD00000F090F908B010BD51650200A83A0020AB
:10BDE00021BB010045BB010019BB010010B50022B9
:10BDF00004000270431C11341A700133A342FBD1BA
:10BE0000418210BD10B50378002B08D10B78002BB0
:10BE100011D1428A4B8A9A420DD101200CE0012BAC
:10BE200009D10B78012B06D10131013010220CF021
:10BE300087FA0028F1D0002010BD00000300F0B503
:10BE400007005F3391B001931B7805000E005C374B
:10BE5000022B00D07CE007AC2422002120000CF053
:10BE600021FB002108A8FFF7C1FF0023237663838D
:10BE7000A383E38323849533FF33EB58079A9342DC
:10BE80001BD12800993008A9FF30FFF7BBFF00281D
:10BE900013D02B009533FF331A7E217E4A40520681
:10BEA0000BD1598B628B914207D1DA69E1698A42E1
:10BEB00003D11A8C238C9A4247D0002E2FD11823FD
:10BEC0003A7831005343EB1876331A88D9235B0054
:10BED000EA522B0002A830330093FFF787FF02A934
:10BEE0000098FFF78FFF002811D129009931FF3109
:10BEF0000098FFF787FF002811D031002000FFF7DE
:10BF000075FFA81D2100FFF77DFF002807D128003D
:10BF10006B6C4430002B02D0134B002B1DD124221C
:10BF2000002120000CF0BEFA002108A8FFF75EFFF8
:10BF3000280000239530FF302222210023766383DE
:10BF4000A383E38323840CF023FA0123019A137063
:10BF50003B7801333B7011B0F0BD29009531FF31C2
:10BF60002B6D9847DBE7C04641B901007FB504005F
:10BF7000002003F031F803689B6A9847030006002D
:10BF800005002088ED3330383436FF33092800D9D6
:10BF90009EE010F0D5FF059D137F8F212E9D4660FA
:10BFA000E388002B05D1210030000C3102F034F978
:10BFB0008EE06B6B30009B68984789E0E388002B2C
:10BFC00005D1210030000C3102F0AAF980E00021F7
:10BFD0003000FFF733FF7BE06B6B30005B68984706
:10BFE000002800D174E0210030000C3102F0F4F997
:10BFF0006EE06A46A3881380A3895380E389938007
:10C00000238A1234D3800294AB68EB60E86800287E
:10C010005ED0C36869469847EB68002BF4D01B6973
:10C02000F3E76A46A3881380A3895380A37B137127
:10C03000238AD380638A1434138103946B69AB61C0
:10C04000A869002844D0C36869469847AB69002BAB
:10C05000F4D01B69F3E76A46A3881380A389538051
:10C06000A37B1371238A12340294D3802B6A002B92
:10C070002ED01B4A002A2BD06B62686A002827D07A
:10C08000C368694698476B6A002B01D12B6AF3E7B6
:10C090001B69F1E7E288A188002A05D085204000CD
:10C0A000824211D1002210E0220018000C3200F070
:10C0B0002FFD0DE0E288A188002A05D1220018009A
:10C0C0000C3200F066FD03E00B22180000F00DFDBD
:10C0D000300002F0A9FA300002F022FA7FBDC0461B
:10C0E00041B9010077DF704778DF70477ADF70472A
:10C0F0007CDF70477FB502AC0822002120000CF0E5
:10C10000D1F9282323806933FF33124E6380E38003
:10C11000803BFF3B01AD30002B700CF099FC3100EF
:10C1200082B22800FFF7E4FF80B200280FD1802000
:10C130008000FFF7D9FF80B2002808D12000FFF768
:10C14000D5FF80B2002802D1FFF7CCFF80B204B047
:10C1500070BDC04611F2020087DF704768DF70478C
:10C1600073B50400002002F037FF0368DB6A9847CC
:10C17000050020780C2800D977E010F0E1FE520786
:10C18000174A706576567676765F6100374B0122E6
:10C190001B786D68190058085B0611405B0F024060
:10C1A000002D01D06088A84701222FE0237A012BBF
:10C1B00002D1A08807F028FDAB68002B02D0608870
:10C1C0000021984701AE60883100FFF7C5FF337842
:10C1D0001A07120F012A02D0022A09D00FE01B0908
:10C1E000013BDBB20021022B0AD8214AD15C07E0D7
:10C1F0001B090421012B03D00131022B00D00021A7
:10C20000EB68002B01D0608898470022194B1A7008
:10C210002BE06389184A8821934200D8D9B2AB68D1
:10C22000EFE7A08807F0F0FC1FE0637A002B1CD139
:10C230002B69002B19D06088984716E0002200E097
:10C2400003220E4B1A6010E009F0F2FD0E280CD00C
:10C25000082302009A4308D00AF008F805E00123F9
:10C2600001A90B70608807F0C3FB73BDFC2E002092
:10C2700017F20200F53A0020FF0F0000F03A00200C
:10C28000014B18787047C046F43A0020F0B517000B
:10C290000022294C0D00217885B0060001949142BE
:10C2A00047D193420ED002A922200293FFF756FFF6
:10C2B000002807D0062208283BD0113842424241CC
:10C2C000043236E007F01EFB0B22002831D1012199
:10C2D0001A480D40037832008B439C466B0065463C
:10C2E0000A4015430222072495431D43702327402B
:10C2F0009D433F012F430770C378002E02D00B43AC
:10C30000134301E08B439343C37007F053FB0028B2
:10C3100002D10B4807F03AFB0422072809D0023269
:10C32000082806D00B22002803D10123019A13709C
:10C330000200100005B0F0BDF43A0020FC2E0020F1
:10C3400061C10100112310B5084C236007F0D6FB32
:10C35000031E06D12368112BFCD0002023688342E2
:10C3600003D00620082B00D0053010BDF03A002085
:10C3700037B501AD0C00290007F04CFB021E13D1AC
:10C38000297802200B00034002D02070100013E037
:10C390000122180011420FD0084B1B78002B01D04E
:10C3A000227009E0207007E00620082A04D0044B20
:10C3B00002389A4200D007303EBDC046F53A002010
:10C3C0000230000010B5040001290AD0022928D14A
:10C3D0000120154A137803438B431370D37803432A
:10C3E00007E00220104A13788B4383431370D378FD
:10C3F0008B430D48D37007F0DDFA011E03D12000F6
:10C4000007F0E8FA0100042007290BD002300829C0
:10C4100008D00B20002905D10122044B08001A7016
:10C4200000E0022010BDC046FC2E0020F43A00209F
:10C43000094B10B519780200092300290AD00821F8
:10C44000002007F0D9FA0023984203D003330E28C6
:10C4500000D00333180010BDF43A002010B506F0E8
:10C46000A0F810BD022310B50B708C330B713F3B4D
:10C470004B712D338B714A1C043106F069F810BDE5
:10C48000A2DF7047A3DF704763DF70470022014BD4
:10C490001A607047F83A002010B586B06B46DC1D74
:10C4A00000232370C15C02AA99540133102BF9D1E7
:10C4B00021001000FFF7E8FF0023984200D1237805
:10C4C000180006B010BD00000122F0B5438A87B005
:10C4D0000393037804000192002B42D08318009349
:10C4E000254B11271A681D00029200222349029B46
:10C4F000934217D03E00002356438E19981E012800
:10C5000005D9F05C84460098C05C844508D10133AD
:10C51000102BF3D111235A4389180B7C019320E08F
:10C520000132E4E70098FFF7B7FF23780600019097
:10C53000002B01D112340094029B042B11D018005F
:10C54000112460430D4F1022381800990BF020FF82
:10C5500000222B685C4301333F19BA70FA703E74B5
:10C560002B606A46127905AB9A705888039B0004C9
:10C570000343180007B0F0BDF83A0020FC3A002051
:10C58000F0B59BB01F0020AB029102CB0BAC1B8817
:10C590000391049322AB1B880190059323AB1B7876
:10C5A0002000069325AB1E8826AB1B78079327AB8C
:10C5B0001B78089308ABD91D0A7001220BF0E8FE26
:10C5C000302322781A4211D00CAC03220021200023
:10C5D0000BF068FF0622A3789343043A13430E320C
:10C5E000A3701100012319432170617013AC1C2248
:10C5F000002120000BF056FF0BAB1D7830232B40A1
:10C60000591E8B410CAA5B421A4025706261002EB4
:10C6100005D0249B002B02D06360268166810DAC7F
:10C620000322002120000BF03DFF0120079B089A08
:10C6300003400240DB001101DBB20B431A00069BF2
:10C6400003401800022313430343A37032231D4207
:10C650001ED0781E04281BD82278233B9A4310F062
:10C660006FFC0305070C1100012107E001210AE01E
:10C6700001210A431340302208E002210A431340FB
:10C68000102203E002210A431340202213432370A7
:10C690000C231D421ED0781E04281BD86278033359
:10C6A0009A4310F04DFC0305070C1100012107E02F
:10C6B00001210AE001210A431340302208E002214F
:10C6C0000A431340102203E002210A4313402022B0
:10C6D000134363700EAD1422002128000BF0E2FE1C
:10C6E000029B2A000E936B461B8A13A92B816B4673
:10C6F0009B8A0198AB81039B6C602B61289BFFF7A1
:10C70000BFFE80B21BB0F0BDF0B589B000930EAB98
:10C710001B8805000F001600019303220FAB0021B8
:10C7200002A81C780BF0BEFE012302221C40144319
:10C7300002AA94701900102202A81143020003AC4F
:10C74000017051702000142200210BF0ABFE02ABEF
:10C7500063606B461B88109A23816B469B8821007F
:10C7600028000397A3812661FFF78CFE80B209B0F1
:10C77000F0BD93DF704794DF704710B50368002B5E
:10C7800001D00800984710BD10B50368002B01D0F8
:10C790000800984710BD03680A6870B505000C00D2
:10C7A00093422BD10379002B0CD10B79002B25D18F
:10C7B000C28ACB8A9A4221D12B7E227E53405B06CD
:10C7C0000DD01BE0012B19D10B79012B16D10531AE
:10C7D000053010220BF0B4FD0028EDD00EE06A8B7E
:10C7E000638B9A420AD1EB69E269934206D12B8CA2
:10C7F000208C181A42424241D0B200E0002070BDA5
:10C80000F8B504000D0022220BF0C2FD2A0023001F
:10C810002432243343CA43C32B6B002123632300F8
:10C82000616338330832C1CAC1C36B6C20006364D2
:10C83000A164F8BD70B506000D000400E4362900BF
:10C840002000FFF7A8FF002802D14C34B442F6D1F3
:10C8500070BD70B50D0004000B68102203600B79E9
:10C860000371CB8A0531C38205300BF091FD2B7E1D
:10C87000200023766B8B6383AB8BA383EB8BE383EB
:10C880002B8C238470BD000007B501AB1980190003
:10C890005A80FFF76EFF032310280CD003D8002323
:10C8A000984208D006E00523112804D0034A013B32
:10C8B000904200D00B2318000EBDC046023000008D
:10C8C00007B501AB198019005A80FFF754FF032305
:10C8D00010280FD006D8002398420BD00633082822
:10C8E00008D006E00523112804D0034A013B9042FA
:10C8F00000D00B2318000EBD0230000070B50025DB
:10C900000400290020C0FFF771FA0C262000320035
:10C91000290025766583A583E583258424300BF0E3
:10C92000C1FD2000064B65632363320029003830C7
:10C930000BF0B8FD034BA5642000636470BDC046D6
:10C940007BC7010089C7010010B50400FFF7D6FFBF
:10C9500020004C30FFF7D2FF20009830FFF7CEFFC9
:10C96000200010BDF8B5040016001D00FFF771FF90
:10C9700023003200243383CA83C3F3680022236375
:10C980002300290062633833C1C9C1C3EB682000AA
:10C990006364A264F8BD70B58AB004000190038C92
:10C9A0000E000168132003ADAB8013780391AB71C7
:10C9B000538A511C684410222B830BF0E9FC2000A1
:10C9C0006E8302952430236B01A998470AB070BD8D
:10C9D00007B503006A460090117138305B6C6946F8
:10C9E000984707BDF0B50C00A7B068461500FFF7E3
:10C9F00030FF220009AB243243CA43C30021236B1A
:10CA00000D910C9308320EABC1CAC1C3636C13A85D
:10CA100011931291FFF772FF13A92000FFF7F0FEA8
:10CA200029006846FFF7D4FF27B0F0BD30B50400F9
:10CA300097B003A8FFF762FF03A92000FFF7ABFE42
:10CA4000051E18D00F9B226B0193934213D1210036
:10CA50000C2224310CA80BF073FC00280BD1149B82
:10CA6000626C934207D121000C22383111A80BF0DF
:10CA700067FC002800D00025280017B030BD70B535
:10CA800005000E000400E43531002000FFF783FEAE
:10CA9000002806D02000FFF7C9FF002801D12000A0
:10CAA00003E04C34A542EFD1002070BD10B5040066
:10CAB000FFF7E5FF011E03D000222000FFF792FFE1
:10CAC00010BD70B505000E000400E435238CB342A0
:10CAD00006D12000FFF7AAFF002801D1200003E0C3
:10CAE0004C34A542F2D1002070BD70B50400150091
:10CAF000FFF7E7FF011E03D02A002000FFF772FFB7
:10CB000070BD10B5FFF7DDFF431E9841C0B210BDE8
:10CB1000F0B589B006000F000092FFF7D2FF041EA7
:10CB200035D00025009B1B889D421AD206236B43FB
:10CB3000009AD3189A79012A0DD15A88998803A8A6
:10CB400001920135FFF752F903AA01992000FFF77E
:10CB500022FFADB2E6E7598838000A00FFF7B0FEC1
:10CB60000FE00622013B5343009AD3185988E28B09
:10CB7000013189B2914201D9002204E03800FFF767
:10CB800083FE021E03D021003000FFF72BFF09B007
:10CB9000F0BDF0B589B0009001911400FFF791FF4E
:10CBA000051E45D0002723889F422CD2A37800225F
:10CBB000012B07D111337B43E318D98803A8FFF772
:10CBC00015F915E0110003AEB31801325970102A9F
:10CBD000FAD11221012379433370611802AB581D39
:10CBE00006310BF0D5FBB37B727B1B0213437382C0
:10CBF00012237B43E318998803AA2800FFF7CBFE92
:10CC00007B1C9FB2CFE71222013B5343E418A1885B
:10CC1000EA8B013189B2914201D9002204E00198E6
:10CC2000FFF732FE021E03D029000098FFF7DAFE5C
:10CC300009B0F0BD70B505000400E4352000FFF731
:10CC4000F5FE002803D14C34AC42F7D1040020009B
:10CC500070BDF0B54C8B1E000234CB8B99B0A4B2E2
:10CC600007000D00039201939C420BD9082200217A
:10CC700005A80BF017FC0595F36805A93000984747
:10CC800000241EE00B8C19000293FFF73AFF0028E6
:10CC900001D0052415E03800FFF7CCFF071EF8D0BF
:10CCA0002100019A0298FFF7EFFD041E09D1290027
:10CCB0003300039A05A8FFF755FE05A93800FFF7D2
:10CCC0009FFD200019B0F0BD0284012230B503ACF5
:10CCD000258804AC4583150024881D408483047E88
:10CCE00001609443590811402C4302259140AC4304
:10CCF0000C4304219D081540AD008C432C430825AE
:10CD0000D9081140C900AC430C4310211D0915403E
:10CD10002D018C432C43202559099B09AC4311401C
:10CD20001A409301220049010A4340218A431A43D1
:10CD3000027630BDF0B589B01C000EAB1D780FAB8C
:10CD40001B8810AE009333880026B446016003A907
:10CD5000019302840E7063468A1901365370102EB7
:10CD6000F9D14C82041D8CC98CC40CC90CC46B460F
:10CD70001B88047E43836B469B8869088383012359
:10CD80001A009C432A4019401443022299409443BC
:10CD90000C430421AA081A4092008C431443082231
:10CDA000E9081940C90094432A091A400C431201AA
:10CDB000B4431443202269099443AA09194013403B
:10CDC0009A01230049010B4340218B43134303760F
:10CDD00009B0F0BD70DF704771DF704772DF7047D8
:10CDE00073DF704774DF704775DF704776DF704719
:10CDF00077DF704778DF704779DF70477ADF7047F9
:10CE00007BDF70477CDF70477DDF70478ADF7047CC
:10CE10008BDF70478CDF70471420704764207047A9
:10CE2000A0208001704710B5FFF7F2FF031E00D06D
:10CE30000523180010BD10B50400FFF7D3FF03232E
:10CE4000002806D12300012158331A788A431A702A
:10CE50000300180010BD08003B2110B58A4200D025
:10CE60002839FFF7C3FF03005A1E934103205B429A
:10CE7000184010BD030010B5FE330A00D98B0368BB
:10CE80001B6A984710BD10B50800FFF7B9FF0300F3
:10CE90005A1E934103205B42184010BD10B5080094
:10CEA000FFF7ACFF03005A1E934103205B4218407A
:10CEB00010BD080010B51100FFF796FF031E00D04B
:10CEC0000323180010BD080010B51100FFF79CFFE8
:10CED000031E00D00323180010BD10B50800FFF793
:10CEE00089FF031E00D00323180010BD10B50800F1
:10CEF000FFF782FF031E00D00323180010BD10B5FA
:10CF00000800FFF775FF0023984203D0053311286E
:10CF100000D0023B180010BD024B0B6008231360C9
:10CF20007047C04628F2020008207047B8300170F0
:10CF300000207047B9300170002070470220704710
:10CF4000B83000787047B9300078704700207047DB
:10CF500010B50368002B01D00800984710BD10B52C
:10CF60000368002B01D00800984710BD02000300A1
:10CF700010B5F33211786C309B6F984710BD10B527
:10CF8000002801D01CC91CC010BD704710B54168F5
:10CF900003684A108068C90701D58158CB588018AA
:10CFA000984710BD13B50C001100012C06D86B4634
:10CFB0000622581C0BF0ECF9002005E0A31E012B03
:10CFC00001D9032007E001206B4669461C70FFF77A
:10CFD00001FF0028F5D116BD37B568460D001400D5
:10CFE000FFF7FAFE032300280DD1002D02D06B4677
:10CFF0001B782B70231E06D06B460622591C20007E
:10D000000BF0C6F9002318003EBDF8B506000D0070
:10D01000002407273300BA331B78A3420ED96B795B
:10D02000A3420BD9380060432B683118BB31181864
:10D03000072201340BF0ACF9E4B2EBE72C710020CD
:10D04000F8BD112337B5080001AC23700D000BF0BB
:10D05000FFFC290082B22000FFF7D4FE031E00D09F
:10D06000032318003EBD0000012110B5044A08004A
:10D0700004F050FB031E00D00B23180010BDC04667
:10D080000DD5010010B50C00C97F01201F290ED855
:10D09000002901D103200AE0D37F2000FFF79EFE84
:10D0A0000028F7D1208CFFF7A5FE0028F2D110BD93
:10D0B00070B504000068002804D0056902F0FAFB8E
:10D0C0002800F8E7206070BDF8B503680700DB6C46
:10D0D0000D000C7998470323844228D800230721A8
:10D0E0002879DAB2904208D90A005A432C680133F1
:10D0F000125D032AF5D1042319E03E000024BA365C
:10D1000034702B79A34211D9072161432B68307801
:10D1100059180723584338181A00BB300BF038F958
:10D120003378013401333370E4B2EAE700231800A6
:10D13000F8BD0000F0B50600040087B0AC36736897
:10D14000B360B568002D08D0EB682100280098472F
:10D15000B368002BF3D01B69F2E72000B030FFF773
:10D16000A7FF2200FC235832117826000B401370D1
:10D1700023000A3656331D709D7129001F2230008E
:10D180000BF090F9F5772A3629001F2230000BF0BA
:10D1900089F92000F5776430FFF78AFF2000983086
:10D1A000FFF786FF200001AEA430FFF781FF2900C2
:10D1B0000C2230000BF076F9230032006C3383CA66
:10D1C00083C3094BE567A3670C22290030000BF0ED
:10D1D00069F92300803307CE07C32800034A90343F
:10D1E0001A60256007B0F0BD5FCF010051CF01008C
:10D1F00010B50400FFF79EFF00280AD1230001228A
:10D20000FE335242DA83BA34463B187058702070AD
:10D2100000E0062010BDFE30C1837047FE30C08B99
:10D2200070470000F0B593B0019000200C0001F0B1
:10D23000D3FE0368DB6A9847FFF722F806AB0028A5
:10D240000DD000221A7105AA0692082218001A733E
:10D250000AAA9A60FFF7ECF8002802D052E0187191
:10D26000187300231F0023732371019BBA331B78AB
:10D27000BB4246D907237B43019AD218BB321278AE
:10D28000022A31D1002506AE337BAB4236D90720C6
:10D290007843AB000293019BAA001818089BBB308F
:10D2A0009958FFF7DBF800281BD0B368AA009A58FA
:10D2B000237BA1689B005A50237B01332373337B6C
:10D2C0005A1E954208D01049B2685B189B009B58C3
:10D2D00003930399029BD15006AA137B013B13735E
:10D2E0000CE00135EDB2CEE701992279CB18216827
:10D2F000BB33920053502379013323717B1CDFB27F
:10D30000B3E7002013B0F0BDFFFFFF3F70B598B04A
:10D3100008AB009310AB02936A460023050013711B
:10D320001373B9352B780C00002B1ED1012304A8F0
:10D330002A780678A1799E43194013405A00330099
:10D340000B4302218B43134303706B4643602388D6
:10D35000038163884381A3888381FFF757FD421EC1
:10D36000904103234042034005E06946FFF75AFF1E
:10D370000028DBD00300180018B070BDF0B59DB0D8
:10D380001F006B4605001A70581C0622229E02AC34
:10D390000AF0FEFF002F07D03B8823807B88638044
:10D3A000BB88A380FB8806E032232380DB186380E0
:10D3B000F533A780FF33E3800CAB04A9049314ABCF
:10D3C0008B602F000023B9370B710B733B78002B58
:10D3D00017D101203B78022708A903405A000B7897
:10D3E000BB4304AF4F601343002E10D0B279834388
:10D3F000024013430B7033880B8173884B81B388D1
:10D4000011E02800FFF70EFF0028E2D029E02A00F3
:10D41000323212788343024013430B70AB8D0B8181
:10D42000EB8D4B812B8E220068468B81FFF7F2FC3F
:10D4300003000020834214D00630082B11D005D8F9
:10D440000130042B0DD0834208D109E00520112BB7
:10D4500007D0054A934203D0102B01D00B2000E0E7
:10D4600004201DB0F0BDC0460232000070B50C00B3
:10D4700009789AB0022201293FD06388032906D196
:10D48000A03B1F4D9BB20A00AB4236D805E0203BC3
:10D490001C499BB203228B422FD81B4BA18803222D
:10D4A00099422AD80AAB009312AB02936A46002332
:10D4B000050013711373B8352B78002B04D069461F
:10D4C000FFF7B0FE021E18D104AE18220021300072
:10D4D0000AF0E8FF2378300033702B7833726B4604
:10D4E000F36063883382A3887382FFF779FC021E9E
:10D4F00003D00722042800D0043A10001AB070BDEF
:10D50000603F0000E03F0000FF3F000030B5040036
:10D5100087B0002001F060FD03689B699847030015
:10D52000F3331C70114B0500029300230490039306
:10D530000D300F4BFF300400F4350593FDF733FE3B
:10D54000002C09D0059B002B03D05B6802A92000AA
:10D550009847059B0193E36000212800FDF754FEE6
:10D5600002A8FDF720FE07B030BDC0466DCF010018
:10D570001CF202000220704700207047704790DFC5
:10D58000704796DF704798DF704793300078431EEE
:10D590009841C0B27047080010B511001A00FFF79B
:10D5A000F0FF0023984204D0113843424341062043
:10D5B000C31A180010BD000030B5002485B001ADBD
:10D5C0006B80089B2970EB80099B290010006C7010
:10D5D000AC800393FFF7D7FFA04207D00534112892
:10D5E00004D0044BC018444244410634200005B026
:10D5F00030BDC046FCCFFFFF10B50368002B01D043
:10D600000800984710BD10B50368002B01D0080032
:10D61000984710BD10B50368002B01D0080098474B
:10D6200010BD10B5ED30FF30FFF713FB10BD10B586
:10D63000ED30FF30FFF7FEF810BD10B5ED30FF30D4
:10D64000FFF734FA10BD70B504000068002804D05C
:10D65000056902F02FF92800F8E7206070BDF0B5E9
:10D6600087B001AB1A000C00E0CCE0C20200B5327A
:10D67000FF32C96870CB70C20023B530FF30C16083
:10D68000036107B0F0BD0000F0B597B005930368E3
:10D6900007AC1B6804910393110023000600A1C985
:10D6A000A1C30025D36829000C220CA80A9311AF4E
:10D6B0000B950AF0F7FE094B290038000F931095DF
:10D6C000FEF794FB059B2200009301970CAB049995
:10D6D0003000039CA04717B0F0BDC04607D601003C
:10D6E000F0B50026050089B003AC8680310020002B
:10D6F000FEF77CFB2100A81D14220AF049FE310030
:10D700000C2220000AF0CEFE2B0022001C3383CA1C
:10D7100083C30F4B3100AB62EE6220000192FEF733
:10D7200065FB2B002200303383CA83C3019A03CAEE
:10D7300003C30C22310020000AF0B4FE2B00443356
:10D7400007CC07C33000034B6E652B6509B0F0BDF5
:10D75000F9D5010007D6010070B5040086B0E36A70
:10D760002363206B002807D0C36821009847236BF0
:10D77000002BF4D01B69F3E720002C30FFF763FF88
:10D7800020000830FFF75FFF20001430FFF75BFF39
:10D7900020002030FFF757FF20003430FFF7A0FFB4
:10D7A000051E29D123009033187058709870D870D6
:10D7B000C2235B00E050E218863BFF3B536093605E
:10D7C000D3601361CE225200A05022009D32FF325E
:10D7D00001AE53609360D360136101000C223000EE
:10D7E0000AF060FE2300B533FF3307CE07C3B5341C
:10D7F000034BFF34E3602561002006B070BDC046D6
:10D8000015D6010070B504008AB001AD24220021B4
:10D8100028000AF047FE002102A8FEF7E7FA2000E0
:10D820000026953022222900FF302E766E83AE83AB
:10D83000EE832E840AF0ACFD236820005B689847D5
:10D8400023005F331E70B0420DD0C0235B00E3584D
:10D85000B34208D0054BB34205D020008130FF30E1
:10D86000A188C36898470AB070BDC04641B901009D
:10D8700010B53430FFF7C6FF10BD0000F0B591B011
:10D88000019106A904009C4610000B00E0C8E0C30B
:10D89000D368654603930BAB18000293C8CDC8C08C
:10D8A000200027003430059093373D780620002D66
:10D8B0003FD16046C368049350239C46A44463460A
:10D8C00045C945C3039B029AE36523002566783367
:10D8D00043CA43C32000049A16991A6004331D609A
:10D8E00014223A300AF054FD2000142217996430B3
:10D8F0000AF04EFD6B469B8801212387230090345C
:10D9000091331D702A00257001983970FFF737FE9A
:10D9100004002800002C0CD00598FFF773FF0520A9
:10D92000112C06D0044B9C4202D00130072C00D1B0
:10D93000042011B0F0BDC04602300000A0DF7047E7
:10D94000A4DF7047A5DF7047A6DF7047A8DF7047E8
:10D95000A9DF70470020704713B504680093A468DE
:10D9600013000A000149A04716BDC046FFFF000092
:10D97000F7B50D0016000021082268461F00089C1C
:10D980000AF090FD6A462388310028001380019731
:10D99000FFF7D8FF0323002803D16B461B882380A1
:10D9A00003001800FEBD000037B506AC25780468FA
:10D9B00001950093246913000A000149A0473EBD68
:10D9C000FFFF0000F8B5040000200D00160001F074
:10D9D00003FB03689B69984723689F69FFF71EFC58
:10D9E000330001002A002000B847F8BD70B50400DC
:10D9F0000068002804D0056901F05CFF2800F8E702
:10DA0000206070BDF0B5D48B02001E000023457964
:10DA100085B0C4329D4223D908321700083F3F88A1
:10DA2000A74210D11833DB00C3180E241A89022331
:10DA30006C442380036803AD00949F682B00B847B3
:10DA4000021E02D00DE00133E4E723880620022BFA
:10DA500007D12B8810009B0703D00123337000E00F
:10DA6000042005B0F0BD0000F0B589B001930700B7
:10DA70000FAB0D0016000021082202A81C780AF046
:10DA800011FD0EAB1B8802AA1380019B0393002C8F
:10DA900009D031002800FFF753FF421E90410323B5
:10DAA0004042034071E03B007A79C433A24211D96D
:10DAB0000833190008390988B14209D130221C34D1
:10DAC000A4003F197B680133DB7F134227D101E0BB
:10DAD0000134EBE702AA31002800FFF731FF0C28E0
:10DAE00001D1032351E00C2808D80528F9D00728D4
:10DAF00013D00023984248D00B2346E010280CD0C6
:10DB000003D808230F2840D0F6E7214B9842E8D0ED
:10DB1000D0239B019842E4D0EEE7042335E00222B3
:10DB20000020DB06DB0F04ACD31AA370019B268018
:10DB3000E3600EABA360174BA0809D4207D101F0BC
:10DB40004BFA03689B699847FFF768FB05002100C3
:10DB50002800FFF7F9FE83B2002B16D01800112B16
:10DB600012D002D8082B06D007E00B4B98420BD0FE
:10DB70000A4B984201D1062307E002AA310028008F
:10DB8000FFF7DEFE0028ACD10523180009B0F0BD78
:10DB900002300000FFFF00000330000001340000ED
:10DBA000F0B5050097B008002E240B91FEF78CFC11
:10DBB00004ABE4181090220010A90120FFF7BEFE6C
:10DBC000002801D00320D1E023880B9A0A90938388
:10DBD0000B9B0A9A1B7D934253D96B79132B01D966
:10DBE0000720C3E00B9B9B690C930A9B0C9A9B003C
:10DBF0009C586369002B49D1638B002B46D1631C71
:10DC0000DB7F022B42D137E06979A31C1831C900B0
:10DC100069180431621CDB7FD27F089121002A3110
:10DC200009780020079121002931097806910D9982
:10DC300005910C990491217F0391218B0291618BB5
:10DC400001916169009110A9FEF79AFC0028B9D1F1
:10DC50006B7907001A001C3292001833AA18DB00F7
:10DC60005460EB189B88E3836B7901336B7123005D
:10DC700028331B78BB422FD80A980130C3B20A93CD
:10DC8000A6E72B79002001332B716FE02000FEF70F
:10DC90001BFC002610900D960C96230028331B7851
:10DCA000B342B1D9626AB3009F580023180011A98A
:10DCB0000B70CA1801335070102BFAD12C4B38005E
:10DCC0004B82FEF79FF8002803D07B690C937B8B77
:10DCD0000D930136F6B2E0E7C2235B00EB5C072B45
:10DCE00000D97DE7626ABB009E580023180011A985
:10DCF0000B70CA1801335070102BFAD11C4B300036
:10DD00004B82FEF77FF80C9000282CD13000FEF7F4
:10DD1000DBFBC2225200AA5C738BC0325200AA18ED
:10DD200006320292327F10900192328B10A900923B
:10DD300072690C98FEF7E8FC002800D042E7C22385
:10DD40005B00EB5C1A0058329200C033AA185B00EB
:10DD50005660EB18DB88C222F383C2235B00EB5CC6
:10DD600052000133AB54781CC7B280E717B0F0BD46
:10DD700001290000F0B5040087B0236B6363666B74
:10DD8000002E08D0F368210030009847636B002B09
:10DD9000F3D01B69F2E720003030FFF727FE2000A8
:10DDA000267166710C30FFF721FE20001830FFF756
:10DDB0001DFE200001AD2430FFF718FE31000C22BB
:10DDC00028000AF06FFB23002A00383383CA83C37C
:10DDD0000F4B31006364A6640C2228000AF062FB3A
:10DDE00023002A004C3383CA83C3094B0C22A3654A
:10DDF0003100E66528000AF055FB2300603307CDAB
:10DE000007C33000024B2667E36607B0F0BDC0468B
:10DE100015D6010070B50500FFF7ACFF041E1DD13B
:10DE200028005022210074300AF03CFB28006530A5
:10DE300020222100FF300AF035FB280008222100B3
:10DE4000C4300AF02FFB28008730FF301022210059
:10DE50000AF028FBC2235B00EC5400E006242000FB
:10DE600070BD00000B68002B01D1036002E0024B83
:10DE7000036000234360704741B9010070B504009E
:10DE80000D006368A360A068002807D0C36829005C
:10DE90009847A368002BF4D01B69F3E770BD10B559
:10DEA000C368984710BD30B5150087B004290ED05F
:10DEB000052917D0032925D138300100040004A812
:10DEC000FFF7D0FF049B002B18D1059B14E04C30CA
:10DED000010004006846FFF7C5FF009B002B0DD131
:10DEE000019B09E060300100040002A8FFF7BAFFBF
:10DEF000029B002B02D1039BDB0703D529002000E6
:10DF0000FFF7CDFF07B030BDF0B50B888FB005002F
:10DF10000C00512B3ED00AD8012B25D0502B00D01D
:10DF200012E10200CE88C832417900230EE0522B64
:10DF300029D0532B00D007E1CE88052137E00832E5
:10DF4000100008380088B04203D001339942F6D857
:10DF50002CE030221C339B00EB185868431CDB7FFD
:10DF6000134200D0D8E021E00C7AEB682B612869DD
:10DF7000002800D1E8E0C368210098472B69002BF6
:10DF8000F3D01B69F2E7002388881A001900FFF715
:10DF9000DFFCD9E08B79012B05D0022B00D0D3E038
:10DFA0000E89072103E00E89062100E002212B00E3
:10DFB00000206A79C43300900098824200D8C3E000
:10DFC0000833180008380088B04214D106296AD0F6
:10DFD000072913D03200022900D0A7E0A3880AA99C
:10DFE0000B804E80237B0B71E389CB80238A123414
:10DFF0000B81CC6052E000980130DCE71022002158
:10E0000002A80AF04FFAA38802AA13805680238A36
:10E0100006AF9380638A0021D3802300102214333B
:10E020003800019304930AF03DFA02233B70013B50
:10E03000BB71009B1C339B00EB185A6813002A33FA
:10E0400019780023994206D01000D36C403002A901
:10E05000984702AB9B8906AFBB8002AA92883A819F
:10E0600002AAD2887A81049AFA60002B03D0012296
:10E07000BB799343BB71A0883900FFF767FCBB886D
:10E08000002B61D1A3880AA90B804E80A37B0B7162
:10E09000238ACB80638A0B81019BCB6028001430DC
:10E0A000FFF7ECFE50E006AF1022002138000AF026
:10E0B000F9F9A3887E803B80E3890AAE1022002113
:10E0C0003000BB800AF0EEF90123009833701C3059
:10E0D00080002D186B681A002932117800229142B5
:10E0E00005D0180039002C309B6B9847BA89B28054
:10E0F000BB89002B0BD1BA68002A08D00121B37963
:10E100000B43B371BB883381FB88F2607381A088B5
:10E110003100FFF71BFC17E0E17CA27C09020A43F7
:10E12000990607D50321940704D5C28B2800FFF771
:10E13000BAFE09E00421DB06F7D501231A401300DB
:10E14000594259410331F0E70FB0F0BD90DF7047FD
:10E1500092DF704795DF704770B5002504002900F5
:10E1600020C0FDF743FE25766583A583E5832584DE
:10E17000200070BD02680300002A0AD0511E9200E0
:10E1800040689A1819600433934204D059681960A2
:10E19000F9E701204042704702680300002A0AD0D4
:10E1A000511E920040689A1819600433934204D0BB
:10E1B00059681960F9E7012040427047F7B5060039
:10E1C000182733687569002B1DD02B000322746853
:10E1D0005F337C431A700F4904222C1968460AF0F9
:10E1E000D7F8230074331B8801AA13807634238860
:10E1F00069465380A888FFF7ADFF002809D030009A
:10E20000FFF7B8FFDDE75F352B78032B01D1023B29
:10E210002B70F7BD28F3020003000022F0B55C3339
:10E220001A700A788BB004000133042A00D9042242
:10E23000A8201A700122002627004000524223180D
:10E2400026508D1C5A609A60DA601A61603701901E
:10E2500023005D331B789E4228D2AB78002B0ED171
:10E26000019B0199E3585A1C625022005132FF323F
:10E270009B00D318AA885E60EB88BA8211E02988D7
:10E2800005A8FDF7B3FDAB8814220293EB8805A91E
:10E29000380003930AF07CF86B461B89BB826B46FF
:10E2A0009B89FB82013608351837D1E72300FC3300
:10E2B0005B6D002B04D020005130FF30FFF77EFF54
:10E2C0000BB0F0BDF7B50600242733687469002B46
:10E2D0001CD0230004225F331A70042275680F4992
:10E2E0007D43C0358918684665190AF051F86B8B73
:10E2F00001AA138001335380A0886946FFF72AFFE3
:10E30000002809D03000FFF747FFDEE75F342378AD
:10E31000042B01D1023B2370F7BDC04628F3020055
:10E320000300F0B50A7887B004000F005E33042ABA
:10E3300000D90422B4211A70012200254900631873
:10E34000524265505A609A60DA601A61A83B0493A1
:10E35000BE1C059123005E331B789D4230D2B378FA
:10E360003189002B17D1059B0598E3585A1C225080
:10E3700022006932FF329B00D3185D600A236B4391
:10E380000191F188FB180091A2889B79A16D0498F6
:10E39000FEF79AFC0EE033880291F18868460191FD
:10E3A0000A21694379188979A2880170A16D0498BE
:10E3B000FEF7C0FC049B0135243304930A36C9E7F9
:10E3C0002300FC33DB6E002B04D020006930FF30CB
:10E3D000FFF778FF07B0F0BD7FB503005F331B7810
:10E3E0000600032B2DD105002E4B0A685135FF3551
:10E3F0009A4222D110228968684609F0C9FF280094
:10E40000FFF7B8FE18234343F4182300012220002D
:10E4100060331A7069460F32613009F0B9FF23008A
:10E4200022006E331B786D3421781B0272320B434D
:10E4300013802800FFF7C2FE33E02800FFF79AFEA2
:10E440002FE0042B2DD10500174B0A686935FF35E5
:10E450009A4223D1896810220331684609F098FF57
:10E460002800FFF799FE24234343F41823000122D8
:10E470002000C4331A7069460F32C53009F088FF96
:10E4800023002200D2331B78D13421781B02D632EC
:10E490000B4313802800FFF715FF02E02800FFF769
:10E4A0007BFE7FBD01001000010013000B68002BF4
:10E4B00001D1036002E0024B036000234360704718
:10E4C00041B9010010B5C368984710BD73B5050088
:10E4D0000800A9802900002402265E310C704E70CD
:10E4E00001A90A804B80FFF733FE10280ED005D813
:10E4F000A04210D00634082809D005E005241128D0
:10E5000005D0064B984201D00B2400E004242100E2
:10E510002800FDF793FC200076BDC04602300000C5
:10E52000F0B5040018268DB023005F3301931B78EB
:10E53000012B75D1250020005C355D302B780278E9
:10E54000934252D20021A71D07A8FDF74FFC07A94F
:10E550003800FDF757FC002808D1297838007143AE
:10E5600060316118FDF74EFC00283AD027001C37B7
:10E57000390003A8FFF79AFF039B002B03D1012268
:10E58000049B134211D0002107A8FDF72FFC2000A7
:10E5900007A93030FDF736FC002806D0297838006E
:10E5A000714360316118A36A9847019B1F78012F5E
:10E5B00017D1210005A84431FFF778FF059B002BF8
:10E5C00002D1069B3B420CD02A78A1887243A21844
:10E5D0001300743276331B8812882000FFF776FF11
:10E5E000A2E72B7801332B709EE7002A18D0002B6E
:10E5F00016D01822013B53430022E31876331988C2
:10E60000084B02702A70994203D12000FFF7FAF8F4
:10E6100006E0013189B2A088FFF798FD0028F4D107
:10E620000DB0F0BDFFFF00000300F0B55F3397B001
:10E6300002931B780400022B00D0CAE0030095333C
:10E64000FF33242200210DA8019309F02BFF0DA810
:10E65000FFF782FD0DA90198FEF79DF8011E35D147
:10E6600023005E331B78002B30D02300D9222600F4
:10E67000DA331B885200013BA352303608A8FDF75D
:10E68000B5FB08A93000FDF7BDFB051E11D1210027
:10E690009931FF313000FDF7B5FB002816D0290075
:10E6A0000DA8FDF7A3FBA01D0DA9FDF7ABFB0028EE
:10E6B0000CD125004435290004A8FFF7F7FE049B80
:10E6C000002B00D07BE0059BDB0778D400252700DA
:10E6D0005E373E78B54249D2029B1B78022B78D137
:10E6E000731E9D4209D124214D432900C031611878
:10E6F0002222019809F04CFE38E0242324226B43A7
:10E70000C033E7186B1C5343C033E3185B8B002105
:10E71000013BFB83230008A830330393FDF766FB1E
:10E7200008A90398FDF76EFB061E0FD1391D03984B
:10E73000FDF768FB002816D031000DA8FDF756FB49
:10E74000A01D0DA9FDF75EFB00280CD12600443664
:10E75000310006A8FFF7AAFE069B002B34D1012248
:10E76000079B134230D10135EDB2B0E7029B1B7815
:10E77000022B2ED1002E08D02233013E5E43C0363C
:10E78000A619B38B01339BB200E0134B22005C321D
:10E79000117818224A430021A21876321288397063
:10E7A000934208D20DA90B804A80A088FFF7D0FCC5
:10E7B00000280ED00B212000FDF740FB09E0019955
:10E7C0002800FFF77FFE81E739003000FFF77AFE6F
:10E7D000C9E717B0F0BDC046FFFF00000220704738
:10E7E00002207047002070470020704700487047A3
:10E7F000FFFF000002207047022070470220704790
:10E8000002207047022070470220704702207047A4
:10E810000220704702207047022070470220704794
:10E8200002207047022070470023136070470020C9
:10E830007047022070470220704702207047022074
:10E84000704702207047002070470020704700206A
:10E850007047022070470220704741607047816016
:10E860007047C16070470161704741617047022085
:10E870007047022070470220704702207047022034
:10E880007047022070470220704790DF704766DFB4
:10E89000704748DF70475F300078431E9841C0B230
:10E8A0007047007970470C3070470C30704710B5D6
:10E8B00003689B6B9847FFF7ECFF10BDF7B501931A
:10E8C000036800915B680400170098470500062064
:10E8D000002D3BD123003A001C3343CA43C3FB68DD
:10E8E000019AA3622300E562443343CA43C3019BF8
:10E8F0001422DB68089923656565A01D09F048FDB1
:10E90000200014220999303009F042FD6B461B8823
:10E910000121A38023005D331D70013B1D70D97060
:10E920002A000098FFF7B1FF06002800002E0DD046
:10E93000236820009B6898470520112E06D0044BC1
:10E940009E4202D00130072E00D10420FEBDC046F9
:10E9500002300000044B10B51A78002A03D00022C0
:10E960001A7007F045FD10BDA43A0020FC3070B5C8
:10E97000846B0500002C0DD1242000F089FF064B8C
:10E9800044608361054B8460C46004614461C46178
:10E990000360A863A86B70BD04F40200BCF402001D
:10E9A0000823F0B597B002AA137106AA029202AA30
:10E9B000137310000EAB0C000493FDF739FD061E17
:10E9C00002D10500072710E00023237130E0380052
:10E9D000029B6843019322680199AB0010185958B3
:10E9E000072209F0D5FC0135EDB202AB1B79AB4231
:10E9F00004D96379AB42EAD8257119E0257107275C
:10EA0000002502AB21791B7B6918AB420FD96379D2
:10EA100099420CDA794323685918049B0193019AAF
:10EA2000AB0098580135FDF71DFDEDB2E9E7217106
:10EA3000300017B0F0BD10B5FDF784FC10BD10B567
:10EA400008001100FDF7BEFC10BD10B50800110054
:10EA5000FDF78EFC10BD10B5080011001A00029BD6
:10EA6000FDF714FC10BD00007FB503791548002B9D
:10EA700026D0154D154C2B782000002B20D102AE4E
:10EA80003000FFF704FF002814D17388592B11D1EF
:10EA90003378B288D91F012902D800920C4A01E0CC
:10EAA00000920C4A2021200009F042FF01232B7024
:10EAB000200005E020220849200009F0FDFFF7E7CB
:10EAC00004B070BDE8F40200403B0020803C002010
:10EAD00002F502001FF5020044F5020070B50400C3
:10EAE0000068002804D0056900F0E4FE2800F8E77B
:10EAF000206070BD10B50400024B08C0FFF7EEFFA8
:10EB0000200010BD90F4020010B50400FFF7F2FFE2
:10EB1000200000F0CFFE200010BD000010B5040062
:10EB2000024B08C0FFF7DAFF200010BD34F40200EA
:10EB300010B50400FFF7F2FF200000F0BBFE20003C
:10EB400010BD000010B50400024B08C0FFF7C6FF5F
:10EB5000200010BD24F4020010B50400FFF7F2FFFE
:10EB6000200000F0A7FE200010BD000010B504003A
:10EB7000024B08C0FFF7B2FF200010BD14F40200E2
:10EB800010B50400FFF7F2FF200000F093FE200014
:10EB900010BD000010B50400024B08C0FFF79EFF37
:10EBA000200010BD44F4020010B50400FFF7F2FF8E
:10EBB000200000F07FFE200010BD000010B5040012
:10EBC000024B08C0FFF78AFF200010BD04F40200CA
:10EBD00010B50400FFF7F2FF200000F06BFE2000EC
:10EBE00010BD70B50400E3692362256A002D08D0CA
:10EBF000EB68210028009847236A002BF3D01B699B
:10EC0000F2E720001C30FFF769FF28006560A5606F
:10EC1000E5602561656170BD10B5FFF7E2FF002872
:10EC200000D0062010BD000010B50400024B08C043
:10EC3000FFF754FF200010BD58F3020010B5040088
:10EC4000FFF7F2FF200000F035FE200010BD0000AD
:10EC500010B50400024B08C0FFF740FF200010BDB4
:10EC600048F3020010B50400FFF7F2FF200000F0A7
:10EC700021FE200010BD000010B50400024B08C0AA
:10EC8000FFF72CFF200010BD38F3020010B5040080
:10EC9000FFF7F2FF200000F00DFE200010BD000085
:10ECA00010B50400024B08C0FFF718FF200010BD8C
:10ECB00068F3020010B50400FFF7F2FF200000F037
:10ECC000F9FD200010BD000010B50400024B08C083
:10ECD000FFF704FF200010BD80F4020010B504000F
:10ECE000FFF7F2FF200000F0E5FD200010BD70B539
:10ECF000037905000924002B29D007F009FC043C06
:10ED0000002824D12E00FC36306B002803D1B06BD4
:10ED1000002806D10AE003681B6A9847041EF6D053
:10ED200015E003689B6A9847041E10D1706B002899
:10ED300004D00368DB6A9847041E08D128000C3011
:10ED4000FEF756FA041E02D1FDF7A0FB2C7120003D
:10ED500070BDF7B5037907000E001400002B08D032
:10ED600008220021684609F09DFB0A256B461D71AB
:10ED70000CE0FCF7E7FF05000C20002D0FD101236C
:10ED800008223B712900684609F08CFB3000FCF733
:10ED900019FEE36800906946200098472800FEBDF0
:10EDA000FC3070B5846B0500002C0DD1242000F0E0
:10EDB0006FFD064B44608361054B8460C460046151
:10EDC0004461C4610360A863A86B70BD04F40200D1
:10EDD000BCF40200124B10B508330360114B040061
:10EDE000C3608023104A5B00C250C018FCF732FA9F
:10EDF00020000E4BB830E360FFF752FF2000AC302C
:10EE0000FFF712FF2000A030FFF722FF20006C3038
:10EE1000FFF732FF2000FCF73DFE200010BDC0468A
:10EE20004CF5020038F20200A0F1020078F3020073
:10EE300010B50400FFF7CEFF200000F03BFD2000DE
:10EE400010BD10B51F220021040009F02BFB002388
:10EE5000E37710BD10B5FEF7D5FC10BD444AF0B500
:10EE60000600C260A022434B16360833036001003F
:10EE7000002342820400320085B003718360037472
:10EE8000838235311370013200259142FAD18027F7
:10EE900080222000D201BF001100F57737842B00BB
:10EEA00000953830FCF7FEFD23002100403303932A
:10EEB0001A002B005F311370013200258A42FAD10B
:10EEC000039B2200DD77230060331F809D70FC23AD
:10EED0006432117820000B401370230068331D70DA
:10EEE000254B2900E36625670C22783009F0DAFA11
:10EEF0002300270088331D60204B0837FB678437C9
:10EF000029000C22380009F0CDFA1D4B1D4AFB6088
:10EF10002300A0333D611A601B4A5D60DA601B4A22
:10EF20001D619A61DD613000FFF78BFF0398FFF7E9
:10EF300088FF174B601CE3602300C4331D705D70B5
:10EF40009D70FF30FCF726FA23001933FF33DD6094
:10EF50008023104A5B00E250230001222000FE3390
:10EF600052425A85023B1D635D639D6305B0F0BD4F
:10EF700078F302004CF5020038F302005FCF010085
:10EF800051CF010048F3020058F3020068F3020079
:10EF900038F20200A0F1020070B50B4D0B4C2B684B
:10EFA000DB070FD4280000F02BFC00280AD020003B
:10EFB000FFF754FF280000F04FFC054A05492000E8
:10EFC00000F00EFC200070BD7C3C0020443B002083
:10EFD000F82E0020D5ED010010B5FFF7DDFF10BDC4
:10EFE00010B5FFF7D9FF10BD70B50C220D00002140
:10EFF000040009F057FA00232361024B256020002A
:10F00000E36070BD15D6010070B500250400254BE6
:10F0100005710360244B45718360244BC5604361D7
:10F02000234B85610362234B4562C362056329005C
:10F030003830FFF7D9FF200029004C30FFF7D4FF0C
:10F04000200029006030FFF7CFFF1B4B2200236018
:10F050002300C432743320C39342FCD126001D0028
:10F060006536FF36280008220021083509F01AFA13
:10F07000AE42F7D12100330000208531FF3101C3BA
:10F0800000229942FBD1C2235B00E25421002300FD
:10F0900097318733FF33FF311A8002339942FBD116
:10F0A000200070BD54F4020014F4020024F40200A5
:10F0B00034F4020044F4020004F30200FC30036B59
:10F0C00070B50400002B07D1CC20400000F0E0FB1D
:10F0D0000500FFF799FF2563206B70BDFC30036BC3
:10F0E00070B50400002B07D1CC20400000F0D0FB0D
:10F0F0000500FFF789FF2563206B70BDF8B500257B
:10F1000004000E00857105830C2229001C3009F0D3
:10F11000C9F92A4B2000A36223003033E5621D7039
:10F12000231DDD8744300C22290009F0BBF9244B54
:10F13000A6652365234B27002360230026005C334C
:10F14000656560371D705D709D70DD70C03638007C
:10F150000021FCF74BFEBD82FD821837BE42F6D17E
:10F1600025005135FF3524220021300009F09AF99D
:10F1700030002436FEF7F0FFB542F4D1A823002179
:10F180005B00E150B42223002000FC33520099655B
:10F19000D9651966596681306C61A1501967596744
:10F1A0009967D967A3185C61FF30FFF71DFF200046
:10F1B0009530FF30FEF7D0FF2000F8BDF9D50100F3
:10F1C00007D60100A0F40200FC3070B5466B0500C4
:10F1D000002E1CD1B420800000F05AFB04000D4B1F
:10F1E000866043600C4B466103610C4B0662C36151
:10F1F0000B4BC66283620B4B210003603430FFF778
:10F200007DFF2000ED30FF30FDF79EFB6C63686BE7
:10F2100070BDC04634F4020024F4020080F4020001
:10F2200090F40200C4F2020003000A0070B570CA34
:10F2300070C3CB68C3600023036170BD10B581301B
:10F24000FF30FFF7F1FF10BD30B587B00400FEF7C7
:10F2500047FA051E24D123005C331870587098704B
:10F26000D870A8235B00E050E218523BFF3B53608C
:10F270009360D3601361B4225200A050220069321F
:10F28000FF32010053609360D360136101A8FFF760
:10F29000ABFE2000813001A9FF30FFF7C5FF00E081
:10F2A0000625280007B030BD0023C35670B5050001
:10F2B0000C00013304D120220849094800F0C4F8A9
:10F2C00000210123A0226956D2058B40002C02D0D8
:10F2D000A121C90000E00349535070BD90F5020020
:10F2E000CDF502000C05000070B50D0004001600FD
:10F2F00002F0DCF86B1C0BD031002000FFF7D4FFCC
:10F300000121200002F040F90021200002F01AF94A
:10F3100070BD10B50022FFF7E7FF10BD10B5024821
:10F3200000F00DF810BDC046FCF5020070B50400F9
:10F330000D0003681B68984763681D6070BD036813
:10F3400070B5DB680400984763685A682368002A30
:10F3500002D19B68984713E05B681568984763681B
:10F360002D1A5A68002D07DC916859601B68002B24
:10F37000EAD050689847E7E7236810681B69984708
:10F3800070BDF8B507000D001C00160002F03EF934
:10F39000002379686C604C682E60002C05D02268D0
:10F3A000B21A02D42300A468F7E7002B05D13B680A
:10F3B0004D601B693000984700E09D60AC6002F032
:10F3C00063F9F8BD70B505000C0002F01FF96A681A
:10F3D0005368A3420CD19B6853602A68002B02D16A
:10F3E000936898470BE012691868904707E013008C
:10F3F000002B04D09A689442F9D1A2689A6002F076
:10F4000043F970BD10B503685B68984710BD0000F4
:10F410000048704718F6020010B50248FFF78FFF4A
:10F4200010BDC04618F6020010B508F081FC10BDF2
:10F4300010B509F07DF810BD10B508F013F910BD36
:10F4400010B507F0E7FE10BD70B50D001600040002
:10F4500002F0DCF833002A002100034800F088F8AD
:10F4600000F024F870BDC04620F602000023C35609
:10F4700070B505000C00013304D120220849094869
:10F48000FFF7E2FF00210123A0226956D2058B403D
:10F49000002C02D0A121C90000E00349535070BDE7
:10F4A00090F50200CDF502000C0500001FB51521F6
:10F4B0006846FFF72EFF162101A8FFF72AFF172144
:10F4C00002A8FFF726FF182103A8FFF722FF6846CE
:10F4D0000121FFF7CBFF01A80021FFF7C7FF02A81A
:10F4E0000021FFF7C3FF012103A8FFF7BFFF96200C
:10F4F00000F07AF868460021FFF7B8FF01A8012163
:10F50000FFF7B4FF02A80121FFF7B0FF03A8002115
:10F51000FFF7ACFF962000F067F8D8E770B50D0054
:10F520000400A0B002F072F82A00210068460BF037
:10F53000ADFE051E03DC02F0A7F820B070BD0A4B3B
:10F540000A4E1B68002B04D10B220921300007F062
:10F55000A1F900246B463000195D013407F054F91D
:10F56000A542F7D1E7E7C0460C4E0020B85700206F
:10F570000FB407B504A901C90191FFF7CFFF03B08C
:10F5800008BC04B01847EFF310830120984370477C
:10F590000FB407B504A901C90191FFF7BFFF01200E
:10F5A00000F020F970B5040007F072FBFA210500A5
:10F5B000890020000DF062FD061E03DDFFF7E3FF6A
:10F5C000002807D1002C0CDD07F062FB401BA04295
:10F5D000FAD306E0300000F09FF902487043241887
:10F5E000F0E770BD18FCFFFFFA2310B59B005843ED
:10F5F000FFF7D8FF10BD0000024B10B5186800F0EF
:10F600000DFD10BDFC510020084B10B51B68002BF0
:10F610000AD1074C092120000B2207F03BF9962163
:10F620002000890107F09AF810BDC0460C4E00205A
:10F63000B857002070470000030010B50020022BCF
:10F640000DDD0749033B9B005A585850824204D0B5
:10F65000136810005B68984701E00120404210BD2C
:10F66000B43C002070B50C001500022810DC0F4BD4
:10F670001B68002B01D1FFF7C7FF6619B44205D004
:10F6800021780B4807F0C0F80134F7E728000BE0B9
:10F690000338084B8000C058002803D003681B685B
:10F6A000984701E00120404270BDC0460C4E00204A
:10F6B000B8570020B43C002010B50C0002280BDC29
:10F6C0000C4B1B68002B01D1FFF79EFF0A4807F087
:10F6D00077F8207001200BE00338084B8000C058F9
:10F6E000002803D003689B68984701E0012040424E
:10F6F00010BDC0460C4E0020B8570020B43C00207E
:10F70000030010B50120022B0BDD033B054A9B00D3
:10F710009858002803D00368DB68984701E001206F
:10F72000404210BDB43C0020030010B50020022B65
:10F730000BDD033B05489B001858002803D00368E5
:10F740001B69984701E00120404210BDB43C0020F5
:10F7500010B5022804D880239B014B60002005E0EF
:10F7600007F088FD092303600120404210BD10B559
:10F77000012000F037F810B5FFF75CFF00F082F9C8
:10F7800010BD704710B5FFF7FCFF07F04DFC10BD32
:10F790000C4910B50B681818EFF30882904205D396
:10F7A0000C220120084B40421A600AE0074A126806
:10F7B000002A04D0064C2468A2189042F0D20860B7
:10F7C000180010BD042F0020E0570020B03C00209E
:10F7D000B43D002010B5002801D0FFF767FEFEE71A
:10F7E0000120704710B5FFF7F5FF0120704710B5F5
:10F7F00000F056F910BD10B500F05CF910BD000026
:10F8000070B503240378050023400026012B18D08F
:10F8100001210D4B4942186800F0D6FB2B781C40A3
:10F82000012C02D1FFF7E8FE0BE0002C04D0074AC0
:10F8300007490848FFF708FE022201262B781343E8
:10F840002B70300070BDC046FC5100202103000029
:10F850005BF602007CF60200032310B50278040078
:10F860001340022B04D0074A07490848FFF7ECFD74
:10F87000032223789343023A13432370FFF7BCFE1D
:10F8800010BDC046290300005BF60200A2F602008C
:10F8900010B508F039FA041E02D10248FFF778FECD
:10F8A000200010BDE1F6020010B5002801D008F0DC
:10F8B00035FA10BD10B5FFF7F7FF10BD70B50500A4
:10F8C00004000E00083508222800002108F0EAFD97
:10F8D00065603100201D00F05DFC2060200070BDDF
:10F8E00010B5006800F078FC10BD10B5006800F09D
:10F8F00085FC10BD10B50400006800F091FC2000EC
:10F9000010BD0000034B10B51B68002B00D09847BA
:10F9100010BDC046B83D002010B500F0C7FA10BDBC
:10F920007047000010B5024B1B689847FBE7C046C4
:10F93000082F0020F7B5836A01919B0802D1204B64
:10F940001B889B08056B9C002C19620700D5043CA2
:10F950008027221F7F0417602700019A2600083F96
:10F960003A600022403E31009446624604C18F4214
:10F97000FBD12200C769203A1760019AC662426330
:10F980000F4A12680192D20016D5112B14D9103BE0
:10F990005A08D20053421A00383AA41832000949D2
:10F9A000A24203D0083A51601160F9E7F31804331A
:10F9B0009D4201D2034A1A60034B2B60F7BDC0463B
:10F9C00060F70200CCCCCCCCA52E5AE2C36A1962F7
:10F9D0007047C36A19625A627047000010B50C483C
:10F9E00000F0D0FA02000B4B0B481A6000F0CAFA84
:10F9F00002000A4B0A481A6000F0C4FA094B18606A
:10FA000008F0DAF800210020FFF7BCFE10BDC04668
:10FA1000ECF70200FC510020E4F70200F43D002066
:10FA200068F70200F03D002010B5FFF77BFF10BD26
:10FA300010B5040000F006FA210002000148FFF7AB
:10FA4000A7FD10BD80F7020010B5FFF75BFF10BDEA
:10FA50008020064A00011060054B064A06491360E3
:10FA60000648074ACB1A036011607047F84500202A
:10FA7000E8570020B43D002000780020B03C002072
:10FA80001C46002000F02CFCFFF7E2FF0348002199
:10FA900000F00AFB00F052F9FEE700000C2F0020F6
:10FAA000012110B5024B4942186800F08DFA10BDD3
:10FAB000F43D002010B5024B186800F0AFFA10BDFD
:10FAC000F43D002080F309887047EFF30980704708
:10FAD000684680F309884A480078C00703D10320AC
:10FAE00080F314887047022080F314887047454BD8
:10FAF0009C46EFF305831B0605D1EFF31483DB0768
:10FB000001D000DF704760473F4B9C46EFF3058311
:10FB10001B0605D1EFF31483DB0701D000DF70472C
:10FB20006047EFF3098081690239097800292BD1F8
:10FB3000A6461FC8A4467446E047EFF3098307C3EF
:10FB4000324B06CB91421CD0083B00290DD0EFF37D
:10FB500009802038C862F0C044464D4656465F468C
:10FB6000F0C00CB401F0EEF80CBC1A60D06A103092
:10FB7000F0C8A046A946B246BB4680F309882038A3
:10FB8000F0C80220C043004710B5214A12689142D4
:10FB900009D8204C89006458A6461FC8A446F047DF
:10FBA000EFF309840FC410BD01F070F8174B06CBBA
:10FBB00091421AD0083BEFF309802038C862F0C0A8
:10FBC00044464D4656465F46F0C00CB401F0BAF8C4
:10FBD0000CBC1A60D06A1030F0C8A046A946B246E4
:10FBE000BB4680F309882038F0C80220C043004794
:10FBF00001F08AF8DAE707F079F801F085F8D5E73F
:10FC000064F7020043090200610902003C5700202A
:10FC100000000000FCFFFFFF30B500240B4A136812
:10FC2000002B06D09D68A94203D31C00491B1B680A
:10FC3000F6E703608160002B02D09D68691A996025
:10FC4000002C01D0206000E0106030BDF85600208C
:10FC5000002313B5984218D0431C15D00C4C0D4A04
:10FC60002300904211D80C4B1B680193FA239B0090
:10FC70005843019B0199013BC0180DF075F9230011
:10FC8000A04202D883B200E0044B180016BDC04663
:10FC9000FEFF000000093D005CF70200FFFF0000CE
:10FCA000031E09D0032202400020824204D11978A9
:10FCB0001000002900D118007047000070B50E4DEB
:10FCC0002878002815D10D4C23680533D97F01F021
:10FCD000ADF82368DA78FF2A03D1DA6A203282F39A
:10FCE00009886268002A00D10CC401F053FA01238C
:10FCF0002B70002070BDC046F55600203C570020F8
:10FD0000014B18787047C046F556002090B5EFF3C8
:10FD10001084002C07D1EFF30584002C03D1EFF3FE
:10FD20001484E40702D4034B187802E0024FBC4667
:10FD300000DF90BDF556002001FD0100F0B589B04F
:10FD4000EFF310838225002B39D1EFF30583002BCD
:10FD500035D1FFF7DBFF002807D11A4C2468002CAF
:10FD600003D06468002C00D0A047EFF3148403266E
:10FD70003440022C0FD0B44218D0FF25012C1ED0E5
:10FD800008AC84F30988104C2478E40707D50224D2
:10FD900084F3148805E00C4C2478E4070BD486F334
:10FDA0001488BFF34F8FBFF36F8F04E0064CFF251D
:10FDB0002478E40703D4054FBC4600DF0500280083
:10FDC00009B0F0BD2C57002064F70200BDFC010013
:10FDD00070B50B001500002801D100202AE006684C
:10FDE000002EFAD00422815ECA1C92B2062AF4D8F0
:10FDF0000022C468944200D00269043124022143E5
:10FE0000300001F053F80028E7D00B4B0138800098
:10FE1000C4580A4AE36A5A63094B1B68002B07D08F
:10FE20009B68002B04D0E07829009847E06300E04D
:10FE3000E563200070BDC04658510020EDFF010071
:10FE40002C57002010B500F0E9FF031E03D0013845
:10FE5000024B8000C358180010BDC0465851002006
:10FE600010B5FFF71DFF8023041E0FD0084B1B6841
:10FE7000002B04D0DB68002B01D0C06B9847E078E2
:10FE800001F066F88123FF2800D00023180010BD80
:10FE90002C570020002310B5984204D0FFF7D8FE5D
:10FEA00001F0AEF94023180010BD0000B0B5050008
:10FEB000EFF310848220002C07D1EFF30584002C8F
:10FEC00003D12800014FBC4600DFB0BD95FE010004
:10FED000830705D1002805D0436901691B6803E049
:10FEE000002300E0030019001800704790B50400DB
:10FEF0000800034FBC4600DF20606160200090BD19
:10FF0000D1FE010010B5031E0AD00468231E07D0DD
:10FF1000002322789A4203D1200000F034FD230010
:10FF2000180010BD70B5032405000E0004408023A6
:10FF3000002C12D1002810D00278032A0DD108001D
:10FF4000FFF786FE0100280000F09AFD230001283B
:10FF500003D1C133002E00D1403B180070BD10B555
:10FF60000324802304400AD1002808D00278032A01
:10FF700005D100F011FD8123FF2800D023001800D7
:10FF800010BD0000F8B50500EFF310860020864292
:10FF900014D1EFF305843000002C0FD1EFF314805F
:10FFA000C00707D406480078002803D12800FFF7CF
:10FFB000A9FF03E02800034FBC4600DFF8BDC046A0
:10FFC000F556002005FF0100B0B50500EFF31084E1
:10FFD0008220002C07D1EFF30584002C03D12800E8
:10FFE000014FBC4600DFB0BD25FF010001210848DC
:10FFF000B0B549420068FFF7E7FF064FBC4600DF97
:020000022000DC
:100000000400FFF721FD2000034FBC4600DFFEE7A0
:10001000F056002045FE010061FE0100B0B505006C
:10002000EFF310848220002C07D1EFF30584002C1D
:1000300003D12800014FBC4600DFB0BD5FFF0100C7
:10004000F7B5060000910192EFF310820024A2425E
:1000500021D1EFF305831400002B1CD1EFF314839F
:10006000DB0708D40D4B1B78002B04D1019AFFF756
:10007000AFFE04000FE00121094D49422868FFF757
:10008000A3FF30000099019A064FBC4600DF040030
:100090002868FFF7C3FF2000FEBDC046F5560020CC
:1000A000F0560020D1FD010010B50022FFF7C8FF77
:1000B00010BD000010B5031E0FD00468231E0CD025
:1000C000002322789A4208D105481300814204DCBB
:1000D00089B2200000F036FD2300180010BDC04694
:1000E000FFFF000070B5050003202840041E12D158
:1000F000002D10D02B78022B0DD10800FFF7A8FDA2
:100100000100280000F06AFD03002000012B04D04C
:100110006888013001E00120404270BD10B5032421
:10012000802304400CD100280AD00278022A07D18B
:100130004188044A0133914202D000F039FD230086
:10014000180010BDFFFF000010B5032480230440F9
:1001500007D1002805D00278022A02D100F0F8FC6D
:100160002300180010BD000010B5032480230440B4
:100170000CD100280AD00278022A07D14188044A0B
:100180000133914202D000F04BFD2300180010BD56
:10019000FFFF0000F8B50500EFF31086002086424F
:1001A00014D1EFF305843000002C0FD1EFF314804D
:1001B000C00707D406480078002803D12800FFF7BD
:1001C00079FF03E02800034FBC4600DFF8BDC046BE
:1001D000F5560020B500020090B5EFF31084002C16
:1001E00007D1EFF30584002C03D1034FBC4600DF99
:1001F00001E00120404290BDE5000200B0B5EFF300
:100200001084002C03D1EFF30584002C02D0FFF7FB
:10021000ABFF02E0014FBC4600DFB0BD1D01020094
:10022000B0B50500EFF310848220002C07D1EFF366
:100230000584002C03D12800014FBC4600DFB0BD6F
:100240004901020010B50300041E0FD001680B1E07
:100250000CD04068031E09D0002302789A4205D1D1
:100260000431890089B200F039FA6368180010BDC2
:1002700070B5124C2378002B01D100F00FFFFF2244
:100280000F4B25781B689A70002D11D129000D485D
:10029000FFF7D8FF0C4B2A00186029000B48FFF726
:1002A00097FD0B4B18600B48FFF76CFE0A4B18606C
:1002B000012300202370094B187070BDF4560020F4
:1002C0003C570020F0F70200F85100206CF70200C4
:1002D000EC56002000F80200F0560020F5560020F1
:1002E000B0B5EFF310858224002D0ED1EFF3058514
:1002F000002D0AD1EFF31484E40702D4FFF7B8FF0E
:1003000002E0034FBC4600DF04002000B0BD000047
:100310007102020030B5040085B00D00002814D031
:100320000378012B14D10800FFF792FC02A9020008
:10033000200000F0E1F9012804D12800451EA84161
:10034000800100E01020029904E08020210001E0FB
:10035000802000210022130005B030BD70B580233D
:1003600004000E00150000280ED0002A0CD10278DF
:10037000012A09D100F01AFA8123002804D03100A3
:10038000200000F017FA2B00180070BDF8B5124DD0
:100390002C68002C1FD00127A368013BA360A26832
:1003A000002A18D10D4B2668210018682E60FFF72F
:1003B000D5FF002802D00420FFF73AFB6379012B18
:1003C00004D1E1682000FFF727FC00E02771002E30
:1003D00001D03400E3E7F8BDF8560020F8510020C2
:1003E0007FB504001600081E01D0002A02D0802329
:1003F00023600FE00B78012BF9D102A901AD00F0C9
:10040000DFF9042801D0019601E0102301932300B5
:1004100007CD07C3200004B070BD0000B0B50400D4
:100420001500EFF31080002803D1EFF305800028BA
:1004300004D02A002000FFF7D3FF07E008001100D6
:10044000034FBC4600DF20606160A2602000B0BDA9
:10045000150302007FB50122094B5242196803A817
:10046000FFF7DCFF039B102BF5D1049901A8FFF7E0
:100470003DFD019B002BEED002989847EBE7C0466C
:10048000F851002010B5038B427819430400018312
:10049000438B062A04D11A000A40934216D105E084
:1004A000052A13D11A000A4010D0428399432183B0
:1004B000200000F0D7F80123082120006370628B30
:1004C000FFF787FA2100024800F004F810BDC0468B
:1004D000FC56002030B502788C78013A4368D2B2DD
:1004E000002B05D09D78A54202D318005B68F7E782
:1004F0004B604160022A04D8002B00D099608860CC
:1005000001E000238B6030BD10B543680478596862
:10051000013C41600022022C05D8914201D0886044
:100520005A609A6000E05A60180010BD034B5A6888
:1005300042600022586082607047C046FC5600202E
:10054000124A10B5D368002B01D0938A0CE0002426
:10055000CB1AC460D06002619382848214E0002CC4
:10056000F5D0A28A9B182200D4688B42F7D3C460CE
:10057000D060C4680261002C00D020615B1A9BB27D
:100580008382918ACB1A938210BDC04614570020F3
:1005900070B5194DEB68002B2DD00126AB8A013BBD
:1005A000AB82AA8A002A26D1EC68002C23D0A3684B
:1005B000002B08D0616859606168002901D08B6008
:1005C00062600023A36021000C48FFF783FFA38A29
:1005D000AB826378042B04D1094B1A68E38AD318E1
:1005E000A3820022E3686670EB60934201D01D6134
:1005F000E2602261D5E770BD14570020FC56002050
:10060000845700208368002B06D042685A604268F5
:10061000002A0AD0936008E0044B5A68904202D145
:1006200042685A6001E0131EF7D17047FC56002063
:1006300070B584680500002C04D14378012B0DD1DE
:10064000074C04E02378002B01D1A468FAE72800C6
:10065000FFF7D8FF29002000FFF73CFF70BDC04620
:10066000FC560020036910B5002B0FD0C268DA6079
:10067000C268002A07D09C8A818A61189982136116
:100680000023C36000E09A820023036110BD0000D4
:1006900070B5114CE578EFF31086EFF3108372B666
:1006A000A3789D4211D95A1C2378A2705A1C9542F6
:1006B00000D100222270002E00D162B69D4206D9E0
:1006C000DB00E3185860996004E0002EF5D00220AA
:1006D000FFF7AEF970BDC0467451002001230370CE
:1006E000002310398908437083704360038143817C
:1006F0008381C1817047000070B5150082890400B4
:10070000002A3AD04389181D80000059013308603F
:10071000E1899BB26381994201D1002363816368BF
:10072000002B1ED06378022B1BD12000FFF7ECFEBC
:1007300005000021FFF74AF92389E9691A1D920093
:1007400011510133E2899BB223819A4201D10023E6
:1007500023812800FFF786FF280000F025FB0020FA
:1007600021E0EFF31083EFF3108172B60020013A1D
:10077000A281834217D162B615E00120002D12D06C
:100780006268094B002A04D019682000FFF7A2FE16
:1007900004E01B6863605A609C6060702800082158
:1007A00000F022FB012070BD3C570020C3898089E6
:1007B000181A704710B5FFF76BFF00F053FA10BD21
:1007C00010B5040083890020834222D0638904335A
:1007D0009B001B590B606378022B05D101002000A0
:1007E000FFF756FF00F03EFAEFF31083EFF31082AD
:1007F00072B6A289013AA281002B00D162B6638948
:10080000E28901339BB2638104209A4201D1002323
:10081000638110BD436870B504000D00002B4BD000
:100820004678022E1BD0032E0AD0012E60D1FFF78E
:100830006BFE04002A001021FFF7CBF8667036E04B
:10084000080000F07EF8051E52D02000FFF75CFE85
:1008500029000400FFF7BAF80123637027E0FFF7CF
:1008600053FE05000021FFF7B1F82389E9691A1D3D
:1008700092001151EFF31082EFF3108172B6A1894B
:100880000131A181002A00D162B60133E2899BB215
:1008900023819A4201D100232381012328006B7018
:1008A000FFF7E0FE29001348FFF714FE20E02000C8
:1008B000FFF7D8FE2100F6E78289C089824214D270
:1008C0002389191D89000D51EFF31081EFF3108575
:1008D00072B60132A281002900D162B601339BB207
:1008E000984200D10023238102E00320FFF7A0F803
:1008F00070BDC046FC56002030B50300002A06DA61
:1009000007205200520807328243102403E00320DC
:100910000C24033282430120002A11D015198D4284
:100920000ED859181C19504259601C609A60091859
:10093000A318994202D31B501C00F9E70020206045
:1009400030BDEFF3108272B601231A400368002B0A
:1009500001D019680160002A00D162B61800704702
:10096000012381420DD3426891420AD2EFF31082F3
:1009700072B6134002680A60016001D162B600E0FD
:100980000023180070470323037000234380436053
:100990008360C36070470000F7B543880500FF20FF
:1009A000002B67D0344AA96814680192A14261D132
:1009B000013B9BB26B80002B01D000205AE00B6AF8
:1009C0009D4203D1EB680B6207E01300002B04D0BB
:1009D000DA689542F9D1EA68DA604B1DDB7F0C6A70
:1009E000002C0AD06268002A05D090781A1C834235
:1009F00000D2021CD3B2E468F2E78B706A681F4F22
:100A0000002A28D02800FFF77FFD06002100FEF70E
:100A1000DDFF3000FFF726FE01236B80336AAE60F6
:100A2000EB60019B356219687B688A789B7830009F
:100A30009A420DD23800FFF74DFD38003100FFF724
:100A400049FD0122019B20001B685A70012373702D
:100A500000F0AAF9B1E77A6892789A42ADD93800E5
:100A6000FFF738FD0122019B20001B685A7000F03F
:100A70009BF92000FEBDC0463C570020FC560020DC
:100A800070B5438804000E00164D002B05D12A686E
:100A9000116A8260C160106203E0826829688A423C
:100AA00003D10133638000201BE00120002E18D009
:100AB0008B789178994203D29370A068FFF7B8FDC4
:100AC0006268002A04D029682000FFF703FD03E0D4
