:020000040000FA
:10000000C0070000D1060000D1000000B1060000CA
:1000100000000000000000000000000000000000E0
:100020000000000000000000000000005107000078
:100030000000000000000000DB000000E500000000
:10004000EF000000F9000000030100000D010000B6
:1000500017010000210100002B0100003501000004
:100060003F01000049010000530100005D01000054
:1000700067010000710100007B01000085010000A4
:100080008F01000099010000A3010000AD010000F4
:10009000B7010000C1010000CB010000D501000044
:1000A000DF010000E9010000F3010000FD01000094
:1000B00007020000110200001B02000025020000E0
:1000C0001FB5C046C04600F0EFFA04B00FB41FBD24
:1000D00008205A49096809580847382057490968CB
:1000E000095808473C2055490968095808474020E5
:1000F0005249096809580847442050490968095875
:10010000084748204D490968095808474C204B4981
:10011000096809580847502048490968095808479C
:100120005420464909680958084758204349096836
:10013000095808475C204149096809580847602068
:100140003E4909680958084764203C49096809582C
:100150000847682039490968095808476C20374919
:100160000968095808477020344909680958084740
:100170007420324909680958084778202F490968CE
:10018000095808477C202D490968095808478020EC
:100190002A490968095808478420284909680958E4
:1001A0000847882025490968095808478C202349B1
:1001B00009680958084790202049096809580847E4
:1001C00094201E4909680958084798201B49096866
:1001D000095808479C201949096809580847A02070
:1001E0001649096809580847A4201449096809589C
:1001F0000847A8201149096809580847AC200F4949
:10020000096809580847B0200C4909680958084787
:10021000B4200A49096809580847B82007490968FD
:1002200009580847BC2005490968095808470000D3
:1002300003480449024A034B7047000000000020B5
:10024000C0070000C00700000122D84B5A6000BF61
:10025000D74A1268002AFBD0016000BFD44A126856
:10026000002AFBD00022D14B5A6000BFD04A12684E
:10027000002AFBD07047F0B505460E46174600240D
:1002800006E0A200B158A2005019FFF7DDFF641C80
:10029000BC42F6D30020F0BD0120C043C549086030
:1002A000401048607047014601229204086890425D
:1002B00001D9102070470020FCE7F0B505460C4638
:1002C0001646002706E028462168FFF7BDFF2D1DD2
:1002D000241D7F1CB742F6D3F0BD70B505460C4611
:1002E0002E460BE0304600F075F9FF2C01D80024B3
:1002F00001E0FF3C013C012080023618002CF1D1C6
:1003000070BD0146012212044868904201D90920BB
:100310007047A9484069401C01D10F20F8E7002030
:10032000F6E7FEB504462068030000F037FA05043E
:100330002B4249598B00201DFFF7E3FF0546002D96
:1003400001D02846FEBDFFF7A7FF0120C00200F044
:1003500041F9042221469948FFF78DFF002801D07A
:100360000320EFE708222146944800F06DF90028A9
:1003700006D1002192480068FFF766FF00F00CF9F3
:100380000320DFE7A768E6686068019031463846D9
:10039000FFF7A3FF324638460199FFF78EFFB20000
:1003A0003846019900F050F9002800D1CAE703202F
:1003B000C8E700F0E3F9834800688349086041E03A
:1003C00060680190E668A0680090B200009901980A
:1003D00000F03AF90746002F00D1B3E70E20B1E74D
:1003E000201DFFF760FF0546002D01D02846A9E734
:1003F0006068002807D1FFF74FFF0320800200F05C
:10040000E9F800F0C9F8FFF747FF0120C00200F04B
:10041000E1F8042221466948FFF72DFF002801D0AA
:1004200003208FE708222146644800F00DF90028D8
:1004300006D1002162480068FFF706FF00F0ACF823
:1004400003207FE700BF00207CE770B505460C461F
:10045000182D04D12068FFF764FF206002E001201E
:10046000206000BF00BF70BDF0B589B05248406940
:1004700003905248806881000398081802900398FE
:10048000000B01900121090302984018401E000B47
:1004900000900124002520462946019A00F0C4F866
:1004A0000022401E91410791069001260027304608
:1004B0003946009A00F0B8F80022401E914105919B
:1004C0000490049BDB43059AD2430698184307998E
:1004D00011430791069037490698086007984860CD
:1004E00009B0F0BD70B53448446934488568466841
:1004F000AA003146204600F0A7F8002801D00020CD
:1005000070BD0120FCE72D484068002801D0012083
:1005100000E000200546FFF7E5FF002807D0FFF7C1
:10052000BBFE0320800200F055F800F035F8FFF71D
:100530009BFF002D0ED020484669204884684768FC
:1005400021463046FFF7C9FE224639463046FFF7BE
:10055000B4FE00BF00F020F810B5184844681A48EF
:100560000460204600F0DCF810BD15480068006803
:10057000401C01D100BFFEE710480068002802D0EF
:10058000042806D101E0FFF7BEFFFFF7E5FF00BF3B
:10059000FEE700BF00BFFEE7BFF34F8F0B480C49DB
:1005A000C860BFF34F8F00BFFEE7000000E50140C9
:1005B00000E40140000600400010001000080000A8
:1005C000B8070000BC070000000000200400FA0586
:1005D00000ED00E010B50146104B1A6808460223F2
:1005E0000F4C636000BF0F4B1B68002BFBD0531CEC
:1005F00004D0904202D20A4B186101E0084B986087
:1006000000BF084B1B68002BFBD00023044C636029
:1006100000BF044B1B68002BFBD010BD0010001066
:1006200000E5014000E4014010B5202A04DB01464A
:10063000203A9140002010BD914020239C1A03468F
:10064000E3401943904010BD034610B50B439B0790
:100650000FD1042A0DD308C810C9121FA342F8D025
:1006600018BA21BA884201D9012010BD0020C04328
:1006700010BD002A03D0D30703D0521C07E000208E
:1006800010BD03780C78401C491C1B1B07D1037854
:100690000C78401C491C1B1B01D1921EF1D118463D
:1006A00010BD70477047704710B500F007F810BDD7
:1006B000014B1B68DB6818470000002019481A49E5
:1006C0007047FFF7FBFFFFF7FBFC00BD20BFFDE716
:1006D0001649174C24688C420BD1164B1B68994263
:1006E0000CD1154B154A1360186810498842EDD09B
:1006F0000AE0134880F30888124B18470F4A13602A
:1007000018680A498842E1D080F308880E49884277
:1007100004DD0E48026802210A4302605B68184744
:100720000346DFE7C0070000C0070000FFFFFFFF30
:10073000000C000014100010001000000000002049
:10074000000400206B05000000200020240500406C
:100750000D48704502D1EFF3098101E0EFF3088104
:10076000886902380078182802D1C046074A104725
:10077000074A12682C3212681047000000B5054B7A
:10078000054A9B58984700BDFDFFFFFF4B04000042
:1007900000000020001000000400000030B4744687
:1007A000641E2578641CAB4204D3635D5B00E318D0
:1007B00030BC18471D46F8E7000C00000010000090
:101000007811002045A90100752F000095A8010066
:1010100000000000000000000000000000000000D0
:10102000000000000000000000000000B1A9010065
:101030000000000000000000752F0000752F000068
:1010400019AA01001FAA0100752F0000752F0000CA
:10105000752F0000752F0000752F0000752F000000
:1010600025AA0100752F0000752F00002BAA010092
:10107000752F000031AA010037AA01003DAA010026
:10108000752F0000752F0000752F0000752F0000D0
:10109000752F0000752F0000752F0000752F0000C0
:1010A00043AA010049AA0100752F0000752F000016
:1010B000752F0000752F0000752F0000752F0000A0
:1010C00000F002F819F01FFC0CA030C808382418F2
:1010D0002D18A246671EAB4654465D46AC4201D170
:1010E00019F011FC7E460F3E0FCCB6460126334266
:1010F00000D0FB1AA246AB4633431847B49E01000A
:10110000D49E01000023002400250026103A01D3BC
:1011100078C1FBD8520700D330C100D50B607047AF
:101120001FB5C046C04619F08BFB04B00FB41FBDFD
:1011300082690249816102481044704745110000EC
:101140000100000001B41EB400B510F096F901B41E
:101150000198864601BC01B01EBD0000F0B44046B7
:10116000494652465B460FB402A0013001B506481D
:10117000004700BF01BC86460FBC804689469246A8
:101180009B46F0BC70470000C110000070B50546DA
:101190000C46164602E00FCC0FC5103E102EFAD2B8
:1011A000082E02D303CC03C5083E042E07D301CC7E
:1011B00001C5361F03E021782970641C6D1C761E62
:1011C000F9D270BD70B505461A4C08202070A01CDD
:1011D00000F083F85920A0802946204606F07FFCC5
:1011E00070BD10B506F088FC12490020891E0870F9
:1011F00010BD70B50C460F49891E0978002905D02D
:1012000001466039532905D301200EE0602801D042
:1012100009480AE0094E211D80008019FF380EC9D7
:101220008138256806682846B047206070BD0120D7
:10123000704700000A00002001300000FCAA0100F5
:101240008307FF22DB0E9A408907090E9940002888
:101250000BDA0007000F0838830827489B0018188E
:10126000C36993430B43C3617047830823489B00C2
:101270001B181868904308431860704710B504465F
:1012800000210120FFF7DCFF00211820FFF7D8FF25
:1012900000210B20FFF7D4FF02211920FFF7D0FF18
:1012A00002210D20FFF7CCFF02210E20FFF7C8FF1F
:1012B00002210F20FFF7C4FF0221C81FFFF7C0FF64
:1012C00003211620FFF7BCFF03211520FFF7B8FF0D
:1012D0002046FFF777FF002010BD80210180704776
:1012E00010B5FFF77EFF10BD0548704710B5FFF73A
:1012F00080FF10BD7047704700ED00E000E400E0A3
:1013000003F9004330B5FD4D044610280AD0112CD6
:1013100006D028468178122C06D0132C08D0FFDF87
:10132000AC7030BDFFDFFBE71129F9D0FFDFF7E735
:101330001129F5D0FFDFF3E770B50EF010FA04467F
:101340000FF05BFE201AC4B206200CF0EFFB05463E
:1013500006200CF0F3FB2E1A07200CF0E7FB0546E5
:1013600007200CF0EBFB281AE44932188878122881
:101370000DD00023D21813280BD0002012180878A3
:10138000022808D000201018201AC0B270BD012316
:10139000F0E70120F2E70120F5E710B5D74994B056
:1013A000C878002815D017206A46107000A80622B9
:1013B0000230091D19F0D3F809A968460AF064F94A
:1013C0000446112802D0002C00D0FFDF204614B0C4
:1013D00010BD3220E8E710B502210CF0F9FB10BD7A
:1013E000FFB595B01D460E460746FFF7F4FF040013
:1013F0000AD02078222804D3A07F8006C00FA842FC
:1014000004D1082019B0F0BDBD48FBE7372168467C
:1014100001704780002D05D0012101714671179997
:10142000817102E000206946087109A968460AF046
:101430002BF9A07FDF21084069010843A077002035
:10144000E0E730B50446084620380D46030019F0A1
:1014500047FB0A06080D1D2429363B40454AFFDF9D
:1014600042E0207820283FD1FFDF3DE0A34801780B
:10147000032939D08078132836D02078242833D017
:10148000252831D023282FD0FFDF2DE020782228F7
:101490002AD0232828D8FFDF26E02078222823D04E
:1014A000FFDF21E0207822281ED024281CD0262807
:1014B0001AD0272818D0292816D0FFDF14E020786A
:1014C000252811D0FFDF0FE0207825280CD0FFDF82
:1014D0000AE02078252807D0FFDF05E020782828BB
:1014E00002D0FFDF00E0FFDF257030BD30B5854C56
:1014F0000B88854A022801D0934204D09D1FA54243
:1015000025D2022802D04D88954203D04D88AD1FC8
:10151000A5421CD24C88A34219D88B88FF25F435EC
:10152000AB4214D8022802D0C888904205D0C8889F
:10153000744D0A382D1FA84209D2C888904208D09D
:10154000944206D05B1C63438000834201DB07208A
:1015500030BD002030BD70B5044610F0BDF9002844
:1015600033D12079002806D0082802D8217B082909
:1015700005D9072070BD217B0029FAD0F6E70028A5
:1015800004D0206810F0A8F900281ED1207B002884
:1015900004D0A06810F0A0F9002816D1002508E0BA
:1015A0002068A900405810F097F900280DD16D1C53
:1015B000EDB22079A842F3D800250AE0A068A9007E
:1015C000405810F089F9002801D0102070BD6D1C22
:1015D000EDB2207BA842F1D8002070BD10B5028981
:1015E0004A4B111F994213D24189042910D3DB1CA5
:1015F00099420DD891420BD80178890706D54068E9
:10160000002803D0FFF7A7FF002800D1002010BD5D
:10161000072010BDFFB50022099B002802D0994287
:1016200005D858E0002902D1002004B0F0BD0920FF
:10163000FBE7845C002C12D087187D78112D43D0F5
:1016400010DC2B0019F04CFA0A401726262C2C2E01
:101650002E363640835C002B30D1521CD2B28A42E7
:10166000F8D3E1E71D2D2FDA123D2B0019F038FADF
:10167000042C2C121A2C022CD9D1BB78039C072BDA
:10168000237001D25B0701D40A20CEE7029B01241C
:101690001B7816E0E343DB0708E0012C08D013E0D9
:1016A0000620C2E70F2523072D075B19002BF4D076
:1016B0003046BAE7029B1B789C0701D50B20B4E7A4
:1016C00002242343029C2370835C521C9A18D2B2DA
:1016D0008A4202D9ABE7192676028A42A9D3A3E748
:1016E00010B504780B46002C14D00121084A012CB7
:1016F00013D0022C17D0032C1FD11AE0A801002010
:10170000023000007B0C0000FFFF0000FD3F0000E6
:10171000023200000021197011E0197081798909E5
:1017200003290AD10BE0197081798909012904D1B3
:1017300005E019708179890901D0104610BD411C5E
:101740000622581C18F00BFF002010BD08B51346E8
:10175000002806D0F6A00068009048796A46800903
:10176000105C18700622581C18F0F9FE08BD30B540
:101770000C46097895B0222902D2082015B030BD58
:10178000282369460B704880132A03D03B2A01D0D6
:101790000720F3E708460A7109A909F075FF05005B
:1017A00003D121212046FFF74CFE2846E6E700B58D
:1017B00095B0232369460B70488010888880508834
:1017C000C880D08848819088088100208881C8819D
:1017D00009A9684609F058FF15B000BD70B50E465E
:1017E000050003D00021092010F037F80120D14C6A
:1017F000022EE0701BD0032E00D0FFDF0621201D3B
:101800000FF07CFD607A8006800E6072FFF7C5FDE8
:10181000608A00280AD0002D08D083000122002110
:1018200009200FF08BFF092800D0FFDF70BD0321D6
:10183000E01D0FF063FD607A40218006800E0843B2
:101840006072E01C02F0E7FCE0E7F0B585B0022131
:101850006846B84E0171F18AC18000275AE001A89C
:101860000CF01EF9050007D0F08A002858D000209F
:10187000F0826946C8804BE0039C2078212847D03D
:10188000A07F01072FD520462330009068462346CD
:10189000A28E00892146363301F051FD050003D0A8
:1018A00011282ED0FFDF2CE0A07FF7210840A07781
:1018B000E17F480849074000C90F0843FD21014066
:1018C0000007C00F400001432046E17720304178F7
:1018D000C906C90E01702078282823D12921204665
:1018E000FFF7AFFD1EE0400712D56846224600898B
:1018F00021460E32FFF75BFF050004D0112800D00F
:10190000FFDF00250EE0A07FFB210840A07709E063
:101910007F1CFFB202200CF009F9401CB8429ED88F
:10192000052D07D06846C088F082052D04D02846D2
:1019300005B0F0BD0020F0820020F9E7FEB50400FC
:1019400000D1FFDF72202070606808250178794E91
:10195000091F0B0019F0C4F811F10A0B4EF00B0C23
:10196000F0F0350B0B0B0BF172F10B00FFDFFEBD3E
:1019700080880090FFF72FFD070000D1FFDF60781F
:10198000042128436070307D08433075212138469A
:10199000FFF757FD009806F0B5FE009803F016FD1E
:1019A000009804F03BFD022000990FF056FFB87F2D
:1019B000EF210840B877FFF748FF0028D7D0FFDFB6
:1019C000FEBD86883046FFF706FD002800D1FFDF08
:1019D00060688078012800D0FFDF60688179304638
:1019E00007F017F80028EBD061782943617061682F
:1019F000C880FEBD87883846FFF7EDFC060000D1A1
:101A0000FFDF60783946284360706068C0883081A5
:101A100060680089708160684089B08102200FF0A1
:101A20001CFF0020B075B07F8007800F0228E0D136
:101A3000FFF70BFF0028DCD0FFDFFEBD80783C28DD
:101A400003D0002702280ED000E0012700210091DA
:101A5000002804D03C2802D0022800D0FFDF0098E4
:101A6000002802D078E00121F1E760782843607017
:101A7000307D28433075002F62D16068022187884D
:101A8000009738460CF09CF80546032138460CF0C8
:101A900097F80290052138460CF092F80190042145
:101AA00038460CF08DF80746002D00D1FFDF029874
:101AB000002800D1FFDF0198002800D1FFDF002FB0
:101AC00000D1FFDF22212846FFF7BBFC6068807948
:101AD000012833D00227A87F0622800880003843DF
:101AE000A8776068C08A28816068008B6881606818
:101AF000408BA8816068C079E87561682846183015
:101B0000083118F02CFD60680622807B68706168DF
:101B1000A81C0F3118F023FDA87F8107890F0098BA
:101B200006F0DFFD012F0BD0022F15D0FFDFFEBD29
:101B30000302FF01A80100201AE01DE00127CAE707
:101B40003078032800D0FFDF002108460FF085FE23
:101B5000012000F065FFEAE7B078132800D0FFDF2E
:101B6000002107200FF079FE1120FFF7CBFBDEE705
:101B7000204601F0DFFEDAE7607828436070D6E7A0
:101B8000F7B505460078002700090C463E460128B7
:101B90007ED0F84902287CD007280AD00A2879D0BC
:101BA000FFDF0298002C068001D02780668000208D
:101BB000BDE768682246037808320D2B3DD006DC6D
:101BC000042B68D0072B41D00A2B63D106E0122BDF
:101BD00043D0132B4BD0142BF7D1C8E01127092683
:101BE000002C7DD08088A0806968FB2389792172D0
:101BF000E14905460A7D1A400A7504210BF0F9FFF8
:101C0000052128460BF0F5FF002128460BF0F1FFD7
:101C1000012128460BF0EDFF032128460BF0E9FFD8
:101C2000022128460BF0E5FF062128460BF0E1FFD4
:101C3000072128460BF0DDFFB3E701270926002C1A
:101C4000CFD08088A080686880790EE012271026A7
:101C50008088214600F007FFA3E71C270926002CF7
:101C6000BFD04088A08068680079207299E78178A9
:101C70003C2941D010272026002CB2D08088A0809B
:101C80006868C08A60836868C08A2083686803E0E7
:101C90007EE0A7E0CBE03AE0008BA0836868408B51
:101CA000E0836968E07D497F4008C9074000C90FAB
:101CB0000843E0756968C007497FC00F49084900BB
:101CC0000843E0756968C8790831FFF73FFD696826
:101CD000224608460F308B7B01460F32184600E043
:101CE0007FE0FFF733FD68688079002802D001208B
:101CF000A07507E00220FBE71B270926002C70D007
:101D0000002020729C48F722017D11407DE01D27B4
:101D10003026002C65D0A18069680879491DFFF73D
:101D200015FD68682030C07AE0736868C0780428C0
:101D3000207C19D0400840002074F92108406968CF
:101D40001F22C9788907490F084320746968400732
:101D5000C97A400FC90008432074696820461130D1
:101D60000C3118F0FCFB1CE701210843E4E72027B5
:101D70001026002C63D0A18068682246407A207229
:101D800069680932CB1C88781946FFF7DFFC08E741
:101D9000287E012803D0022813D0FFDF01E71F2788
:101DA0001026002C4BD06888A080688B2081A88BDF
:101DB0006081E88BA081288CE0816F48DF22017D63
:101DC000A3E712271026688800F04DFE002C36D0BD
:101DD00068784007400F0328C5D16748FD22017D80
:101DE00093E72CE0287E030018F07AFE0604111118
:101DF000212121271B270926002C20D0A18000208B
:101E000020725D48017D490849000175C9E61B271C
:101E10000926002C13D0A180287E012805D003209C
:101E200020725548EF22017D6FE70220F8E7214636
:101E30002846029A01F003FF79E6FFDFB1E6029837
:101E40000680B4E610B54C4894B08078132802D0D0
:101E5000082014B010BD22206946087009A9684600
:101E600009F012FC0446002107200FF0F6FC204682
:101E7000EFE700B5404895B08078122801D00820DF
:101E8000AAE41E216846017000218170C17009A971
:101E900009F0FAFB0028F3D1002107200FF0DDFC48
:101EA0001120FFF72FFA002096E400B5324895B0D4
:101EB0000078022803D0032801D008208CE41B21DD
:101EC000684601700021817009A909F0DDFB002836
:101ED000F4D1002108460FF0C0FC012000F0A0FD65
:101EE000002079E4F8B5244C030018F0F9FD0A0647
:101EF0006B176B6B6B6B38315D6BFFF7D6FF002890
:101F000026D105F02EFD002822D0222101700021CB
:101F1000017605F004FD207D012141E08EB23046BE
:101F2000FFF759FA050000D1FFDF287821280FD0EC
:101F300005F017FD00280CD012210170022707764A
:101F400046800020A87505F0EAFC207D3843207506
:101F5000F8BD132229463046FFF709FCF8BDA578E5
:101F6000122D03D0132D09D0FFDFF8BDFFF781FF3D
:101F700006E00000FFFF0000A8010020FFF762FF5D
:101F80000028F2D105F0EDFC0028EED022210170EE
:101F9000122D07D00221017605F0C1FC207D102111
:101FA0000843D4E70121F6E7607A8109012907D0C7
:101FB000800900D0FFDF03210020FFF70FFCF8BDF0
:101FC0000221F9E7FFDFF8BDF7B582B014460D0036
:101FD00000D1FFDF2046297818300827009001291A
:101FE00003D0022919D0FFDFA2E40298FFF7F3F92A
:101FF000060000D1FFDF0220B0751030207060783D
:102000000A22384360702946009818F0A8FAF84868
:102010002022017D114301758AE40298FFF7DBF964
:10202000060000D1FFDF6988F248814208D1AA8802
:10203000824205D1132231460298FFF798FB77E4DC
:10204000814202D1A88800280BD01220207060782D
:102050000A22384360702946009818F080FA002060
:1020600006E078230022022002990FF067FB01208E
:10207000B0755DE430B5054695B00C4608460FF0E6
:102080002BFC00282FD1203D01212B0018F028FD2A
:1020900006042640444A545B002108200FF0B7FB99
:1020A000002802D0112015B030BD242069460870E8
:1020B00000A80522A11C023018F051FA09A96846AF
:1020C00009F0E2FA05002BD1082300221146184638
:1020D0000FF034FB082823D0FFDF21E060680FF009
:1020E0002EFC002801D01020DDE73C21684601705D
:1020F000218841806188818009A909F0C5FA05001D
:102100000ED1606800280BD06946098D018007E078
:10211000206802F0BCF802E0204600F0B7FC05465B
:102120002846C0E73D2208E0997000E0987009A9B0
:10213000184609F0A9FAF2E734226B461A702278A1
:10214000D207F3D0F0E70720ADE730B5054695B0EC
:102150000C4608460FF0DDFB002801D01020A2E756
:10216000203D2B0018F0BCFC050421212321350063
:102170002088FFF730F9002804D00078222803D205
:10218000082090E79C488EE7252168460170218849
:10219000418009A909F078FA050018D10AA9052299
:1021A0000231A01C18F0DBF911E006250FE02068D1
:1021B000002808D00FF0C3FB002801D0102506E04E
:1021C000206802F059F88A480025408AA0802846F5
:1021D00069E7072067E786480A30704710B518217D
:1021E000834818F019FA012000F01AFC1120FFF7BB
:1021F00089F87F4C00206074E12080006082211DFE
:10220000E01C05F07DFCE11C0722C81D18F0A7F9B1
:10221000FFF7C3F8002800D0FFDF00F09FFC01F0BB
:102220003FFB10BD10B50C463E21204618F0F4F9D6
:10223000A07F80088000A077202020700020A0755B
:102240002034A07010BD7047FEB505460E46084606
:102250000FF042FB002801D0102068E4644C002DF0
:1022600002D0012D31D125E00722E11C684618F08B
:1022700076F9E11C3046FFF733FA0028EDD1FFF77D
:102280008CF8070006D007226946E01C18F067F9B1
:1022900038464CE43078002801D0012805D1544854
:1022A0000722E11C0A3018F05AF9002109200FF02A
:1022B000D4FA0FE03178002907D0012905D002298E
:1022C00005D0032903D04D4831E407202FE4012035
:1022D000FFF784FA6574002029E410B504460FF076
:1022E00018FB002801D0102010BD41492246C878B3
:1022F000091DFFF72BFA002010BDFFB599B0054668
:10230000002008A908746946087108A908730875AF
:102310001E46144628460FF01DFB002804D1204617
:102320000FF018FB002802D010201DB0F0BD284689
:10233000204318D01F270BAB0CAA009728461A99E8
:10234000FFF768F90028F0D10DAB01AA314620460D
:102350000097FFF75FF90028E7D168460079C007CA
:1023600003D00A20E1E70720DFE702AF002D0FD0FE
:102370001A20694608721A9888722946F81C1A9A17
:1023800018F0EDF80EA902A809F07EF90028CCD1CA
:10239000002C0ED0202168460172867232462146FA
:1023A000F81C18F0DCF80EA902A809F06DF9002855
:1023B000BBD108A80E49007B48700020B5E770B576
:1023C00006460A200C46087015461146204609F0BC
:1023D0005BF9002807D1382121702046294609F0F1
:1023E00053F900280CD0082801D10448401C70BDC6
:1023F000A8010020FFFF00000230000002320000B0
:102400002A462146304600F067FB0446082800D1E2
:10241000FFDF2046EBE7F0B50446F9A103C997B00A
:1024200014900027159120460FF056FA002807D186
:102430002078012807D160680FF04EFA002802D0FA
:10244000102017B0F0BDF04D2878012801D00820E9
:10245000F7E707200BF072FB002804D12078002852
:102460000AD0012808D0FEF767FF002806D0287D93
:102470000107890F08D103E01220E2E71320E0E70B
:10248000C10701D1800701D51120DAE7208ADF4A90
:10249000014620399142217807D301297ED10028B5
:1024A0007CD1618A002979D110E0022901D0032969
:1024B00001D1A02872D3012908D0D3494978C9078E
:1024C00004D0618A002969D0B42967D8217800290D
:1024D00006D0012908D0022904D003295ED117E0D3
:1024E000002518E0022516E0002802D1608A0028A5
:1024F0000CD004256068007800280CD0012809D091
:10250000022807D0032805D0C1489AE70125F1E742
:10251000032500E00127207A002806D0012806D0F4
:10252000022806D0032860D105E0002604E0012639
:1025300002E0022600E00326002D01D0022D15D175
:10254000002E13D0E068002803D0FFF704F800281D
:1025500093D1AD484078800702D0AD48401E70E767
:10256000022D03D1022E40D0032E3ED01821684602
:102570000170218A4180218A81808571A248C078BA
:10258000002801D0012865D16946C87168460772E4
:1025900021780930012922D0062100E025E018F039
:1025A0003BF869460E74207D8207C107D20F4007B1
:1025B000C90F5200C00F11438000014314A8405CB2
:1025C0006946C873002810D009A9684609F05CF86C
:1025D00000289AD1002D0AD0022D08D012E061689F
:1025E0000622491C17F0BBFFDBE7072029E7002E76
:1025F00008D0E068002805D009AA6946FFF7DFFE89
:102600000028ACD11B20694608700120887009A9F8
:10261000684609F039F80028A1D108A840791B289C
:1026200018D12B0018F05CFA050404060604090012
:10263000032000E0022000F0F3F9012D0CD0608AA5
:10264000002809D000228300114610460FF076F8CA
:10265000002801D00320F4E60020F2E6F3B583B0B1
:102660000E46032508460FF075F9002866D1039839
:10267000FEF7B1FE040004D02078222803D20820FF
:10268000B2E46448B0E4A07F8707BF0F002E05D0F6
:1026900031463846FEF72AFF0500F1D15A48012F8E
:1026A00004D0022F18D0FFDF28469DE4A27D3146DA
:1026B000012A02D0007D800701D5112094E4002971
:1026C00005D1684600F0E7FA0028D9D16946039899
:1026D00006F00EF90546E7E7A17D022915D1007D38
:1026E000800612D4002E04D0A07F40070BD4002116
:1026F00000E00121039806F050F90500D4D1A0753F
:10270000002ED1D003E01125CEE7002E16D03246A0
:1027100021460398FFF74BF805461128C4D1A07F46
:102720004007C1D42046082231460E3017F017FF6B
:10273000A07F04210843A0770025B5E7102053E4CB
:1027400070B50C460546FEF746FE010004D0224651
:102750002846FFF70CF84AE62E4848E600B595B043
:10276000312269460A70887009A9684608F08CFF12
:1027700015B000BD10B50123FEF732FE10BD0023D9
:1027800010B51A461946FEF72BFE10BD70B594B071
:1027900004460FF0A1F8002802D0102014B026E65D
:1027A0002046FEF71BFF0028F8D1174DA878112806
:1027B00001D00820F2E7FEF7BFFD002804D0287DF5
:1027C000C00603D51120E9E71320E7E71D2168467D
:1027D000017020780126C107C90F684681702189E0
:1027E00081806189C18020788007C10F684641726D
:1027F000E878002500280FD0012810D00320CDE76D
:102800000706050403020100A8010020E13F0000C3
:1028100002320000023000006846057201E068469E
:10282000067209A908F030FF0028B7D12078800788
:1028300008D56068002805D009AA6946FFF7BFFDE2
:102840000028ABD11E21684601708670C57009A9A9
:1028500008F01AFF0028A1D1A08900F0F5F80400C3
:102860009CD11220FEF74EFD204697E7F0B595B0BB
:1028700015460C4606460FF06DF8002809D1204693
:102880000FF02AF8002804D128460FF025F8002878
:1028900002D0102015B0F0BDAD4F387DC106890FB4
:1028A00001D1400701D51120F4E72046FEF796FE3E
:1028B0000028EFD120788107C90F314303D080076A
:1028C00003D5002E01D00720E4E729460220FEF7B9
:1028D0000DFE0028DED1B878112803D0122801D0CF
:1028E0000820D7E706200BF029F9002804D09848E3
:1028F0008078122802D005E01220CBE7FFF7B9FA62
:102900000028C7D1FEF718FD022801D21320C1E725
:102910002078800708D56068002805D009AA694694
:10292000FFF74DFD0028B5D12121684601702189AE
:10293000418061898180207800278007C10F684627
:10294000817120788007002815DB3078002807D0B7
:10295000012808D0022806D0032804D07D4899E732
:102960006846C77102E001206946C8710622711CE1
:1029700002A817F0F4FD7648C078002803D001289B
:1029800004D0032086E76846877302E00120694689
:10299000887329886846018269884182A988818272
:1029A000E988C1820783478309A908F06DFE0028E2
:1029B0008AD1A08900F048F8040085D11320FEF7E1
:1029C000A1FC204666E730B5054695B00C460846A2
:1029D0000EF09FFF002802D0102015B030BD284611
:1029E000FEF7F9FC002807D00178222902D3807F66
:1029F000800603D40820F0E75748EEE71321684625
:102A00000170458009A908F03FFE0028E5D108AA19
:102A10000A2151567F2901D02170DEE70520DCE72D
:102A200030B54B4D040008D0012C04D0022C06D048
:102A3000032C04D0FFDF2C7030BDFFDFFBE72878CC
:102A40000128F8D0FFDFF6E710B5002809D0830091
:102A50000022114607200EF071FE072801D0032046
:102A600010BD002010BD70B50C0006460DD0FEF75D
:102A7000B2FC050000D1FFDFA680288920812889CB
:102A800060816889A081A889E081B0E410B504461E
:102A90000068002806D00EF05DFF002801D010204D
:102AA00010BD206801F0DBFBA088294C6082607CAF
:102AB00001280DD1002109200EF0A9FE002800D028
:102AC0000120617A8909012904D00321FEF786FEDD
:102AD000002010BD0221F9E7F7B500260C46054697
:102AE0000B271AE02968B00009580978002903D09B
:102AF000012901D00720FEBDA170296806220958CE
:102B0000E01C491C17F02BFD27702046029908F0A5
:102B1000BBFD0028EFD1761CF6B22879B042E1D88F
:102B2000002639270FE0A868B10041581022A01CE8
:102B300017F015FD27702046029908F0A5FD002822
:102B4000D9D1761CF6B2287BB042ECD80020FEBD6D
:102B5000A8010020023200000230000010B506215A
:102B6000D04817F059FD10BDFFB591B0149C204618
:102B70000EF0B2FE002802D0102015B0F0BD2146A4
:102B80000120FEF7B3FC0028F7D101246846032199
:102B90008471C9028180002201A9204603F0EDFE64
:102BA0000028EAD1684615218471490281800026F7
:102BB0001C2102A8009617F031FD0120014668464D
:102BC0001031017000200146684641708178F92774
:102BD0003940891C21438170017A02252943017201
:102BE00012998186C6861F2101870C9011980F903B
:102BF00001A80B9009AA0BA902A803F0A9FC0028C0
:102C0000BBD16846A74E808C308068468471A64947
:102C10008180807809AA3840801C410849006846B4
:102C200081708586058713A80F900BA902A803F071
:102C30008FFC0028A1D16846808C7080311D1498CB
:102C400000F0EDF899E73EB5044608206946088093
:102C500020460EF041FE002801D010203EBD214646
:102C60000120FEF743FC0028F8D1208869468880BF
:102C70006088C880A0880881E0884881894801ABC5
:102C800080886A46002104F07FF86946098808298F
:102C9000E4D003203EBD1FB504460020029008206A
:102CA00069460881204603910EF016FE002802D0E6
:102CB000102004B010BD7B4802AA81887B4804F034
:102CC00007FA0028F5D169460989082901D00320AF
:102CD000EFE769460988218069464988618069462D
:102CE0008988A1806946C988E180E2E701B582B0A0
:102CF0000220694608806B4802AB40886A46002182
:102D000004F042F869460988022900D003200EBD6C
:102D10001CB50021009102216A46118001900EF03D
:102D2000F8FD002801D010201CBD5E486A4641888D
:102D30005E4804F0CDF9694609880229F4D00320E1
:102D40001CBDFEB5064615460F4608460EF0C4FDEE
:102D5000002801D01020FEBD1F2D01D90C20FEBD82
:102D600030460EF0B9FD4F4C002822D1208801A931
:102D700003F058F90028F2D130786946487120886C
:102D800001A903F0E2FF0028E9D169460090087824
:102D900002210843694608704979090703D00821D0
:102DA0000843694608702088694603F06DFF0028D3
:102DB000D5D169460D8120883B4602AA002103F047
:102DC000E3FF69460989A942C9D00320FEBD7CB54D
:102DD00005460020009001900C460888694608804E
:102DE000284601950EF0ABFD002804D120460EF0D8
:102DF00090FD002801D010207CBD002D03D0684636
:102E00000088002809D027486A460188274804F02E
:102E10005FF96946098821807CBD0C207CBD30B5F6
:102E2000044693B000200D46079014210BA817F01C
:102E3000F5FB1C21684617F0F1FB6A46112010775C
:102E400000205077107802210843107007A80C90DA
:102E5000012008AA907214486A46C01C10850AA86E
:102E60000B902088108460885084A0889084E0882B
:102E7000D084907FF9210840801C40084000907762
:102E800008209086108708A80F9010AA0BA9684602
:102E900003F05EFB002803D110A8008828800020E2
:102EA00013B030BD10000020012A0000FFFF000019
:102EB00001202049C00308601F4900200870072036
:102EC0001E49C0058860704730B51B4D0446287800
:102ED000A04204D0002C02D0002800D0FFDF2878C8
:102EE000A0420BD00021164A14482C70002C18D098
:102EF000144B012C03D0022C0AD0FFDF30BD11602F
:102F0000022111605361032109068160416030BDD7
:102F100011600321116053610121C9058160416085
:102F200030BD116011600721C905816030BD00B559
:102F3000FFDF00BD80E100E01600002000F5014049
:102F400000F500406403002010B50DF062FB10BDD9
:102F500003490020C863034902200860704700004D
:102F6000C01F004080E200E00E4A12680C498A420D
:102F70000AD118470B4A1268094B9A4204D101B58D
:102F80000EF072FA03BC8E460749096809580847D3
:102F900006480749054A064B70470000000000003C
:102FA000BEBAFECA9800002004000020781100205C
:102FB0007811002070B50C46054606F0B1FE21469A
:102FC000284607F014FF70BD10B50EF0CBFD0EF0D3
:102FD000F9F8FFF76DFF16F0B5F90EF0DBFC0EF017
:102FE0005BFD10BD0348044A0168914201D10021F4
:102FF0000160704798000020BEBAFECA7047704753
:1030000010FFFFFFDBE5B15100B001008000FFFFC2
:1030100010B504460EF060FC002801D0102010BD51
:1030200020784006400F042807D86078072804D38A
:10303000A178102901D8814201D2072010BDE07883
:10304000410706D421794A0703D4000701D40807B1
:1030500001D5062010BD002010BD30B5C37F147807
:103060005B08A4075B00E40F2343C3771578FD24B6
:103070006D07ED0F23406D002B43C37713788878DD
:10308000DB0920405B001843887014784B78640695
:10309000DB06640FDB0E640123434B70137840089A
:1030A00040001B07DB0F184388705078487130BD13
:1030B000F0B50B78C4785B08E4075B00E40F2343AA
:1030C0000B70C478FD26A407E40F3340640023434B
:1030D0000B70C478FB256407E40F2B40A400234346
:1030E0000B70C778F7243F07FF0F2340FF003B43D7
:1030F0000B70117803794908DB074900DB0F19438E
:103100001170037931409B07DB0F5B00194311708D
:10311000037929405B07DB0F9B001943117000798D
:1031200021400007C00FC00001431170F0BD70B511
:1031300014460D46064604F014FC002809D0A221CE
:103140000170142221461830FEF720F804F0E7FB46
:1031500070BD132229463046FEF709FB70BD70B5DD
:1031600015460E46044604F0FCFB00280AD0222136
:103170000170448004222946183017F0F0F904F059
:10318000CEFB70BD132231462046FEF7F0FA70BD2B
:1031900010B5FE4C207C00280AD12046FC4A21466E
:1031A00010380CF060F9002800D0FFDF01202074F7
:1031B00010BDFFB581B00B9E05461F461421304659
:1031C0000A9C17F02BFA0C98002101600398002844
:1031D00001D0029801E03878C007002812D020689A
:1031E0000EF097FB00283FD10398002807D12068F4
:1031F000123030602068143070602068B0600C9825
:10320000216801603878800726D560680EF097FB4A
:10321000002829D10298002829D0FEF7DCFF0146BA
:103220002846FF300722B53017F099F9FFF7B0FFB5
:10323000D6480090F0606268002A0DD0FF20294631
:10324000B530FF31405DB6311032FEF77FFA102203
:103250006068009917F083F93878400712D5A068A4
:103260000EF057FB00280BD0102005B0F0BD6068B1
:103270000028F9D0F060FF35813560682863EBE7FE
:10328000A06830610020F0E730B50C4611212170B4
:103290000022054662702035A878002806D0042850
:1032A0000DD005280FD0062812D0FFDF20780009A6
:1032B000012803D92878C006C00E607030BD080709
:1032C000000F203002E00807000F30302070EDE7DB
:1032D0000807000F4030F9E710B5002803D0A924F3
:1032E000245C002C08D0A948447D0020002C0BD081
:1032F00008601060186010BD0446A8340C600146D8
:10330000D031F8301160F5E7A04C14340C60F0E7D0
:1033100010B58AB008236C466370019102910023B6
:103320009A490993039223744431059101466846F2
:103330000CF06FF8002800D0FFDF0AB010BD70B5A8
:1033400094B015460C462C226946189E0A70488097
:10335000002B17D00822194601A817F000F968467B
:103360008581102231460E3017F0F9F809A9684618
:1033700008F08AF9002803D1A17F10221143A17718
:1033800014B070BD002001900290E8E7F0B5064649
:10339000008A8BB080B20D460390FEF71CF87B4983
:1033A0000446483930780F4668370091030017F01B
:1033B00097FB12FAF93A0A3B7A819DADF8F7F6F5D8
:1033C000F4F360F3F3FAA07F8007800F012806D0A2
:1033D000002103980AF0FCFB050003D101E0012164
:1033E000F7E7FFDF387FC00905D068482946203855
:1033F000006E21310DE028462130032107460DF0F3
:103400007DFF384617F00CF9624917F022F908469B
:10341000394617F016F970686866B068A8662078B3
:10342000252800D0FFDFFCE0A07F8007800F012867
:1034300006D0002103980AF0CBFB060003D101E07F
:103440000121F7E7FFDF7078810702D52178252970
:1034500004D00121084370700BB0F0BD0220287029
:103460002020805D2871304621303136EE60A86022
:10347000F2E7A07F8007800F012806D00021039883
:103480000AF0A6FB040003D101E00121F7E7FFDF0A
:103490006078C10604D51420287041346C60DBE7E5
:1034A0000821084385E03948082148380DF026FFF7
:1034B000032017E02A206946087101A81022023073
:1034C000716817F04CF805A810220230B16817F0A7
:1034D00046F82E4901A84C3908F0D6F8002800D04B
:1034E000FFDF0420287000986860B5E7E07FC00621
:1034F00000D5FFDFB0680090B3880622032103984F
:1035000005F05CF90028A7D0FFDFA5E7002C00D16B
:10351000FFDF7168002904D020461022233017F005
:103520001EF828212046FDF78CFFA07F8007800F22
:1035300002280ED120462330002300901A4621464F
:103540000398FFF7FCFE112806D029212046FDF73D
:1035500078FF307A2034B4E0A07F000700D5FFDF89
:10356000A07F08210843A0770020A086204636309F
:1035700017F052F8E07FFB220146C9071040490FBF
:103580000843F72101408007C00F0DE07C020020B6
:10359000FFFF000040420F0034E07BE19CE092E03E
:1035A00063E008E043E079E1C0000143E177307A6D
:1035B0002034607050E7A07F8007800F012806D07C
:1035C000002103980AF004FB040003D101E001216B
:1035D000F7E7FFDF2046022175300DF08FFE112046
:1035E00028702046FF30B530686020466130017D8C
:1035F0002974407D6874FE48A86010306C346C619A
:10360000E86029E7A07F8007800F012806D000210D
:1036100003980AF0DDFA002803D101E00121F7E761
:10362000FFDF324621460398FFF781FD14E7002CA7
:1036300000D1FFDF20782128BCD93079012802D0C1
:10364000022808D103E0E07F10210843E077387FAB
:10365000012108433877324621460398FFF767FD7A
:1036600023212046FDF7EDFEF6E632790123032102
:10367000039804F097FE002813D0122028703279A6
:10368000AA802846A91D0C3008350191029000231C
:1036900000950321039804F004FF00288AD0FFDF7F
:1036A000DAE6A07F8007800F012806D0002103986A
:1036B0000AF08EFA040003D101E00121F7E7FFDFF1
:1036C00030792070C8E60321039805F030FA00280D
:1036D00097D113202870BFE6A07F8007800F0128B4
:1036E00006D0002103980AF073FA050003D101E027
:1036F0000121F7E7FFDF2E466036307D8007800F1F
:1037000001287DD1A07F8007800F0890E07F80078F
:10371000C70F03D00898012804D031E09020405D05
:10372000C00731D02946FF318131CA6A002A25D02D
:10373000107CF37C8007800F9B0018431074FD23DE
:103740001840E37FCA6ADB079B0F184310744008D8
:1037500040003843CA6A002F107415D0C86A214649
:103760001022233116F0FBFE28468030017C012216
:1037700011430174307E9043307601E0002F03D076
:103780000898022803D031E0307EC0072BD02846AD
:10379000FF308130826A002A25D0117CF37C8907B2
:1037A000890F9B0019431174FD231940E37F826A3E
:1037B000DB079B0F19431174490849003943826A9A
:1037C000002F11740FD02146806A1022233116F089
:1037D000C6FE307E01210843307628468030017CC9
:1037E000490849000174089802284FD00020182188
:1037F000484340196030007E80070AD5FF2000E072
:1038000007E0B13042592946307B6D311032FDF767
:103810009DFF052168460175307D80358107890F40
:1038200068464175317E8175297CC17570482221B9
:103830009C38039A0170417805ABC908C900C91CBE
:103840004170428004221946183016F088FE6848FC
:103850009C3804F009FA2078252805D0212807D0C3
:10386000FFDF2078222803D922212046FDF7E9FD39
:10387000A07F8007800F01280AD0002103980AF05A
:10388000B8F9002800D1E7E5FFDFE5E50120AEE764
:103890000121F3E7716800204870DDE5FFDFDBE51B
:1038A00070B55348524C4030017F00254906490EFF
:1038B000017725660BF076FD21461031204604F095
:1038C00052F92046203005740721403041712C30D8
:1038D000E066503060671030A06770BD70B50D466F
:1038E000FDF779FD040000D1FFDFFF21BD3128463F
:1038F00016F094FE3E48643068612046233028610B
:10390000A07F8007800F012809D002212846FF30C0
:1039100021300BF048FD002800D0FFDF70BD0121F1
:10392000F4E70A460146104610B5FF3021300BF08F
:103930005AFD10BDF0B505464068082601789BB0D9
:1039400008290DD00B2903D00C2938D10121817110
:10395000686887883846FDF73EFD040036D134E0BC
:1039600047883846FDF737FD040000D1FFDF207897
:10397000212824D0282824D1686802210C3001F0A5
:1039800032FA00281DD068680821001D01F02BFACA
:10399000002816D02D21684601704780214610224C
:1039A000233101A816F0DBFD0FA9684607F06CFE75
:1039B000002800D0FFDF29212046FDF742FD1BB083
:1039C000F0BD687830436870F9E7FFDFA07F8107BA
:1039D000890F022902D1EF210840A0772078212801
:1039E0000FD068688179002905D08078002801E02F
:1039F0005C02002010D0A07F8007800F022858D0E2
:103A0000FFDFA07F8007800F0228D8D1FDF71DFFC0
:103A10000028D4D0FFDFD2E7687830436870E07FB9
:103A2000C10720D0800701D5062100E00521222012
:103A300001552078292818D02428E2D139460620BB
:103A40000DF00BFF22212046FDF7FBFCA07F800735
:103A5000800F01282BD0002138460AF0CAF8002830
:103A6000CFD0FFDFCDE70421E1E7A07F8007800F03
:103A7000012806D0002138460AF0AAF8050003D133
:103A800001E00121F7E7FFDF25212046FDF7D9FC02
:103A9000102008A908712846FF3009A921300BF031
:103AA00097FC0228ADD00028ABD0FFDFA9E70121A9
:103AB000D2E7687830436870A3E7FFB58BB01D4646
:103AC0000646FDF788FC040054D02078222851D304
:103AD00023284FD0E07FC0064CD4A07F8007800F02
:103AE000012806D0002130460AF072F8070002D003
:103AF0000BE00121F7E7A07F8007800F012804D1A8
:103B0000012130460AF05CF8074601AB02AA03A97E
:103B10003846FFF7E1FB0398002800D1FFDF002FB4
:103B200009D0FF370398213787612078222806D0F3
:103B3000242804D007E003990020886103E02521B0
:103B40002046FDF77EFC03980C21417046620D99DA
:103B500081800C9981601499C180C56002990161CE
:103B60000199416104A90BF054FC022802D00028FD
:103B700000D0FFDF0FB0F0BD30B589B00546FDF7CE
:103B80002AFC0178222934D9807F8007800F012800
:103B900006D0002128460AF01BF8040003D101E0FA
:103BA0000121F7E7FFDF227801230321284604F0F3
:103BB000F9FB00281DD01221684601732278028289
:103BC00006A8694405AB00930191029000230321EC
:103BD000284604F066FC002800D0FFDF2046FF30B6
:103BE00003A921300BF0F4FB022802D0002800D0FA
:103BF000FFDF09B030BD10B586B00446FDF7EBFB22
:103C00000178222919D9807F8007800F012806D0EA
:103C10000021204609F0DCFF040003D101E001216E
:103C2000F7E7FFDF1320694608702046FF30213098
:103C30000BF0CEFB002800D0FFDF06B010BDF7B5BB
:103C4000054600780C46010920460027083082B05E
:103C50003E46019002297DD0072902D00A2909D1C8
:103C600040E068680178082905D00B292AD00C2982
:103C700028D0FFDF0BE214271C26002C6BD04088D5
:103C8000A080FDF7A8FB0090002800D1FFDF00987E
:103C90000099C07D1831019AFDF758FD6868082227
:103CA00080892082696820461230091D16F057FC71
:103CB000A07E01210843F9210840A0760098402108
:103CC000807F56E01A270A26002CD7D08088A08053
:103CD000FDF781FB050000D1FFDF28460199FFF7C2
:103CE000D3FAD4E1002C01D0288DA080287E0E28A4
:103CF0007ED006DC01287CD0022808D0032804D11D
:103D00003EE0102876D0112875D0FFDFBFE11E27D6
:103D10000926002CB2D0A088FDF75DFB009000289A
:103D200000D1FFDF287F8007800F0128207A24D070
:103D3000400840002072FD210840297F4907C90F33
:103D4000490008432072FB210840297F0907C90F59
:103D5000890001E08FE160E108432072F72108400B
:103D6000297FC906C90FC900084320720098802125
:103D7000807F08430099887789E101210843D9E7CA
:103D800013270D26002CA0D0A088FDF724FB00905F
:103D9000807F8007800F012806D00021A08809F0CD
:103DA00017FF050003D101E00121F7E7FFDF0098CD
:103DB000807F8207920F012A7ED0A86E81788907C2
:103DC000890F0129217A79D0490849002172857823
:103DD000FD236D07ED0F19406D0029432172FB256E
:103DE000294085782D07ED0FAD002943217203E0AE
:103DF0009FE0E7E0CDE0DEE0F72529408578ED069D
:103E0000ED0FED00294321728F25294005786D07BC
:103E10006D0E2943217245784906490EED0129436B
:103E2000217200216172C178A172E17A012A48D021
:103E300042794908D2074900D20F1143E172427911
:103E400019409207D20F52001143E1724579FB22CB
:103E50006D07ED0F1140AD002943E172F7252940B0
:103E600045792D07ED0FED002943E172217B05799E
:103E70004908ED074900ED0F2943217319400379E3
:103E80009B07DB0F5B001943217311400279520736
:103E9000D20F920011432173F722007911400007DD
:103EA000C00FC000014321730098007823286FD908
:103EB00026217EE000E001E0686E7FE701231943E0
:103EC00084E702794908D2074900D20F1143E17211
:103ED000027919409207D20F52001143E17205791D
:103EE000FB226D07ED0F1140AD002943E172F7256C
:103EF000294005792D07ED0FED002943E172217B63
:103F000045794908ED074900ED0F29432173194010
:103F100043799B07DB0F5B00194321731140427902
:103F20005207D20F920011432173F72211404079BA
:103F3000B5E718271026002C6FD0A088FDF74BFAA4
:103F40000190807F8007800F012807D00021A08882
:103F500009F03EFE0090002803D101E00121F6E7C0
:103F6000FFDFE869A06000980421407808430099C9
:103F7000487000988078800708D501202073019848
:103F80000078232804D92721019867E0002020E148
:103F900066E015270F26002C68D0A088FDF71BFAD5
:103FA00000900622E869019907F0D4FB0120A07374
:103FB000B5E0009852E016270926002C56D0287F3D
:103FC000207264E0297FFE4802290DD019270E26B1
:103FD000002C4BD001290ED003291BD004291DD061
:103FE00005291BD0FFDF24E01B270926002C4ED01B
:103FF0000121217205E001212172617A890889007D
:104000006172017FCA094906D201890E49000A433B
:1040100002770EE00220207207E027E0687F0007A9
:10402000000F8030207205291BD0607A8008800044
:104030006072A088FDF7CFF905460078212826D0C8
:10404000232800D0FFDFA87F8007800F012810D031
:104050000021A08809F0CDFD22212846FDF7F1F9C5
:1040600015E0607A80088000401CE1E70498068033
:1040700013E00121EDE7002C01D06888A080287EA4
:1040800003282ED004280BD005284ED0FFDF04983B
:10409000002C068001D027806680002005B0F0BD8E
:1040A00015270F26002CE1D0A088FDF794F9807F1A
:1040B0008007800F012806D00021A08809F088FD24
:1040C000050003D101E00121F7E7FFDF2846213099
:1040D00016F0A6FA0622019907F03CFB0020A07317
:1040E000D5E717270926002CC0D0A088FDF773F963
:1040F0000090807F8007800F012806D00021A088D3
:1041000009F066FD050003D101E00121F7E7FFDFBB
:10411000A878800701D5022000E0012020720098D5
:1041200000782328B3D9272143E719270E26002C2E
:104130009CD0A088FDF74FF90090002800D1FFDF48
:104140000621019816F06AFA00202072A07A032155
:104150000843A072FB2108400099C97FC907490F95
:104160000843A0720099C97F8A07D20F1140F72235
:10417000C90010400143A172687E8007800F0128AA
:1041800085D1607A0421084360720098807F80079F
:10419000800F01281FD0607B4108E87E4900C007DE
:1041A000C00F01436173207BAA7E4008D207400004
:1041B000D20F10432073EB7EFD229B07DB0F1140D3
:1041C0005B0019436173A97E10408907C90F49003C
:1041D000084320735BE7207BE97E4008C907400065
:1041E000C90F08432073617BAA7E4908D2074900A2
:1041F000D20F11436173EB7EFD229B07DB0F104052
:104200005B0018432073A87E11408007C00F400058
:10421000014361733BE710B50446807990B0800993
:10422000012800D0FFDFFEF7B3FF01206946487088
:104230006448099062480AA920380190201D029024
:10424000601C0B9068460BF0E4F8002800D0FFDFFC
:104250000322601C0B9916F082F910B010BD10B546
:10426000574C203C002805D001461022204616F06D
:1042700076F90120207410BD10B50446FEF788FFC2
:104280004F4910222039204616F069F910BD70B54B
:1042900000254B4C0646002816D00DF01DFB0028CB
:1042A00001D010250EE00621304607F03DFA411CF2
:1042B00007D0434940390866207F80210843207792
:1042C00000E00725284670BD207F4006400EF6E737
:1042D000F3B589B00D46002708460DF03BFB0028DA
:1042E00014D10998FDF777F8040003D0207822282C
:1042F00015D102E034480BB0F0BD002D08D1A07FED
:10430000C10903D08007800F022801D01020F2E7F6
:10431000A07FC10601D4010703D5002D01D00820DC
:10432000E9E72749097FC90701D01120E3E7E17FC9
:10433000C90601D50D20DEE78007800F022806D1CF
:10434000002D04D02846FEF763FE0700D3D1A07FDE
:104350008007800F012806D00021099809F038FC59
:10436000060002D00CE00121F7E7A07F8007800F54
:1043700001280BD00021099809F022FC060007D083
:10438000A07F8007800F022804D00AE00121F2E715
:104390000420B0E7002D04D02A4631462046FEF71F
:1043A0005CFE07AB1A4669463046FEF795FF00985B
:1043B000002800D1FFDF00990D204870099805E022
:1043C0009C020020FFFF00000230000048623046DF
:1043D000FF302130486100200881A07FFB22800748
:1043E000800F012832D0002D56D002200871301DD8
:1043F0008861707840090877B0788007C00F4877E7
:10440000887F2B788008DB078000DB0F18438877D4
:104410001040E27FD207520F10438877F7221040F6
:10442000E27F9207D20FD20010438877EF2210402C
:10443000B278D207D20E10438877A878C8770A4698
:10444000213228462031FEF733FE29E00120087191
:10445000087E2B788008DB078000DB0F1843087686
:1044600010402A789207D20F920010430876F72264
:1044700010402A785207D20FD20010430876EF225C
:1044800010402A781207D20F120110430876242117
:104490002046FCF7D6FF0BE00320087105200876C4
:1044A00025212046FCF7CDFFA07F4006400EA077D7
:1044B00001A900980AF0ADFF022802D0002800D020
:1044C000FFDF384617E7FFB5FB4A0D4607CA99B02C
:1044D00003AB07C300271998FCF77DFF060005D042
:1044E0003078262804D008201DB0F0BDF348FBE743
:1044F000B07F8007800F1590012802D0022808D0D5
:104500000AE0002D08D11B98FEF782FD0028EBD1B0
:1045100002E01B98002841D1B07F8007800F01285E
:1045200006D00021199809F053FB040003D101E0E3
:104530000121F7E7FFDF852D26D008DC002D1BD0F9
:10454000812D1BD0822D1BD0832D08D11AE0862D02
:104550001CD0882D1CD0892D1CD08A2D1CD00F205A
:1045600020710F281AD0012069460877201D089075
:104570002079002814D062E10020F1E70120EFE764
:104580000220EDE70320EBE70520E9E70620E7E757
:104590000820E5E70920E3E70A20E1E70720A3E791
:1045A0001598012814D0656EA06E16900220019017
:1045B000012000901699A878897808400007C00F5C
:1045C000109069D01C980DF087F9002878D138E058
:1045D000A56E606E16900120019002200090214689
:1045E00030461B9AFEF739FD1B99A8780978800898
:1045F000C9078000C90F0843A870FB210840F17F5C
:10460000C907490F0843A870F7210840F17F8907BF
:10461000C90FC9000843A870EF210840A178C90755
:10462000C90E0843A870607840092870A0788007F8
:10463000C00F68701B988078E8700020687128713E
:10464000B8E71C98C0680DF047F9002863D11C98A2
:10465000C0690DF041F900285DD11C98C068A060C8
:104660001C98C069E0601699A0784978C907890F3D
:104670000843A0701699C0B28978C906C90F891E6F
:104680000840A070002020210855304600991730BE
:1046900002290BD001210AE0169902224978A0785C
:1046A000C907890FD24311430840E2E7002189007E
:1046B000091988610199701C022902D0012101E0C9
:1046C00029E00021890009198861A8788007800FF6
:1046D00001284CD1169880788007800F012846D198
:1046E0001598012804D12A1D691D1B98FEF7E0FCCE
:1046F00016982979007908AA01401175169A6879E7
:104700005279104008AA1076014330D01C980DF061
:10471000E3F8002801D01020E6E61C982146FF317E
:1047200022461030159BA9317C321790022B3AD0CB
:1047300002910192009000210DAB2046109AFEF7E5
:1047400038FD0028E8D12146FF3122461598AD31C9
:10475000943201282DD017980291019200900021E7
:104760000EAB2046109AFEF724FD0028D4D1A07885
:1047700080073DD41699A87889780843400737D533
:104780001698159B2978007803AA012B17D04300AF
:10479000D25A4B00DA409707BF0F18D0012F1ED016
:1047A000022F12D11DE01C9802910192009001216C
:1047B000C2E71C980291019200900121D0E74B00C2
:1047C000D25A4300DA409707BF0F032F07D0109A41
:1047D000002A0DD0012906D0042904D008E00227C0
:1047E000F5E70127F3E7012801D0042800D10427C9
:1047F000F07F01210843FD221040109A520010431F
:10480000F077A07882070320002A0BDAA0711099B4
:10481000002914D16946087606AA31461998FEF790
:104820009EFC0CE00225022F1AD0012F1AD0042F73
:1048300023D00020A071F07F40084000F0772521B0
:104840003046FCF7FEFD2046FF3007A921300AF074
:10485000BFFD002802D0022800D0FFDF002043E681
:10486000A571D7E72046A5710D21243015F0D6FE9D
:104870006078284360700420CCE7A171DFE7F7B5CA
:1048800086B00D460446FCF7A6FD070005D0387833
:10489000272804D0082009B0F0BD0848FBE7B87FFE
:1048A0008007800F01280BD00021204609F090F9E5
:1048B000040008D106E0000048AC0100023000000E
:1048C0000121F2E7FFDFA679012E08D0002D0ED0DE
:1048D00008980DF001F8002815D01020DBE70898A3
:1048E000002821D1002D08D0012D1DD11EE0022E5F
:1048F00005D0032E05D0FFDF28E00C2526E001259A
:1049000024E0022522E0022D02D0012D0AD00BE086
:10491000032E09D12046002510222130089915F0D8
:104920001EFE13E0022E01D00720B4E720462130FE
:1049300000251021064615F06FFE0898002805D0C6
:10494000062106F0F1FE314615F07BFE607802216B
:1049500008436070C20712D040084000607068468B
:10496000017005712046213002906946FF300AF03F
:104970002FFD022805D0002803D0FFDF01E02034FE
:10498000257025213846FCF75CFD002083E730B513
:1049900087B00D460446FCF71EFD002812D0807F2C
:1049A0008007800F01280FD00021204609F010F960
:1049B00004000ED028460CF08FFF002806D01020EF
:1049C00007B030BDFB48FBE70121EEE76078400708
:1049D00001D40820F4E7204629464130202205462C
:1049E00015F0BDFD6078102108436070010710D5F7
:1049F000F721084060701420694608702046FF3097
:104A0000213001950AF0E4FC022802D0002800D0F1
:104A1000FFDF0020D4E770B594B00D460646FCF7E2
:104A2000DAFC002803D00178272945D102E0E148CB
:104A300014B070BD807F8007800F012806D0002150
:104A4000304609F0C5F8040003D101E00121F7E781
:104A5000FFDFA07902282FD1A078C0072CD0002337
:104A600002220321304603F09DFC002826D00D21B0
:104A700068464173FF34213402220C9608948282E6
:104A800007A8811F06AB0093019102900023032128
:104A9000304603F006FD002800D0FFDF0421684601
:104AA000017408A805710DA903A80AF0B2FC00283A
:104AB00000D0FFDF0020BBE70820B9E71120B7E7EF
:104AC00070B5064686B014460D4608460CF004FF45
:104AD000002804D120460CF01CFF002802D0102032
:104AE00006B070BDB44886420DD03046FCF773FC6A
:104AF000002806D04378811C22461846FCF726FE83
:104B000006E0AC48ECE72046FDF7E7FB0028E7D1DC
:104B10001021E01D0CF0F2FBE21D29466846FEF76D
:104B2000F7FB204610221730019915F018FD0020E0
:104B3000D6E7F7B58CB00446154600270D980CF063
:104B400009FF002804D128460CF004FF002802D0F9
:104B500010200FB0F0BD2046FCF73DFC060003D04E
:104B60003078272817D101E09248F2E7B07F80071C
:104B7000800F012806D00021204609F029F8040002
:104B800003D101E00121F7E7FFDF6078400702D59C
:104B9000A078800701D40820DBE7B07F8007800F72
:104BA00001281DD0616EA06E4978002901D0002D2A
:104BB00019D04078002802D00D98002813D0002D7D
:104BC00019D0EA1D06A8E168FEF7A2FB28461022CC
:104BD0001730079915F096FC002806D004270AE044
:104BE000A16E606EE0E70720B3E720461022E91DC2
:104BF000313015F0B4FC0D98002805D0C11D2046B9
:104C00001022213015F0ABFC60780221084360705F
:104C1000C20714D0400840006070684601700771F8
:104C2000204621300290103003906946EF300AF0A0
:104C3000CFFB022805D0002803D0FFDF01E020349D
:104C4000277025213046FCF7FCFB002081E7F8B5F2
:104C500015460E460746FCF7BEFB040004D020783C
:104C6000222803D00820F8BD5248F8BDA07F800755
:104C7000800F022802D04F48C01CF8BD30460CF00F
:104C80002BFE002804D128460CF026FE002801D077
:104C90001020F8BD00953288B31C21463846FEF737
:104CA0004EFB112819D00028F3D1E17F2A7C490856
:104CB00092074900D20F1143E177FD2211402A7C6F
:104CC000D207920F1143E177297C8A0820210A55E7
:104CD000A17F4906490EA177F8BDA17F0907FBD442
:104CE00020460822B11C363015F039FC3088A086E9
:104CF000204610222946233015F031FCE07FFB21AD
:104D00000840297C8907C90F89000843E077F7210B
:104D10000840297CC907090F0843E077287C8108EF
:104D200021200155A07F08210843A0770020CFE76C
:104D300070B594B00D460646002B01D0072077E6EB
:104D4000FCF749FB040007D02078222802D3A07F7B
:104D5000400603D408206BE6164869E6002D1CD0F7
:104D60002D216846017046801022294601A815F0C1
:104D7000F6FBE07F297C400889074000C90F084303
:104D8000E077FD210840297CC907890F0843E077B7
:104D9000287C81082020015503E02E2168460170FF
:104DA000468009A9684606F06FFCA17FBF2211402A
:104DB000A1773DE602300000FFFF000070B50D4610
:104DC000FCF709FB040006D028460CF0A2FD0028E1
:104DD00003D0102070BD0B4870BD29462046FEF759
:104DE00053FA002070BD05E00278401C002A01D073
:104DF000002070470A46491E89B2002AF4D10120DA
:104E0000704700000230000070B50D46007804992C
:104E10001446042803D005282DD0FFDF70BDA88BD1
:104E2000062250430E30188033200880002CF5D025
:104E3000A88BA081002611E0A87F012812D01220A3
:104E40007043411906227243088C1219D081102038
:104E5000223110320AF083FB761CB6B2A089B04230
:104E6000EAD870BDB000411906227243088C1219AD
:104E7000D0810220ECE7A88B12225043103018801A
:104E800034200880A87F012808D0022806D0FFDF40
:104E9000002CE6D0A88BA081002612E0A073F7E7D3
:104EA000A87F012811D030461221484341190A8CAD
:104EB0000019028210221230223115F050FB761CAC
:104EC000B6B2A089B042EBD870BDB0004119122231
:104ED000088C7243121910820220223112320AF019
:104EE0003EFBECE7F8B500780C46164620340E364B
:104EF000069F022805D0032832D006287ED0FFDF87
:104F0000F8BDCD8B0A2068430E30188031203880E0
:104F1000002AF5D0087F9581801FC7B21AE020884B
:104F20006168308048780A7800021043F080C878C1
:104F30008A78000210433081B21C3846091D0AF0FD
:104F40000EFB002F01D0002802D0002030717080AD
:104F500008340A3628466D1EADB20028DFD1F8BDF0
:104F6000CD8B0A2068430E30188032203880002A0A
:104F7000F5D0087F9581401FC7B243E06168228861
:104F80000878F2803279C30752085200DB0F1A43C7
:104F9000FD231A408307DB0F5B001A43FB231A40F3
:104FA0004307DB0F9B001A43F7231A400307DB0F6D
:104FB000DB001A43EF231A40C306DB0F1B011A4321
:104FC000DF231A408306DB0F5B011A43BF231A401D
:104FD0004306DB0F9B011A433271C00970718A7856
:104FE0004B7810021843308132463846C91C0AF00B
:104FF000B6FA002804D00020B07000E008E030804D
:1050000008340A3628466D1EADB20028B6D1F8BD68
:10501000087FCD8B801E86B2304608306843103042
:10502000188035203880002AF1D017469581103736
:10503000E800D681C01900900DE0208838800098E3
:10504000786032466168009815F089FA0098083453
:1050500080190837009028466D1EADB20028ECD1AB
:10506000F8BDFFB5099E1D460C46002A05D0607E9E
:10507000FF300130D080E08B108100980078030071
:1050800015F02EFD0C900715212A333C4A5F686805
:105090006890087F1746082802D0032800D0FFDF59
:1050A0000E20288030200AE00020B881FFBD087F54
:1050B0001746042800D0FFDF0E20288031203080E2
:1050C000002FF1D1FFBD087F1746042800D0FFDF75
:1050D0000E2028803220F2E7087F1746022800D0F1
:1050E000FFDF0E2028803320E9E7087F17460228DB
:1050F00000D0FFDF102028803420E0E7087F17462B
:10510000042800D0FFDF1020288035203080002FB9
:10511000D8D00020B88112E0207F1746052802D0A1
:10512000062800D0FFDF1220288036203080002F94
:10513000C8D0E08BB8810020388200984088F88180
:10514000FFBD087F1746072800D0FFDF0E2028800C
:105150003720B4E714202880382017463080002AF2
:10516000EED0E08BB8810020788200980078092882
:1051700005D00A2809D00B280DD0FFDFFFBD087F1E
:105180000C2800D0FFDF01200AE0087F0D2800D0A6
:10519000FFDF042004E0087F0E2800D0FFDF052099
:1051A000B873FFBDFFDFFFBD70B50C460546FCF7C9
:1051B00012F9002804D00078222803D2082070BDFC
:1051C000FA4870BD0521284608F002FD206000283D
:1051D00001D0002070BD032070BDFFB585B00D4625
:1051E0000746172069468881089802261446002839
:1051F00005D108A93846FFF7D7FF002842D1002D76
:105200000DD06846828900233146384603F0CAF83B
:10521000002842D00898007800283ED105E0207888
:10522000092823D00F282FD0FFDF002004A90190E8
:10523000034600910290684682893146384603F061
:1052400030F900281ED10898A760801D606003A96E
:105250002046049A04F0FBF900282BD0030015F037
:105260003FFC071E1C27272520222700684607260B
:10527000828900233146384603F094F80028D4D1BF
:10528000CA48801C09B0F0BD6846828900233146B7
:10529000384603F087F80028C7D11120F2E7002034
:1052A000F0E70820EEE7C148401CEBE70720E9E7FC
:1052B0000320E7E70498009068468389042231467A
:1052C000384603F07BFA0028DCD1002DDAD00899AB
:1052D0000D70D7E730B587B01D460C46002A11D0B7
:1052E000042369460B7013888B815288CA81A27887
:1052F0008A7422880A8200236A462946FFF76DFFD6
:1053000007B030BD1020FBE7F3B581B001980C4623
:1053100000780826030015F0E3FB123B3737151120
:10532000390A0A0A0A0A0A0A0A0A0A0A0A3B002C65
:1053300000D1FFDF6078304360702AE0002CF9D1A3
:10534000FFDFF7E701980521808887B2384608F02B
:105350003FFC0546002C00D0FFDF002D00D1FFDF11
:105360003946A81D04F06AF902F0FBFA040006D0E1
:10537000607830436070678002F0D1FA0BE013214F
:105380003846FDF7DDF911E0FFDF02E0FFDF00E066
:10539000FFDF002C0AD06078000707D5932020702B
:1053A0002046582218300199FBF7F0FE0020FEBD80
:1053B00010B500200870881D04F03DF910BD0A46A4
:1053C00010B50146901D04F041F910BD70B50546B9
:1053D000052108F0FDFB040000D1FFDF2946A01DD8
:1053E00004F02CF970BDF7B586B00C4605460020D8
:1053F0006946088188806F880521384608F0E8FBF7
:10540000060000D1FFDF002C03D0A7800020E08041
:105410002081297E20461230C91E142700900B00DF
:1054200015F05EFB0FFEF5F25E09A8676C7D2BB1EF
:10543000C6E19090F2003078012800D0FFDFA88B01
:105440006A46C1000E31918030211181002C13D0A9
:10545000A08100200DE0C100327909190A74728818
:10546000CA8182005319DA8B4A821A8C401C8A82C4
:1054700080B2A1898142EED8E4E03078012800D0E2
:10548000FFDFE88B6A46C1000E3191803021118127
:10549000297F091FC9B20491002CEDD0A0810027FB
:1054A0001AE0F8000219401900920390416A0E3286
:1054B00004980AF054F8002804D0009900200874D9
:1054C0000099C88103987F1C018C0098BFB241826B
:1054D0000398418C00988182A089B842E1D8B1E05C
:1054E00002A8009001AB224629463046FFF78CFC0B
:1054F000A8E03078072805D0FFDF03E030780728E0
:1055000000D0FFDFE88B69461230888036200881A2
:10551000002C37D0A98BA1817188E18122E03078FD
:10552000082800D0FFDFA88B6A4601460E30908025
:1055300037201081002C25D0A1812046AA8B0E3067
:10554000296A4DE0E88B6946123080B239228880A2
:105550000A81002C72D0A98BA181287E102807D047
:105560000221A173E98B2182EA8B296A009837E036
:105570000121F6E702A8009001AB224629463046F9
:10558000FFF7B0FC5EE03078092800D0FFDF694605
:1055900038208F800881002C54D0A98BA181002055
:1055A000608220820120A0734CE0000002300000E5
:1055B00030780A2800D0FFDF288C694614308880B4
:1055C00038200881002C3DD00421A173A98BA18132
:1055D000E98B2182298C618220462A8C1430696AE9
:1055E00014F0BDFF2EE030780B2800D0FFDF6946B5
:1055F00038208F800881002C24D00521A173002041
:10560000A081208260821DE01BE000E008E002A88B
:10561000009001AB224629463046FFF722FD11E0FB
:105620000D2069463A2288800A81002C06D001208C
:10563000E08000202081207304E0FFE708990880C3
:1056400015E0FFDF6846089980880880002C0ED09E
:10565000684600892080684680886080287E03280C
:1056600005D0102803D0112801D000203070002070
:1056700008E6F7B556880F4682B015460521304634
:1056800008F0A6FA040000D1FFDFA41D33462A4625
:1056900039460094029804F060F905B0F0BDF7B502
:1056A0008CB00D46144607A90C98FFF77DFD002825
:1056B00012D1884E0127002C10D0032168460170BA
:1056C0001021818208A802460690204605A909F00B
:1056D0006CFF00280CD007200FB0F0BD08216846F1
:1056E00001708581C68105218774C90201820BE0A2
:1056F0000798A17801712188418068460521877447
:10570000C90201828581C68102460121079B0C984E
:10571000FFF763FDE0E708B501236A4693706E4B1F
:1057200013800A4602236946FFF7D4FD08BD08B579
:1057300001236A469370684B5B1C13800A4603235F
:105740006946FFF7C7FD08BD00B587B000290CD03A
:1057500002236A4613700B8893814988D181002304
:105760000421FFF73AFD07B000BD1020FBE710B59C
:10577000002903D00623FFF7ADFD10BD072010BDA3
:1057800070B588B00D461446064607A9FFF70CFD14
:1057900000280DD1002C0DD00621684601708581AE
:1057A000C481079B02465C8007213046FFF715FD48
:1057B00008B070BD0521684601708581F1E710B51C
:1057C00088B000290BD007246B461C709A81049185
:1057D00000236A460821FFF700FD08B010BD102025
:1057E000FBE770B50024172288B0002914D00D788B
:1057F0002B0015F075F90623050519041B23152246
:10580000D21E93B2CA88002A02D08E68002E03D01E
:105810009A4203D90C20CBE71020C9E7042D05D00C
:105820008A88002A0AD101E00620C1E7012D11D0A3
:10583000022D05D0042D18D0052D23D00720B7E761
:1058400009236A4613704B889381CB88D38189687A
:1058500004911DE00C236A4613704B889381CB881A
:10586000D38189680924049112E00D236A461370DC
:105870004B8893818B88D381CB88138289680A24D3
:10588000059105E00E236A461370497811730B24C5
:1058900000232146FFF7A1FC8AE700B587B00F235C
:1058A0006A461370918100231946FFF796FC5AE768
:1058B00000B587B000290BD002236A4613700B880D
:1058C00093814988D18100230521FFF786FC4AE7AF
:1058D000102048E7FFFF000002280000002803D046
:1058E0008178012939D101E0102070470188FE4AF2
:1058F000881A914233D01BDCFC4A881A91422ED080
:105900000BDC00292BD00320C002081A27D0012865
:1059100025D001210903401A07E001281FD00228E1
:105920001DD0FF281BD0FF380138002815D116E004
:10593000FF220132811A904211D008DC01280ED0DA
:1059400002280CD0FE280AD0FF2806D107E0012942
:1059500005D0022903D0032901D0002070470F2071
:10596000704700B50B2826D009DC030015F0B8F805
:105970000B1D2125251B25292325271F1B00112849
:105980001BD008DC0C2816D00D281CD00F2814D0F2
:10599000102808D10FE0822809D084280FD085284C
:1059A0000FD0872811D0032000BD002000BD0520A6
:1059B00000BDCF4800BD072000BD0F2000BD042062
:1059C00000BD062000BD0C2000BD0D20800200BDE2
:1059D00000B5030015F084F8070507050D0D090B48
:1059E0000D00002000BD112000BD072000BD0820D3
:1059F00000BD032000BD00780207120F04D0012A69
:105A000005D0022A0CD110E0000909D10AE00009F2
:105A1000012807D0022805D0032803D0042801D08C
:105A2000072070470870002070470620704700B5B7
:105A3000030015F055F8050406080A0C10000020B4
:105A400006E0112004E0212002E0312000E04120A6
:105A50000870002000BD072000BD38B50C460500C9
:105A60004DD06946FFF7C7FF00281FD1694660780F
:105A70000978C0084907C000490F084360706946AB
:105A8000681CFFF7B8FF002810D16078C7210840D4
:105A9000694609784907890E08436070A978490763
:105AA000890F012903D0022905D0072038BD2178AC
:105AB000DF22114002E021782022114321704107AA
:105AC00007D0BF210840A9780907C90F89010843F9
:105AD000607060788106490F0AD0A9784006C9062F
:105AE000C90F400EC901084360708006400F02D103
:105AF0006078400603D520784021084320700020BC
:105B000038BD70B504460020088015466068FFF770
:105B1000A4FF002815D12189A089814210D861688D
:105B20008978C90708D001214902884208D8491C50
:105B300014F08FFD298009E0FF21FF31884201D94F
:105B40000C2070BDFF30FF3003302880002070BD76
:105B500010B5137804785B08E4075B00E40F234377
:105B60001370FD2423400478A407E40F640023434A
:105B70001370FB24234004786407E40FA40023433C
:105B80001370F724234004782407E40FE400234330
:105B90001370EF2423400478E406E40F2401234328
:105BA0001370DF2423400478A406E40F6401234328
:105BB00013700078BF244006C00F234080010343C8
:105BC0001370002906D00878C10701D1800701D5DC
:105BD000012000E00020C0015906490E0843107062
:105BE00010BD10B54A784378D208D2005C0702D0C5
:105BF0005B075B0F05E09B065C0F01D05B0F00E0CD
:105C000001231A434A70C72340781A4083065C0F69
:105C100001D0580F05E0430702D04007400F00E0D5
:105C20000120C00002434A7010BDF3B593B00D00CF
:105C30000FD0139800280FD01221284614F0ECFC46
:105C400003AAFF21012005F092FB002426463746D7
:105C50007BE0102015B0F0BD0720FBE76846807D93
:105C600001280BD16846818A0520C002081A0AD093
:105C700001280AD002280CD003280CD0042C0ED006
:105C8000052C0FD10DE0012400E002246846468A6D
:105C900008E0032406E068460424478A02E005245D
:105CA00000E006246846418A139881424DD12C7445
:105CB000002E48D00DAA0EA9072002920191009053
:105CC00010230022FF21304605F0F0FB00282AD1E6
:105CD0006846808E2A46C0B20EA909F040FC002812
:105CE00021D1AE81002F05E002290000012800002B
:105CF0000330000027D00DA9072008AE02910090C4
:105D0000132300220196FF21384605F0CFFB00281F
:105D100009D16846808EF11CC01EC0B22A1D09F050
:105D20001EFC002801D0032094E708A8817842785F
:105D300008021043E881062C05D16846807DA872D0
:105D40006846808A2881002084E703A805F018FBB4
:105D5000002883D0FFF705FE7CE7F0B58BB00E4638
:105D600005461C461746142103A814F057FC0120D1
:105D7000694608730874119A4A748F82002C0AD0FD
:105D8000A178C90707D069468875E0884883A0884C
:105D90000883A068079001F0E4FD040024D065802A
:105DA000172268460284002009A900910190034649
:105DB00002900146284602F074FB002812D1684682
:105DC000083670C008AA099B109904F0C2FD064667
:105DD0006078000701D501F0A2FD002E0AD0304600
:105DE000FFF7F6FD0BB0F0BD13212846FCF7A8FC29
:105DF0000320F7E7099800906846038C04220021ED
:105E0000284602F0DBFCEDE770B506468AB00020BC
:105E10000D4607900590069003A9049007240246BA
:105E200002910190102300942946304605F03EFB74
:105E300000280DD108A804A9009102900194684699
:105E4000838900222946304605F051F9002801D007
:105E5000FFF787FD0AB070BD10B504F0D6FF10BD86
:105E6000FEB500260546029600780C46082703007A
:105E700014F036FE0CC5070F33D6686887A1C1A69B
:105E8000B2C5002C00D0FFDF288980B201F0F5FEFA
:105E9000B6E0A888042180B2009007F099FE019036
:105EA000002C00D0FFDF0198002800D1FFDF01980F
:105EB0000099083004F06BF901F053FD040007D09D
:105EC0006078384360700098608001F028FD99E0A8
:105ED00013210098FCF734FCA2E0002C00D1FFDF76
:105EE0006088042107F074FE0090002800D1FFDFD5
:105EF0000099002008802A79944620E0C3005B19AD
:105F00009B6800936B461B781A0708D5DB0606D5FD
:105F10006046C20050194038C08F088008E06B46C8
:105F20005B785B0609D50871C2005019C0884880AB
:105F3000607838436070022662E0401CC0B284453D
:105F4000DCD85DE0E88869460880002C00D1FFDFDE
:105F500068464078C00904D02878062805D005286E
:105F60002CD06078384360704AE06088042107F0E4
:105F70002FFE060000D1FFDF00203071A88870805E
:105F80001CE0002C00D1FFDF6088042107F020FE18
:105F90000090002800D1FFDF0098083004F087FF50
:105FA0000121484002D1E879C00929D000986188D0
:105FB0000226C180D5E7002C00D1FFDF0226D0E702
:105FC000002C00D1FFDF022661880122204601F06B
:105FD0009AFE01200290C4E7A889002C87B200D065
:105FE000FFDF68680090288969468880012238466A
:105FF00001F09DFE04E0002CB3D1FFDFB1E7FFDF2D
:10600000002C0DD0607800070AD50298002807D12F
:10601000842020702046582229461830FBF7B6F815
:106020003046FEBD3EB50C0009D002AB6A460021E9
:1060300005F09EFA002804D0FFF793FC3EBD102027
:106040003EBD0321204614F0E7FA6846407801A9D6
:106050004007400FFFF7EBFC00280BD168460079A2
:1060600020706846407801A98006400FFFF7DFFCEA
:10607000002801D003203EBD684600796070A278F8
:10608000EF20024068464078C00900010243A27038
:10609000F7200240684640784006C00FC000024327
:1060A000A270F920024068460078800601D50220DF
:1060B00000E00120400069460243097A5008400090
:1060C000C907C90F0843A07000203EBD70B5064641
:1060D000144608460D46204307D0002D10D0284610
:1060E0000BF02DFC002812D101E0072070BD2946DD
:1060F000304605F096FA002802D0FFF732FC70BD5A
:10610000002C0BD020460BF01AFC002801D01020E8
:1061100070BD21463046FFF785FF70BD002070BD81
:10612000F7B50C460546007E22468AB00A32009238
:10613000921E05920027811E0C323E4603920B00F0
:1061400014F0CEFC08FC05FB34347EBEFDFB6888F1
:10615000042107F03DFD0190002800D1FFDF0198E8
:106160000088002802D052270726EFE0512710268A
:10617000002C7DD06888A0800120A07101980022A9
:1061800000790099C0004019C08BFFF79FFF0028DD
:106190006FD101980079C0004019C08B208101980F
:1061A0000079C0004019408CE081EBE0698C0191DE
:1061B000062821D1E87FC0091ED008461430512797
:1061C00086B2002CD5D0A88B00220099FFF77EFF65
:1061D000002873D16888A0800220A071A88B20813C
:1061E0000120A073288C208201986082696A019A3C
:1061F000039814F0B4F9C5E008461230502786B26F
:10620000002CB6D0A88B00220599FFF75FFF00286D
:1062100054D16888A080A88BE080287E06280DD005
:1062200002202073288CE081E87FC0096073019808
:1062300020822046696A1230019ADAE70120F0E7ED
:106240006888042107F0C4FC0290688C05900298CD
:10625000002800D1FFDF0298083004F028FE012159
:10626000484002D1E87FC00927D00598143001E0EA
:106270007AE023E0512786B2002C76D06888A0808F
:10628000A88B00220099FFF721FF002816D10220D9
:10629000A071A88B20810420A073288C20820598EF
:1062A0006082696A059A039814F059F902990020EE
:1062B00008710298A98B418064E003200DB0F0BD05
:1062C0006888FBF788F800906888042107F080FC54
:1062D00003900098002800D1FFDF0398002800D128
:1062E000FFDF0398FE49C088884202D05127142658
:1062F00001E050271226002C37D06888A080502F4C
:1063000006D00220A071287F059901F08BF939E0B1
:10631000287FA11D01F086F90098002120308078A7
