:020000021000EC
:10C0000000400020C1350200FD350200FF3502006E
:10C010000000000000000000000000000000000020
:10C0200000000000000000000000000001360200D7
:10C030000000000000000000033602000536020088
:10C0400007360200073602001D38020007360200DC
:10C050000736020000000000073602000736020023
:10C0600007360200073602000736020007360200D4
:10C0700007360200073602000736020007360200C4
:10C0800007360200213F0200073602000736020091
:10C0900007360200B9C1010095F801000736020019
:10C0A0000736020007360200000000000000000012
:10C0B0000000000000000000000000000000000080
:10C0C00010B5064C2378002B07D1054B002B02D06E
:10C0D000044800E000BF0123237010BD8828002021
:10C0E000000000003C590200084B10B5002B03D0A3
:10C0F0000749084800E000BF07480368002B00D14B
:10C1000010BD064B002BFBD09847F9E7000000005C
:10C110008C2800203C5902008828002000000000E4
:10C12000164B002B00D1144B9D46402292029A1AC6
:10C13000924600218B460F461348144A121A07F004
:10C1400086FF0F4B002B00D098470E4B002B00D0E2
:10C1500098470020002104000D000D48002802D05F
:10C160000C4800E000BF07F015FF2000290007F091
:10C17000A5F907F0F9FEC0460000080000400020C5
:10C1800000000000B134020088280020702C00203C
:10C1900000000000000000002EDF7047C0461800BD
:10C1A00032DF7047C046180033DF7047C0461800C2
:10C1B0004CDF7047C046180010B50D4B1B785A1E57
:10C1C0009341DBB201225340DBB21A1C012313401E
:10C1D000DAB2074B1A70074B1B68002B05D0054BD2
:10C1E0001B68034A127810009847C04610BDC0462D
:10C1F000A4280020A828002000B585B000926B4636
:10C200000733021C1A706B4606330A1C1A70184B4F
:10C21000009A1A601520FFF7C3FF03000393039BE6
:10C22000002B01D0039B1FE06B4607331B781900DE
:10C230001520FFF7B9FF03000393039B002B01D0E8
:10C24000039B11E01520FFF7A7FF03000393039B57
:10C25000002B01D0039B07E06B4606331B781900C7
:10C260000320FFF7A5FF0300180005B000BDC0467E
:10C27000A82800207FDF7047C046180082DF704783
:10C28000C0461800A7DF7047C0461800A9DF7047F6
:10C29000C0461800AADF7047C046180082B001905F
:10C2A0000122019B9A401300DA43044B1B681A4099
:10C2B000024B1A60C04602B07047C04638290020C1
:10C2C00082B001900122019B9A4013001A00044B96
:10C2D0001B6813405A1E9341DBB2180002B070472E
:10C2E0003829002082B001900F49019A13005B00A9
:10C2F0009B189B0000225A500B49019A13005B00C7
:10C300009B189B00CB18093300221A700649019A2A
:10C3100013005B009B189B00CB180A3300221A7095
:10C32000C04602B07047C0462429002000B583B043
:10C3300001901749019A13005B009B189B00CB18D2
:10C340000A3301221A701249019A13005B009B18EC
:10C350009B00CB180833012252421A800C49019AE3
:10C3600013005B009B189B00CB180B33FF221A7045
:10C37000019A13005B009B189B00054A9B1807223B
:10C380000021180007F063FEC04603B000BDC046A0
:10C390001829002000B583B00190019A1300DB003A
:10C3A0009B1A9B0010331A001C4BD3180133062232
:10C3B0000021180007F04BFE019A1300DB009B1AC6
:10C3C0009B00164A9B1810220021180007F03FFE20
:10C3D0001249019A1300DB009B1A9B00CB18103303
:10C3E000FF221A700D49019A1300DB009B1A9B0073
:10C3F000CB181A33FF221A700849019A1300DB0088
:10C400009B1A9B00CB181833012252421A80019BC1
:10C410001800FFF743FFC04603B000BDAC28002062
:10C4200084B000926B460633021C1A806B460533BB
:10C430000A1C1A7008230393002302932EE01B4961
:10C44000029A13005B009B189B00CB180A331B78E1
:10C450006A46053212781340DBB2002B1BD06B46C4
:10C4600006331B88124A93420DD01049029A1300DA
:10C470005B009B189B00CB1808331B886A4606326A
:10C4800012889A4205D1009B029A1A6000230393F6
:10C4900007E005230393029B01330293029B002BC9
:10C4A000CDD0039B180004B07047C0461829002067
:10C4B000FFFF000000B585B001900091304B039361
:10C4C0000023029355E02F49029A1300DB009B1AC8
:10C4D0009B00CB181A331B78FF2B47D1009B1B788E
:10C4E000022B26D02749029A1300DB009B1A9B00DF
:10C4F000CB181A331B7802229343D8B22149029AEF
:10C500001300DB009B1A9B00CB181A33021C1A7015
:10C510001C49029A10201300DB009B1A9B00CB18C9
:10C520001A18009B1000190007231A0007F086FD57
:10C5300015E01449029A1300DB009B1A9B00CB18EC
:10C540001A331B7801229343D8B20E49029A130082
:10C55000DB009B1A9B00CB181A33021C1A70029B3B
:10C56000DAB2019B1A700023039305E0029B0133AA
:10C570000293029B012BA6D9039B180005B000BDB6
:10C5800043800000AC28002000B587B00190019BDB
:10C5900099B203AA0D4B180002F04EFD030005935B
:10C5A000059B002B0DD103AB5421180002F0EEFFC8
:10C5B00003000593059B002B03D1019B1800FFF797
:10C5C000E9FE059B180007B000BDC04630290020D9
:10C5D00000B587B0039002916B4606331A8005239D
:10C5E0000593002304932CE0039B002B0DD11849E5
:10C5F000049A1300DB009B1A9B00CB1818331B888E
:10C600006A46063212889A4212D0039B002B15D03C
:10C61000049A1300DB009B1A9B0010331A000C4B8A
:10C62000D31803990722180007F0F9FC031E05D15F
:10C63000029B049A1A600023059305E0049B0133D2
:10C640000493049B012BCFD9059B180007B000BDB4
:10C65000AC28002000B587B0039002910192054BF1
:10C660001B680593019A02990398059B9847C04659
:10C6700007B000BD2429002000B585B00190019BC2
:10C680000D481A000121FFF7CBFE03000393039B23
:10C69000002B0BD1019B1A68084913005B009B1803
:10C6A0009B00CB180A3302221A7001E00423039383
:10C6B000039B180005B000BDFFFF000018290020F3
:10C6C00000B583B00190019B1A68094913005B0013
:10C6D0009B189B00CB180A331B78012B04D0019BBD
:10C6E0001B681800FFF722FEC04603B000BDC0461D
:10C6F0001829002084B00390029119006B4606337C
:10C700001A8001AB0A1C1A800023180004B070477D
:10C7100010B586B001900A006B4603331A70019B76
:10C720009B7899B202AA454B180002F085FC0300E1
:10C730000493049B002B00D07CE0019B5B781900E4
:10C740003F4A0B005B005B189B00D3180A331B7831
:10C750001A004023134004D16B4603331B78022B8D
:10C7600002D1384B059309E06B4603331B78012B4C
:10C7700002D1354B059301E0344B0593019B9B7827
:10C780001A001300DB009B1A9B00314A991802A87B
:10C79000059C00231C22A04703000493049B002B4C
:10C7A0002ED16B4603331B78022B29D0019B5B787B
:10C7B0001900019B5B781800214A03005B001B18DD
:10C7C0009B00D3180A331B7840229343D8B21C4AEB
:10C7D0000B005B005B189B00D3180A33021C1A7015
:10C7E000019B5B781A001300DB009B1A9B00194A1F
:10C7F000991802A8059C1C231C22A047030004933F
:10C800006B4603331B78022B14D0019B1B78190055
:10C81000114A0B005B005B189B00D3180A331B788E
:10C820001A000E4B9200D358019902AA10009847A3
:10C8300003000493C04606B010BDC0463029002056
:10C84000182900208DF2010021F10100F5C6010038
:10C85000AC280020E428002024290020C84E020033
:10C8600082B0019000910023180002B07047C046CA
:10C8700010B58AB001900091032308931A236B44EA
:10C880000E221A80009B5B7819004C4A0B005B005B
:10C890005B189B00D31808331888089B1A226A4437
:10C8A00003A9FFF7F7FC03000793079B002B00D0B9
:10C8B00080E0009B5B781A0013005B009B18DB0094
:10C8C00008331A003E4BD0181A236B441B881A00F9
:10C8D00003AB190007F0A3FB031E1DD1009B5B787F
:10C8E0001900364A0B005B005B189B00D3180A3313
:10C8F0001B781A00022313405CD1009B5B781A005E
:10C9000013005B009B18DB002D4A9B1818220021A6
:10C91000180007F09CFB4DE0009B5B781900284A4B
:10C920000B005B005B18DB00D31804331B68002B83
:10C9300002D0244B099301E0234B0993009B5B78C1
:10C9400019001F4A0B005B005B18DB000899995027
:10C95000009B5B7819001A236B441B881800184A47
:10C960000B005B005B18DB00D31804331860009BDE
:10C970005B781A0013005B009B18DB0008331A0079
:10C980000F4BD0181A236B441B881A0003AB1900F5
:10C9900007F054FB009B5B781A0013005B009B18A8
:10C9A000DB00074A99180198099C38231822A047F0
:10C9B00003000793002318000AB010BD18290020B7
:10C9C000002900208DF2010021F1010082B00190C8
:10C9D00000910023180002B07047C04600B585B032
:10C9E00001900091009A019B11001800FFF740FF91
:10C9F00003000393039B002B07D1009A019B1100B6
:10CA00001800FFF7E3FF03000393039B180005B032
:10CA100000BDC04682B0019000910023180002B012
:10CA20007047C04600B585B001900091009B5B78CF
:10CA30001A0013005B009B18DB00144A9818019938
:10CA40003823182202F0D8FC03000393039B002B29
:10CA500018D1009B5B7819000C4A0B005B005B1837
:10CA6000DB00D31804331B6801330BD1009B5B78C8
:10CA70001900064A0B005B005B18DB00D318043377
:10CA800000221A60039B180005B000BD0029002099
:10CA900082B0019000910023180002B07047C04698
:10CAA00000B585B001900091009A019B110018001B
:10CAB000FFF7B8FF03000393039B002B07D1009AF5
:10CAC000019B11001800FFF7E3FF03000393039B92
:10CAD000180005B000BDC04682B0019000231800C8
:10CAE00002B0704710B586B00190002304930E2366
:10CAF0006B4400221A8000230293019B5B7819008B
:10CB0000564A0B005B005B18DB00D31804331B682C
:10CB1000002B40D0019B5B781900514A0B005B0051
:10CB20005B189B00D3180A331B785BB2002B32DAF8
:10CB3000019B5B7819004A4A0B005B005B189B0065
:10CB4000D3180A331B781A004023134023D1019BCA
:10CB50005B781A0013005B009B18DB0008331A0097
:10CB60003E4BD3180493019B5B7819003B4A0B00A2
:10CB70005B005B18DB00D31804331A680E236B4488
:10CB80001A80019B5B781900344A0B005B005B182C
:10CB9000DB009B580293019B5B781900304A0B0025
:10CBA0005B005B189B00D31808331888029C0E2387
:10CBB0006B441A8804992300FFF768FB0300059370
:10CBC000059B0B2B16D101230293019B5B78190067
:10CBD000234A0B005B005B189B00D31808331888AE
:10CBE000029C0E236B441A8804992300FFF74EFB26
:10CBF00003000593059B002B01D01A4B0593029B64
:10CC0000012B27D1019B5B781900154A0B005B00B3
:10CC10005B189B00D31808331B88134A0C2118009B
:10CC2000FFF730FB03000593059B002B12D0059BFB
:10CC30000E4A93420CD0059B082B09D0059B0C4A49
:10CC4000934205D0059B112B02D00023059301E0F0
:10CC5000044B0593059B180006B010BD0029002069
:10CC60001829002041800000FFFF00000230000072
:10CC70000430000082B001900023180002B0704719
:10CC800000B585B00190019B1800FFF72BFF030052
:10CC90000393039B002B05D1019B1800FFF7EAFFCC
:10CCA00003000393039B180005B000BD00B599B0C5
:10CCB0000390019200930B236B440A1C1A70994B4A
:10CCC0001B68002B00D127E11A9B542B00D925E1CA
:10CCD0005F236B4401221A700FAB180000F0F0FBC9
:10CCE00003001593159B1493149B002B05D08E4ABB
:10CCF0008E49149B180005F08FFF0FAB00221A70AD
:10CD000010AB00221A700CAB009A9A600CAB1A9A06
:10CD10005A60002316931BE0169B99B20AAA844B13
:10CD2000180002F089F903001593159B002B0CD114
:10CD30000AA9039B0822180007F071F9031E04D109
:10CD4000169BDAB20FAB9A7005E0169B013316936F
:10CD5000169B012BE0D90FAB9B78FF2B00D1DEE0B7
:10CD60000B236B441B78032B0AD11A9B542B03D142
:10CD700010AB20221A709FE010AB40221A709BE08B
:10CD8000009A6C4BD31A1C21180007F0E9FC030031
:10CD90001393139B012B1FD810AB0CAA5A60019B55
:10CDA000002B10D10FAB9B781800FFF789FA030016
:10CDB0001A0001235340DBB2002B04D05F236B44E5
:10CDC00000221A7078E00FAB9B781800FFF766FA24
:10CDD00010AB20221A706FE0009A574BD31A1C2117
:10CDE000180007F0BDFC03001393139B002B2AD1FE
:10CDF00010AB0CAA5A6010AB20221A70139BDAB247
:10CE00000FAB5A7004AB0022DA6004AB4B4A1A61D4
:10CE1000139A1300DB009B1A9B00474A9A1804AB35
:10CE20001A600FAB9B781A001300DB009B1A9B0063
:10CE3000404A9A1804AB5A600CAB04AA9A600CAB37
:10CE400018225A6038E0009A3D4BD31A1821180076
:10CE500007F086FC03001393139B002B25D110AB26
:10CE600030221A70139BDAB20FAB5A700FAB01224B
:10CE7000DA703449139A13005B009B189B00CB189F
:10CE80000A331B781A000223134015D10FAB5B78CD
:10CE90001A0013005B009B18DB00294A9B1818221C
:10CEA0000021180007F0D3F806E05F236B4400224E
:10CEB0001A7010AB40221A705F236B441B78002B52
:10CEC0002DD00B236B441B78032B07D110AB1B78A1
:10CED00003221343DAB210AB1A7013E00B236B4436
:10CEE0001B78022B07D110AB1B7801221343DAB257
:10CEF00010AB1A7006E010AB1B7802221343DAB2B3
:10CF000010AB1A7010AB0CAA5A60019A10A90FABA3
:10CF10001800FFF79FFB02E0C04600E0C04619B0D2
:10CF200000BDC04624290020F84E0200AD050000D7
:10CF300030290020AC280020E42800203C290020D3
:10CF4000002900201829002000B589B00190019B1C
:10CF5000002B01D1484B8CE00023069306E0069B92
:10CF60001800FFF7BFF9069B01330693069B002BC1
:10CF7000F5D00023069306E0069B1800FFF7D6F9CC
:10CF8000069B01330693069B002BF5D03B4B1822E2
:10CF90000021180007F05BF8002306930BE0069BC6
:10CFA0001800FFF7F7F9364A069BD318FF221A70CC
:10CFB000069B01330693069B012BF0D904AB542248
:10CFC0009A8004AB0222DA8004AB2E4A1A602E4A01
:10CFD00004AB1100180001F06FFF03000793079BDB
:10CFE000002B45D1294B01221A70019B1B7801228D
:10CFF0005340DBB2002B2ED00023069327E0069B84
:10D0000099B202AA204B180002F016F80300079309
:10D01000079B002B14D1069A1300DB009B1A9B0080
:10D020001B4A981802A900231C2202F0E5F903000C
:10D030000793079B002B07D0144B00221A7017E0B0
:10D04000124B00221A7013E0069B01330693069BD5
:10D05000012BD4D90CE004AB9B8804AAD28853439B
:10D060009AB2094B1100180002F090FA03000793DE
:10D07000079B180009B000BD0E80000000290020A9
:10D0800054290020ADCC0100302900205329002074
:10D09000AC28002000B585B0019000912B4B1B7887
:10D0A00001225340DBB2002B01D0294B4BE0019B06
:10D0B000002B01D1274B46E0009B002B01D1254BD3
:10D0C00041E0009B1B68002B01D1224B3BE0224B2F
:10D0D0001B68002B34D1009B1A681F4B1A601E4A34
:10D0E000009B0521101D5B180522190006F0A6FF04
:10D0F000009B1A79184B9A72174B1A7A01218A43AE
:10D100001A72154B1A7A02210A431A72124B1A7AB2
:10D1100004218A431A72104BDA7901210A43DA7129
:10D120000D4BDA7902210A43DA710B4BDA790421CB
:10D130008A43DA71019B00221A700023039301E0F5
:10D14000064B0393039B180005B000BD5329002034
:10D15000088000000E8000002429002004800000C8
:10D1600082B001900091394B1B7801225340DBB211
:10D17000002B01D0364B65E0019B002B01D1354BD4
:10D1800060E0009B002B01D1324B5BE0019B1B78E0
:10D19000002B0AD1019B1B7819002F4A0B005B0062
:10D1A0005B189B009B58002B01D1294B4AE0019B47
:10D1B0005B78002B0CD1019B5B781900274A0B0090
:10D1C0005B005B189B00D3180A331B78012B01D13D
:10D1D000234B37E0019B5B781900204A0B005B0072
:10D1E0005B189B00D3180A331B781A0004231340E2
:10D1F0000ED1019B5B781900184A0B005B005B188D
:10D200009B00D3180A331B781A002023134003D045
:10D21000009B01221A7014E0019B5B7819000F4AF1
:10D220000B005B005B189B00D3180A331B785BB2C2
:10D23000002B03DA009B02221A7002E0009B0022FE
:10D240001A700023180002B07047C046532900200E
:10D25000088000000E8000002429002018290020EA
:10D260001080000088B001900091684B1B7801226B
:10D270005340DBB2002B01D0654BC4E0019B002B77
:10D2800001D1644BBFE0009B002B01D1614BBAE0A0
:10D29000009B1B68002B01D15E4BB4E0009B9B6898
:10D2A000002B01D15B4BAEE0019B1B78002B0AD118
:10D2B000019B1B781900584A0B005B005B189B0010
:10D2C0009B58002B01D1524B9DE000230793002374
:10D2D000069317236B4400221A700023049385E001
:10D2E00017236B4400221A700023039321E04B495B
:10D2F000039A13005B009B189B00CB180B331B7821
:10D300001A00049B9A4211D14449039A13005B000E
:10D310009B189B00CB180A331B781A00022313407A
:10D3200004D017236B4401221A7005E0039B0133DC
:10D330000393039B002BDAD017236B441B78012245
:10D340005340DBB2002B4ED0009B1B7B1A00069B88
:10D350009A4223D93249049A1300DB009B1A9B009E
:10D36000CB181A331B781A000123134016D1009BE7
:10D370009A68069B9B00D21804990B00DB005B1A8D
:10D380009B0027495B181360049BD9B2254A069B72
:10D39000D3180A1C1A70069B01330693009B1B7955
:10D3A0001A00079B9A421ED91D49049A1300DB00FC
:10D3B0009B1A9B00CB181A331B781A0002231340C8
:10D3C00011D1009B1A68079B9B00D21804990B008F
:10D3D000DB005B1A9B0010331900114BCB18136054
:10D3E000079B01330793049B01330493049B012B98
:10D3F00000D875E7079BDAB2009B1A71069BDAB278
:10D40000009B1A730023180008B0704753290020AE
:10D41000088000000E800000242900201829002028
:10D42000AC2800205429002000B585B001901F4B86
:10D430001B7801225340DBB2002B01D01C4B32E0A1
:10D44000019B002B01D11B4B2DE0019B1B78002B76
:10D450000AD1019B1B781900174A0B005B005B186F
:10D460009B009B58002B01D1114B1CE00023039320
:10D470000023029313E01149029A1300DB009B1A68
:10D480009B00CB181A331B78FF2B05D0029B18008A
:10D49000FFF77AF803000393029B01330293029B88
:10D4A000012BE8D9039B180005B000BD53290020CB
:10D4B000088000000E80000024290020AC280020F5
:10D4C00082B00190019B002B01D1094B0CE0019B24
:10D4D000FF221A70019BFF225A70019BFF229A7053
:10D4E000019BFF22DA700023180002B07047C0468B
:10D4F0000E80000000B587B00190019B9B7899B227
:10D5000003AA144B180001F097FD03000593059B37
:10D51000002B1BD1019B5B781A001300DB009B1AC8
:10D520009B000D4A981803A91C231C2201F064FFDC
:10D5300003000593094B9B7A1A00094B9200D358BC
:10D54000019903AA1000984703000593C04607B04D
:10D5500000BDC04630290020E428002024290020F6
:10D56000D84E020010B594B00190FF230C934B23CA
:10D570006B4400221A7000231093D14B1B780122B8
:10D580005340DBB2002B01D000F02AFCCD4B1B68CE
:10D59000002B01D100F026FC0BAB1800FFF790FF29
:10D5A00003001393139B0F930F9B002B05D0C64AC8
:10D5B000C6490F9B180005F02FFB00231193002391
:10D5C0001393019B1A1D08AB5A6008AB2A221A81DB
:10D5D0000BABFF229A700BAB00221A7000230D9345
:10D5E000019B1B88102B1AD0019B9B880DAA02213E
:10D5F0001800FEF715FF03001393139B002B0ED1A9
:10D600000D9AB34913005B009B189B00CB180B339A
:10D610001A780BAB9A700D9BDAB20BAB5A70019B68
:10D620001B88103B422B01D900F0BFFB9A00A94B8D
:10D63000D3181B689F460DAB1800FFF71DF80300B9
:10D640001393139B002B00D0B1E34B236B440122B7
:10D650001A7008AB11221A700D9BDAB20BAB5A701C
:10D660000D9A019B98889A4913005B009B189B00B8
:10D67000CB180833021C1A800D9A954913005B00E1
:10D680009B189B00CB180A3302221A700D9A9049FE
:10D6900013005B009B189B00019A0620CB18111801
:10D6A0000722180006F0CAFC019B5B7D0122134093
:10D6B000DBB2002B15D0019B5B7D1B065B0EDBB242
:10D6C0001A00854B9B5CFF2B14D0019B5B7D1B06D6
:10D6D0005B0EDBB21A00804B9B5C0C930023139310
:10D6E00008E0019B06337D4A0CA91800FEF770FF85
:10D6F00003001393139B002B00D058E30D9A0C9B4F
:10D70000D8B2734913005B009B189B00CB180B33F6
:10D71000021C1A700D9A0D996D480B005B005B1886
:10D720009B00C3180A331B7808210B43D8B2684901
:10D7300013005B009B189B00CB180A33021C1A7065
:10D740000C9BDAB20BAB9A700BAB1800FFF7D2FE52
:10D750002DE30D9A0D995E480B005B005B189B0052
:10D76000C3180A331B7802218B43D8B258491300DF
:10D770005B009B189B00CB180A33021C1A700D9A91
:10D78000534913005B009B189B00CB180A331B788E
:10D790001A000823134011D00D9A4D4913005B0065
:10D7A0009B189B00CB180A331B785BB2002B11DA55
:10D7B0000BAB00211800FEF7ABFF0BE00BAB9B7827
:10D7C000FF2B07D00BAB9B781800FEF7E3FD0BABEC
:10D7D000FF229A700D9A3E4913005B009B189B0034
:10D7E000CB180A3310221A704B236B4401221A7093
:10D7F00008AB12221A70DFE20D9A354913005B0064
:10D800009B189B00CB180B331B78FF2B35D1019B4A
:10D81000DA890CAB19000020FEF7DAFE030013933F
:10D82000139B002B29D10D9A0C9BD8B228491300C9
:10D830005B009B189B00CB180B33021C1A700D9ACF
:10D840000D9923480B005B005B189B00C3180A333B
:10D850001B7808210B43D8B21D4913005B009B18AD
:10D860009B00CB180A33021C1A700C9BDAB20BAB6C
:10D870009A700BAB1800FFF73DFE0D9A1449130088
:10D880005B009B189B00CB180B331B78FF2B07D03A
:10D890000D9A1300DB009B1A9B00114A9B181093F2
:10D8A000019B98880D9A1300DB009B1A9B000D4A80
:10D8B0009A1810990023FEF7E1FC030013937BE212
:10D8C0005329002024290020F84E0200FC09000002
:10D8D00018290020544F020054290020FFFF0000A7
:10D8E000E4280020AC28002008AB13221A700D9AFF
:10D8F0000D99D5480B005B005B189B00C3180A33D9
:10D900001B7804210B43D8B2CF4913005B009B184E
:10D910009B00CB180A33021C1A704B236B44012264
:10D920001A700D9AC84913005B009B189B00CB1816
:10D930000B331B78FF2B28D10D9A13005B009B182B
:10D940009B00C14A9A180CAB11001800FEF7B2FDFB
:10D9500003001393139B002B10D10C9BDAB20BAB7B
:10D960009A700D9A0C9BD8B2B74913005B009B18B4
:10D970009B00CB180B33021C1A702DE0139B1193E4
:10D980004B236B4401221A7026E008AB16221A7052
:10D990000D9A13005B009B18DB0008331A00AB4B99
:10D9A000D3180E220021180006F051FB0D9A0D9994
:10D9B000A5480B005B005B189B00C3180A331B785B
:10D9C00040210B43D8B2A04913005B009B189B0079
:10D9D000CB180A33021C1A7002AB0022DA600D9ACF
:10D9E000994913005B009B189B00CB180B331B78E5
:10D9F0001A001300DB009B1A9B00954A9A1802AB91
:10DA00001A6102AB00225A610D9A1300DB009B1AC7
:10DA10009B00904A9A1802AB1A6002AB00225A602F
:10DA200002AB00229A60019B988802AB8A4A0021CF
:10DA3000FEF720FC03001393139B002B00D1B8E1E9
:10DA4000139B11934B236B4400221A70B1E1834B5B
:10DA50005B7A01229343DAB2804B5A720D9A0D9988
:10DA600079480B005B005B189B00C3180A331B78D6
:10DA700004218B43D8B2744913005B009B189B00B0
:10DA8000CB180A33021C1A7008AB14221A704B23ED
:10DA90006B4401221A70019B9B79002B11D00D9AC7
:10DAA000694913005B009B189B00CB180B331B7854
:10DAB0001800FEF769FD03000E93019B9B791193FB
:10DAC00079E1019BDB7904221340DBB2002B00D10A
:10DAD00071E10BAB9B78FF2B00D16CE10D9A0D9996
:10DAE00059480B005B005B189B00C3180A331B7876
:10DAF00008210B43D8B2544913005B009B189B00CC
:10DB0000CB180A33021C1A70019BDB7A02221340E5
:10DB1000DBB2002B19D00BAB9B7819000BAB9B78B9
:10DB200018004B4A0300DB001B1A9B00D3181A3362
:10DB30001B7801229343D8B2454A0B00DB005B1AE5
:10DB40009B00D3181A33021C1A700D9A3E49130019
:10DB50005B009B189B00CB180B331B78FF2B00D16D
:10DB600029E10D9A384913005B009B189B005B5C10
:10DB7000022B33D00BAB9B781C000D9A344910203C
:10DB80002300DB001B1B9B00CB1818182E49130029
:10DB90005B009B189B000200CB18196811609988E4
:10DBA00091809B7993710BAB9B7819000BAB9B78A1
:10DBB0001800274A0300DB001B1A9B00D3181A33F6
:10DBC0001B7802229343D8B2214A0B00DB005B1A78
:10DBD0009B00D3181A33021C1A702EE00BAB9B78F3
:10DBE00018000D9A1B491300DB009B1A9B00CB18F1
:10DBF00012331988164A0300DB001B1A9B00D31846
:10DC000018330A1C1A800BAB9B7819000BAB9B785E
:10DC100018000F4A0300DB001B1A9B00D3181A33AD
:10DC20001B7801229343D8B2094A0B00DB005B1A30
:10DC30009B00D3181A33021C1A700BAB0121180079
:10DC4000FEF766FDB7E0C046182900200029002035
:10DC5000AC280020E42800202829002024290020C6
:10DC6000019B9B790F229343DBB2102B58D1019B70
:10DC70009B790F221340DBB2012B51D10D9A5B49E6
:10DC800013005B009B189B00CB180A331B781A000B
:10DC90000823134044D00D9A13005B009B18DB004F
:10DCA00008331A00524BD3180E220021180006F038
:10DCB000CEF908AB16221A700D9A0D994B480B003D
:10DCC0005B005B189B00C3180A331B7820210B43B1
:10DCD000D8B2464913005B009B189B00CB180A334F
:10DCE000021C1A700D9A0D9940480B005B005B18DE
:10DCF0009B00C3180A331B7840210B43D8B23B4921
:10DD000013005B009B189B00CB180A33021C1A708F
:10DD1000384B5B7A02221343DAB2364B5A7229E04F
:10DD20000D9A0D9931480B005B005B189B00C318DE
:10DD30000A331B78802149420B43D8B22B49130088
:10DD40005B009B189B00CB180A33021C1A7008ABAF
:10DD500015221A70274B9B7A1A00274B9200D35832
:10DD60000BAA1000984703001393139B002B01D0BC
:10DD7000224B1193002311934B236B4401221A7001
:10DD80001AE01C4B9B7A1A001B4B9200D3580BAA2B
:10DD900010009847030011930EE008AB13221A708D
:10DDA0004B236B4401221A7006E0C04604E0C046D3
:10DDB00002E0C04600E0C0464B236B441B78002BBA
:10DDC00011D0119A08A90BAB1800FEF743FC08AB61
:10DDD0001B78122B07D10DAB1800FEF771FC02E087
:10DDE000C04600E0C04614B010BDC046182900204F
:10DDF0000029002024290020E84E02004180000074
:10DE000084B0020000916B4606331A80009B002B01
:10DE100001D1224B3FE0009B1B78002B0AD1009BD5
:10DE20001B7819001E4A0B005B005B189B009B5877
:10DE3000002B01D11B4B2EE0009BFF229A70052383
:10DE400003930023029322E01749029A13005B0018
:10DE50009B189B00CB1808331B886A460632128831
:10DE60009A4211D1029BDAB2009B5A700E49029A73
:10DE700013005B009B189B00CB180B331A78009B98
:10DE80009A700023039305E0029B01330293029BE7
:10DE9000002BD9D0039B180004B070470E800000FF
:10DEA0002429002008800000182900204DDF704739
:10DEB000C046180000B595B003900291019200236E
:10DEC00013930DE0139B0F22D31A039AD3181978DA
:10DED00005AA139BD3180A1C1A70139B01331393C2
:10DEE000139B0F2BEED905AB10330D220021180028
:10DEF00006F0ADF8002312930DE0129B0F22D31A07
:10DF00000299129A8A18117805AAD3180A1C1A7451
:10DF1000129B01331293129B022BEED905AB180012
:10DF2000FFF7C4FF002311930EE0019A119BD31851
:10DF3000119A0F218A1A05A920208A18121812781E
:10DF40001A70119B01331193119B022BEDD9C0461E
:10DF500015B000BD00B587B001900091019B1B7802
:10DF6000022B01D000231DE0019B591C05AB0322AD
:10DF7000180006F063F8019B191D03AB032218007B
:10DF800006F05CF8009B04AA03A91800FFF792FFB3
:10DF900004A905AB0322180006F041F803005A4219
:10DFA0005341DBB2180007B000BDC04680235B05BB
:10DFB0001B699BB21800704700B583B00A4B5B69C0
:10DFC0000193019B013308D0FFF7F0FF0300190014
:10DFD000019806F0C5FB030002E080235B055B6946
:10DFE000180003B000BDC0460010001029DF7047C4
:10DFF000C046180028DF7047C046180082B0019064
:10E00000019B032213405A425341DBB2180002B075
:10E010007047C04610B50D4B1B78180000F04AFA47
:10E020000A4B5B78013BDAB2084B5A70074B1B78FE
:10E030000133DAB2054B1A70044B1B78022B02D164
:10E04000024B00221A70C04610BDC046582900205D
:10E0500010B50A4B1B781A0013009B009B189B00FD
:10E06000064A9B1804331900002000F0FDFAFFF760
:10E07000D1FF002000F04AF9C04610BD5829002009
:10E0800010B5054B00221A60044B00221A6000F004
:10E09000DFFAC04610BDC0469C290020AC290020F4
:10E0A00000B583B001900A4B1B781A0013009B0047
:10E0B0009B189B00064A9B181A1D019B1100180013
:10E0C00000F0D2FA042000F021F9C04603B000BDF0
:10E0D0005829002000B583B00190019B002B0DD082
:10E0E000112B06D1074B1B6808221A43054B1A60F7
:10E0F00005E0019B1800FFF7D3FF00E0C046C046D3
:10E1000003B000BDB429002000B585B00390029192
:10E110000192019A0299039B1800FFF767FF030021
:10E120001800FFF7D7FFC04605B000BD30B583B07B
:10E13000264B1B781A0013009B009B189B00234A58
:10E140009B1804330193019B5C88FFF72FFF0300AA
:10E150009C4224D9019B5B881C00FFF727FF03002A
:10E16000E31A0093019BDB68019A92889A18009B3E
:10E17000D3181D00019B1A69009BD418FFF716FFE6
:10E1800003009B089BB21A0021002800FFF7BCFF88
:10E19000FFF70CFF03001A000D4B1A6013E0019B00
:10E1A000DB68019A92889B181800019B1969019BF2
:10E1B0005B889B089BB21A00FFF7A6FF019B5B8858
:10E1C0001A00034B1A60C04603B030BD5829002026
:10E1D000AC29002010B5FFF7A9FFC04610BDC0460E
:10E1E00010B584B02A4B1B68012293431A00284BB8
:10E1F0001A60284B1B781A0013009B009B189B0089
:10E20000244A9B1804330393039BDB680293FFF7B4
:10E21000CDFE03001900029806F0A2FA0300019354
:10E220001D4B019A1A60039B5B881A00029BD3184E
:10E230005C1EFFF7BBFE03001900200006F090FAF9
:10E2400003000093019A009B9A4206D1104B1B6871
:10E2500002221A430E4B1A6006E00D4B1B68022285
:10E2600093431A000A4B1A600C4B1B68002B08D111
:10E27000074B1B680222134003D1022000F008F96B
:10E2800002E0002000F004F9C04604B010BDC04612
:10E29000B429002058290020982900209029002026
:10E2A00000B583B00190019B1800FFF7A3FE0300A7
:10E2B0001800FFF70FFFC04603B000BD10B5034BB9
:10E2C0001B681800FFF7ECFFC04610BD982900201E
:10E2D00010B50D4B1B78012B0BD002DC002B05D0A9
:10E2E00010E0022B08D0032B09D00BE0FFF7C8FE8B
:10E2F00008E0FFF76FFF05E0FFF772FF02E0FFF7AE
:10E30000DDFFC046C04610BD8C29002000B583B09B
:10E3100002006B4607331A70044B6A4607321278C4
:10E320001A70FFF7D5FFC04603B000BD8C2900204E
:10E3300010B5FFF741FE03005C1EFFF737FE030038
:10E340005C43FFF733FE03001900200006F008FAD3
:10E3500003001800FFF7A4FFC04610BD70B5FFF71B
:10E360002BFE03005C1EFFF721FE030063431C002D
:10E37000FFF71CFE03001A00074B1B6853431D00E8
:10E38000FFF714FE03009B089BB21A00290020002F
:10E39000FFF7BAFEC04670BD9829002010B5034BA8
:10E3A0001B681800FFF77CFFC04610BD98290020AD
:10E3B00030B585B01E4B1B781A0013009B009B18CC
:10E3C0009B001B4A9B1804330393039BDB68029357
:10E3D000039B5B881A00029BD318039A92889C18AF
:10E3E000FFF7E4FD03001900200006F03FFA0B00E0
:10E3F0000193039B5B881A00029BD318039A9288AF
:10E400009B181D00FFF7D8FD03005C1EFFF7CEFD33
:10E41000030063431A00019BD3181900054B1B68C6
:10E420001A002800FFF770FEC04605B030BDC04698
:10E43000582900209429002070B50C4B1B685C1EE5
:10E44000FFF7B4FD030063431D00FFF7B5FD0300B4
:10E450005C1EFFF7ABFD030063431900044B1B6810
:10E460001A002800FFF750FEC04670BD9829002012
:10E470009029002010B5044B1B781A00034B920022
:10E48000D3589847C04610BD8D2900206050020027
:10E4900000B583B002006B4607331A70044B6A461E
:10E4A000073212781A70FFF7E5FFC04603B000BDCF
:10E4B0008D29002082B001901F49019A13009B0012
:10E4C0009B189B00CB18043300221A701A49019A3A
:10E4D00013009B009B189B00CB18063300221A8068
:10E4E0001549019A13009B009B189B00CB180C3315
:10E4F00001221A601049019A13009B009B189B008F
:10E50000CB18103300221A600B49019A13009B00AC
:10E510009B189B00CB18143300221A600649019AFD
:10E5200013009B009B189B00CB18083300221A8015
:10E53000C04602B07047C0465829002000B583B0DD
:10E540000A4B00221A70094B00225A7000230193D3
:10E5500006E0019B1800FFF7ADFF019B013301931B
:10E56000019B012BF5D9C04603B000BD58290020FE
:10E5700000B587B00291019219000F236B44021C71
:10E580001A7003AB0A1C1A802F4B5B78022B54D0F5
:10E590002D4B1B781A002C4B5B78D3180493049BEB
:10E5A000012B02D9049B023B04932749049A1300D0
:10E5B0009B009B189B00CB1804330F226A441278EF
:10E5C0001A702149049A13009B009B189B00CB18DA
:10E5D0001433019A1A601C49049A082013009B0006
:10E5E0009B189B00CB181B18029A043303CA03C361
:10E5F0001549049A13009B009B189B00CB18063307
:10E6000003AA12881A801049049A13009B009B18D1
:10E610009B00CB18083308AA12881A800A4B5B7833
:10E620000133DAB2084B5A70084B1B78002B01D12A
:10E6300000F0B6FB0023059301E004230593059B3E
:10E64000180007B000BDC046582900208C290020C2
:10E6500010B5044B5B78002B01D000F0A1FBC04645
:10E6600010BDC0465829002070B586B003900291B5
:10E6700017236B44029A12781A70029B9A680D490C
:10E6800013005B009B189B005B580493029B0833AC
:10E690001800029B1E69084B1B68039D17226A44E1
:10E6A00011780093049C33002A00A047C04606B0AE
:10E6B00070BDC046A0290020B029002010B584B04C
:10E6C0001B4B1B781A0013009B009B189B00184AD9
:10E6D0009B1804330293029BDB680193029B5B88C7
:10E6E0001A00019BD318029A92889B185C1EFFF7B0
:10E6F0005DFC03001900200006F032F803000093CF
:10E700000C4B1B68002B09D00B4B1A68009B9A42DC
:10E7100004D10F236B4401221A7003E00F236B44D2
:10E7200000221A700F236B441B78180004B010BD30
:10E7300058290020942900209829002000B583B092
:10E740000B4B1B781A0013009B009B189B00084A78
:10E750009B1804330193019B1B78042B02D0FFF715
:10E7600077FC01E000F010FBC04603B000BDC046DE
:10E770005829002010B5FFF7E1FFC04610BDC04684
:10E7800010B584B01E4B1B781A0013009B009B1819
:10E790009B001B4A9B1804330293029BDB68019386
:10E7A000029B5B881A00019BD318029A92889B18DF
:10E7B0005C1EFFF7FBFB03001900200005F0D0FFF3
:10E7C000030000930F4B1A68009B9A4208D30D4B2D
:10E7D0001A68009B9A4208D10B4B1B68002B04D18E
:10E7E0000F236B4401221A7003E00F236B440022B5
:10E7F0001A700F236B441B78180004B010BDC0467C
:10E8000058290020982900209429002010B5074B92
:10E810001B68082293431A00044B1A60044B1B78B0
:10E820001800FFF735FEC04610BDC046B4290020D1
:10E830008D29002010B5184B1B680822134026D1E3
:10E84000FFF73CFF031E0CD0144B00221A60124B42
:10E850001B6801221A43104B1A600020FFF718FEB4
:10E8600017E0FFF78DFF031E06D00C4B00221A6045
:10E870000220FFF70DFE0CE0094B1B68002B03D0B4
:10E880000320FFF705FE04E0FFF774FF01E0FFF748
:10E89000BDFFC04610BDC046B4290020902900200D
:10E8A0009429002010B5064B1B680822134002D1A2
:10E8B000FFF760FF01E0FFF7A9FFC04610BDC046AB
:10E8C000B429002010B51C4B1B68082213402ED120
:10E8D0001A4B1B685A1C194B1A60194B1B68002BEA
:10E8E00003D00420FFF7D4FD23E0FFF749FF031E08
:10E8F00003D00220FFF7CCFD1BE0124B1B68002B5E
:10E9000012D00D4B1B680122134009D10A4B1B6822
:10E9100001221A43084B1A600020FFF7B9FD08E0F6
:10E920000320FFF7B5FD04E0FFF724FF01E0FFF748
:10E930006DFFC04610BDC046B429002098290020B4
:10E94000902900209429002010B50C4B1B68082248
:10E9500013400ED1094B1B680222134005D0074B10
:10E960001B6801221A43054B1A600220FFF790FD35
:10E9700001E0FFF74BFFC04610BDC046B4290020A0
:10E9800010B5064B1B680822134003D10120FFF786
:10E990007FFD01E0FFF73AFFC04610BDB42900201B
:10E9A00010B5044B1B781A00034B9200D3589847BC
:10E9B000C04610BD8D2900207450020010B5074BD1
:10E9C0001B68082293431A00044B1A60044B1B78FF
:10E9D0001800FFF79BFCC04610BDC046B4290020BC
:10E9E0008C29002010B5104B1B680822134016D14B
:10E9F0000E4B1B685A1C0D4B1A60FFF7C1FE03003B
:10EA00001A0001235340DBB2002B02D0FFF796FE21
:10EA100007E0074B1B781800FFF778FC01E0FFF7D1
:10EA2000CDFFC04610BDC046B42900209829002063
:10EA30008C29002000B583B0134B1B6808221340BB
:10EA40001DD1124B1B781A0013009B009B189B00D2
:10EA50000E4A9B1804330193019B5A880C4B1B6888
:10EA60009BB2D31A9AB2019B5A80019B5B88002B00
:10EA700002D1FFF7EDFA04E0FFF758FB01E0FFF7E2
:10EA80009DFFC04603B000BDB429002058290020D6
:10EA9000AC29002010B50A4B1B78022B0AD0032B9F
:10EAA00005D0012B00D008E0FFF7C4FF05E0FFF719
:10EAB00099FF02E0FFF774FFC046C04610BDC04694
:10EAC0008C29002010B50F4B1B685A1C0D4B1A6087
:10EAD0000C4B1B68032B0FD00B4B1B78022B05D064
:10EAE000094B1B781800FFF711FC08E0074B1B7857
:10EAF0001800FFF7CDFC02E00D20FFF7D1FAC04669
:10EB000010BDC0469C2900208C2900208D290020A2
:10EB100000B583B001900F4B1B78002B17D00D4B25
:10EB20001B78042B13D0019B022B02D0032B03D0A4
:10EB30000DE0FFF7AFFF0AE0074B1B680822134008
:10EB400002D1FFF7BFFF01E0FFF7A4FFC046C046B8
:10EB500003B000BD8C290020B429002010B584B07A
:10EB600002006B4606331A8001AB0A1C1A80FFF7BD
:10EB70001DFA03001A0001AB1B881100180005F0F4
:10EB8000EFFD03009BB20393FFF710FA03001A0096
:10EB90006B4606331B881100180005F0E1FD0300E9
:10EBA0009BB20293039A029B9A4209D101AB1A8845
:10EBB0006B4606331B88D31A9A080D4B1A6014E073
:10EBC000FFF7F4F903001C00FFF7F0F903001A0047
:10EBD0006B4606331B881100180005F047FE0B003A
:10EBE0009BB2E31A9A08024B1A60C04604B010BDEB
:10EBF0009429002010B588B05E4B1B781A001300D2
:10EC00009B009B189B005B4A9B1804330793079B50
:10EC1000DB680693079B9A681621694456481300DF
:10EC20005B009B189B00C31808331B880B80079B55
:10EC30009A6805A9504813005B009B189B00C318F5
:10EC40000A331B880B80079B9A684B4913005B00B3
:10EC50009B189B00CB1804331B680493FFF7A6F99D
:10EC600003001A00069B1100180005F0FFFD0B00C1
:10EC70001A000F236B4451424A411A7016236B4409
:10EC80001B8805AA128853431A00049BD3180293C9
:10EC9000079B5B881A00069BD318079A92889B18DB
:10ECA0000193364B00221A600F236B441B78002B14
:10ECB00006D0079B5C88FFF779F903009C4210D0CF
:10ECC0000F236B441B78002B07D0019A029B9A42BA
:10ECD00003D1079B9B88002B03D0079B9B68022BCB
:10ECE0000ED1FFF763F903001900069805F038FD0F
:10ECF00003001A00224B1A600320FFF707FB36E0DF
:10ED0000079B9B881A00069BD418FFF74FF9030056
:10ED10001900200005F0AAFD0B009A08194B1A6093
:10ED2000FFF744F903001A00019B1100180005F0D9
:10ED30009DFD0B001A006B46033351424A411A7085
:10ED4000019A029B9A420FD06B4603331B78012233
:10ED50005340DBB2002B07D0019B9BB2029A92B2C8
:10ED600011001800FFF7FAFE0220FFF7CFFAC046A5
:10ED700008B010BD58290020A029002094290020A7
:10ED8000982900209029002010B50120FFF7BEFA35
:10ED9000C04610BD10B5FFF72DFFC04610BDC046E0
:10EDA00000B583B0124B1B781A0013009B009B1810
:10EDB0009B000F4A9B1804330193019B5B881A0048
:10EDC0000C4B1A60019B1B78032B07D0042B08D037
:10EDD000012B00D008E0FFF7D7FF05E0FFF70AFF9F
:10EDE00002E0FFF7D7FFC046C04603B000BDC046F3
:10EDF00058290020B029002010B582B0FFF79EFBF3
:10EE0000254B00221A80FFF7D7F803009C1EFFF75E
:10EE1000CDF8030063431A00204B1A60204B0022F8
:10EE20001A60002301931EE01E49019A13005B0043
:10EE30009B189B0000225A501A49019A13005B004C
:10EE40009B189B00CB18083300221A801549019AA1
:10EE500013005B009B189B00CB180A3300221A801A
:10EE6000019B01330193019B002BDDD00E4B00224F
:10EE70001A700E4B00221A600D4B00221A600D4BC7
:10EE800000221A600A4B1B6804221A43084B1A60BE
:10EE90000023180002B010BD84290020882900201A
:10EEA00098290020A02900208C2900209C290020DE
:10EEB000B4290020AC29002030B585B00190009124
:10EEC000594B1B680422134001D10823A9E0019B80
:10EED000002B01D10E23A4E0009B002B01D10E23B7
:10EEE0009FE0019B1B68002B01D10E2399E0019B41
:10EEF0009C88FFF75BF803009C4203D8019B9B882A
:10EF00000F2B01D807238CE0019BDB88002B13D04B
:10EF1000019BDB881A00019B9B8853431A00434BDB
:10EF20001B68D418FFF748F803005D1EFFF73EF892
:10EF300003006B439C4201D9072372E0019B9B882D
:10EF4000032213409BB2002B01D0072369E0384B0A
:10EF50001B88012B01D1042363E0354B1B881A0069
:10EF6000009B1A60314B1A68009B5A60304B1B881B
:10EF70001800009B5A682F4903005B001B189B0078
:10EF8000CB1804331A602A4B1B881800019B1968A0
:10EF9000284A03005B001B189B009950244B1B88D8
:10EFA0001900019B9888234A0B005B005B189B00AB
:10EFB000D3180833021C1A801D4B1B881900019BB3
:10EFC000D8881C4A0B005B005B189B00D3180A33DF
:10EFD000021C1A80019B9B881A00019BDB8853430B
:10EFE0001C00FEF7E3FF0300E3185C1EFEF7DEFFE4
:10EFF00003001900200005F03DFC03000393FEF719
:10F00000D5FF03001A00039B5A43084B1B68D21814
:10F01000064B1A60064B1B8801339AB2044B1A80C8
:10F020000023180005B030BDB42900208829002035
:10F0300084290020A029002030B587B003900192D8
:10F040000A236B440A1C1A80334B1B6804221340AA
:10F0500001D108235CE0039B002B01D10E2357E074
:10F06000019B002B01D10E2352E0039B1B68002B58
:10F0700009D1039B1A68294913005B009B189B0068
:10F080005B58002B01D1072342E004AB039A03CA6B
:10F0900003C304AB59680A236B441888039B1A689E
:10F0A0001E4C13005B009B189B00E31808331B8861
:10F0B0004343CA1804AB5A6004AB596804AB1A68DE
:10F0C000164813005B009B189B00C3180433186894
:10F0D00004AB1A68114C13005B009B189B00E318EB
:10F0E0000A331B881D0004AB1A680C4C13005B002C
:10F0F0009B189B00E31808331B886B43C318994285
:10F1000001D3072304E0019B04AA03CA03C300231D
:10F11000180007B030BDC046B4290020A029002047
:10F1200030B587B00590049119000E236B441A8006
:10F1300003AB0A1C1A80534B1B680422134001D1F5
:10F1400008239CE0049B002B01D10E2397E0059B34
:10F15000002B01D10E2392E0059B1B68002B09D1E7
:10F16000059B1A68484913005B009B189B005B587D
:10F17000002B01D1072382E0059B5968059B1A6883
:10F18000414813005B009B189B00C31804331868A8
:10F19000059B1A683C4C13005B009B189B00E3180E
:10F1A0000A331B881D00059B1A68374C13005B004F
:10F1B0009B189B00E31808331B886B43C3189942C4
:10F1C00001D307235BE00E236B441B88002B0ED07A
:10F1D000059B1A682C4913005B009B189B00CB18F9
:10F1E00008331B880E226A4412889A4201D90723E9
:10F1F00045E00E236B441A8803AB1B88D118059B8E
:10F200001A68214813005B009B189B00C318083341
:10F210001B88994201DD072331E0049B1800FEF7AB
:10F22000EDFE03001A0001235340DBB2002B17D17F
:10F2300003AB1B881800FEF7E1FE03001A00012350
:10F240005340DBB2002B0BD1059B5B681800FEF727
:10F25000D5FE03001A0001235340DBB2002B01D07E
:10F2600010230CE00E236B441888049A059903AB15
:10F270001B88009303000120FFF77AF903001800B0
:10F2800007B030BDB4290020A029002030B587B0D8
:10F290000590049119000E236B441A8003AB0A1CDD
:10F2A0001A80534B1B680422134001D108239CE0B1
:10F2B000049B002B01D10E2397E0059B002B01D16D
:10F2C0000E2392E0059B1B68002B09D1059B1A6851
:10F2D000484913005B009B189B005B58002B01D131
:10F2E000072382E0059B5968059B1A684148130073
:10F2F0005B009B189B00C31804331868059B1A68B1
:10F300003C4C13005B009B189B00E3180A331B88DE
:10F310001D00059B1A68374C13005B009B189B006F
:10F32000E31808331B886B43C318994201D30723A2
:10F330005BE00E236B441B88002B0ED0059B1A68E4
:10F340002C4913005B009B189B00CB1808331B88CB
:10F350000E226A4412889A4201D9072345E00E23FF
:10F360006B441A8803AB1B88D118059B1A68214887
:10F3700013005B009B189B00C31808331B8899423D
:10F3800001DD072331E0049B1800FEF737FE030080
:10F390001A0001235340DBB2002B17D103AB1B88AB
:10F3A0001800FEF72BFE03001A0001235340DBB2C6
:10F3B000002B0BD1059B5B681800FEF71FFE0300B6
:10F3C0001A0001235340DBB2002B01D010230CE0C4
:10F3D0000E236B441888049A059903AB1B8800938D
:10F3E00003000420FFF7C4F80300180007B030BD85
:10F3F000B4290020A029002030B587B005900491E1
:10F4000019000E236B441A8003AB0A1C1A805D4B53
:10F410001B680422134001D10823AFE0049B002B9A
:10F4200001D10E23AAE0059B002B01D10E23A5E0FC
:10F43000049B1B68002B09D1049B1A6852491300D6
:10F440005B009B189B005B58002B01D1072395E0C4
:10F45000049B5968049B1A684B4813005B009B1877
:10F460009B00C31804331868049B1A68464C1300A9
:10F470005B009B189B00E3180A331B881D00049B4C
:10F480001A68414C13005B009B189B00E31808337B
:10F490001B886B43C318994201D307236EE00E23E8
:10F4A0006B441B88002B0ED0049B1A68364913004E
:10F4B0005B009B189B00CB1808331B880E226A4404
:10F4C00012889A4201D9072358E00E236B441A8808
:10F4D00003AB1B88D118049B1A682B4813005B00F0
:10F4E0009B189B00C31808331B88994201DD072332
:10F4F00044E0059B1800FEF781FD03001A0001237C
:10F500005340DBB2002B17D103AB1B881800FEF76A
:10F5100075FD03001A0001235340DBB2002B0BD111
:10F52000049B5B681800FEF769FD03001A000123C5
:10F530005340DBB2002B01D010231FE003AB1A882D
:10F54000049B5B68D31819000E236B441A88059B33
:10F55000180004F073FD049B1A680B4913005B004C
:10F560009B189B005C580E236B441B88059A0498DB
:10F570000093130000220221A0470023180007B0C7
:10F5800030BDC046B4290020A029002030B589B084
:10F5900003900A000A236B441A80654B1B680422FF
:10F5A000134001D10823C0E0039B002B01D10E239F
:10F5B000BBE0039B1B68002B09D1039B1A685D49C4
:10F5C00013005B009B189B005B58002B01D10723A5
:10F5D000ABE0039B5968039B1A68564813005B0015
:10F5E0009B189B00C31804331868039B1A68514C7E
:10F5F00013005B009B189B00E3180A331B881D0057
:10F60000039B1A684B4C13005B009B189B00E3188C
:10F6100008331B886B43C318994201D3072384E046
:10F62000039B5B681800FEF7E9FC03001A00012346
:10F630005340DBB2002B01D0102376E0039B5968C6
:10F64000039B1A683B4813005B009B189B00C31880
:10F6500004331B68C81A039B1A68364913005B0001
:10F660009B189B00CB1808331B88190005F0FEF887
:10F670000B1E01D0072358E0039B1A682D49130085
:10F680005B009B189B00CB1808331A880A236B4435
:10F690001B881100180005F0E9F80B009BB2002B45
:10F6A00004D10A236B441B88002B01D107233CE0C3
:10F6B000039B1A681F4913005B009B189B00CB1823
:10F6C00008331B881800039B1A681A4913005B0053
:10F6D0009B189B00CB180A331B8843430793039B5B
:10F6E0005A680A236B441B88D3180693039B1A6835
:10F6F000104913005B009B189B00CB1804331A6859
:10F70000079BD3180593069A059B9A4201D90723B4
:10F710000BE00A236B441A8803990023009313001B
:10F7200000220320FEF724FF0300180009B030BDBB
:10F73000B4290020A02900202EDF704751DF704738
:10F7400010DF704711DF704761DF704710B50800A8
:10F75000110003F05FFA10BDF0B5274B85B01B78A0
:10F76000002B47D0254D264E2B6834685A42534112
:10F77000DBB2009363425C41E4B2009B002B37D1C3
:10F7800003A8FFF7DBFF05280AD0002804D00022D9
:10F79000110003F041FA05E003982B68984701E057
:10F7A00001230093002C1FD1164B03A91B880124B1
:10F7B0000B80154B1B6818000193FFF7C5FF07006E
:10F7C00005280BD0002805D00022110003F024FAF0
:10F7D000002403E00198336898473C00009B002B0D
:10F7E000CED0002CC9D005E0009B002BC8D001E092
:10F7F000002CD9D005B0F0BDB8290020C0290020C8
:10F80000C4290020BA290020BC29002070B50400BA
:10F810000720002913D08D0711D10948016009493B
:10F8200020000A80084A09491360FFF789FF002871
:10F8300005D10122064B16301A70FFF77DFF70BD0F
:10F84000BC290020BA290020C82900204DF701005A
:10F85000B829002010B5FFF775FF03005A1E934129
:10F86000014ADBB2137010BDB82900200E23002816
:10F8700002D0024B1860002318007047C4290020F2
:10F880000E23002802D0024B186000231800704796
:10F89000C0290020074B10B51B68002B07D09847E4
:10F8A000002806D00022110003F0B6F901E0FFF7AE
:10F8B00053FF10BDC829002010B50368002B01D0EC
:10F8C0000800984710BDF7B501920400C07F1E00E4
:10F8D000C3180F0001251D2B1ADC71192A002018EE
:10F8E00004F0B5FBE07F2A004019C0B2E077390090
:10F8F000201804F0ACFBE07F320040190025C0B2B4
:10F90000E0770199201804F099FBE37FF618E67779
:10F910002800FEBDF7B5040000250192C77FAF4265
:10F9200055D966197078884202D1002E05D14EE073
:10F93000605D01302D18EDB2F1E7152921D80122C3
:10F940008A40264802421CD0D91901201F2944DCD4
:10F95000E1193718B94210D80021C8B2834205D93D
:10F96000019A7018575C01318770F6E7625D9A184A
:10F970006255E27F9B18E3772EE00878C85401397E
:10F98000E8E7655D013DEDB2AB4209D10021C8B2A7
:10F99000834221D9019A7018545C01318470F6E7D2
:10F9A0007F1BFF1801201F2F17DCA81C3618022010
:10F9B0004042401BE77FE219964203D23778375422
:10F9C0000136F7E702204042451B7D19E577019A91
:10F9D0002000FFF778FF00E00020FEBDFC002000C3
:10F9E00070B506008AB00A360C00222231000500EC
:10F9F00001A804F023FB6B46DA1C012301A81900BF
:10FA00001470FFF787FF041E0DD12A002B683432D3
:10FA10009B6F01A928009847041E04D1222201A946
:10FA2000300004F00BFB20000AB070BDF0B5037984
:10FA300091B0002B71D106681022394903A804F057
:10FA4000FDFA202003F0AAFD4C2383804A3B8371FA
:10FA50001333C37104000660324B5BBA0383D123B6
:10FA60001B015BBA4383C823071D0377102203A938
:10FA7000381D04F0E3FA206800F004F90621FFF7CE
:10FA8000AFFF206800F0FEF803000A3319002222BD
:10FA9000050007A8019304F0D1FA19233A00FF21C9
:10FAA00007A8FFF737FF00280DD12A002B68343252
:10FAB0009B6F07A928009847002804D1222207A994
:10FAC000019804F0BBFA206800F0DCF8032303710E
:10FAD000300000F0D7F80368FA259B6804009847C7
:10FAE000AD0003002800AB4203D9236820009B68C7
:10FAF00098470D49684304F033FEE080300000F081
:10FB0000C1F80368011DDB6F04009847002804D189
:10FB10000122583423781343237011B0F0BDC0463E
:10FB200088500200620400007102000030B58BB002
:10FB300000210C22684604F08AFA0C4B05A90093B8
:10FB40006C460B0025CC25C3094B0A4CCB60002327
:10FB500020000B6100F020F8200000F083F800285E
:10FB6000FAD0200000F09EF8FBE7C0462DFA010015
:10FB7000B9F80100CC29002010B50021014800F09F
:10FB800023F810BDCC290020704710B50368002B66
:10FB900001D00800984710BD02000B00F0B51268B4
:10FBA00089B0019203AA15001E00406801688968A7
:10FBB0008C4692CE92C5DB680199D3600023136115
:10FBC000E04709B0F0BD000070B5040000252160D9
:10FBD0000E0045600C220830290004F038FA094B69
:10FBE000A5616361AE420AD1074D2B68002B02D19B
:10FBF00002F082FC286023689B00EB5863602000C1
:10FC000070BDC0468BFB0100082A002070B500289B
:10FC10000DD1114C2668002E07D11C3003F0BEFC1C
:10FC200005003100FFF7D0FF2560206812E00126B3
:10FC30000A4D0B4C2B6833420BD1280003F078FCA3
:10FC4000002806D031002000FFF7BEFF280003F097
:10FC50008BFC200070BDC046E82900200C2A002043
:10FC6000EC290020436810B50400002B02D10448A1
:10FC700003F004FF60680368DB68984710BDC04666
:10FC8000C6500200436810B50400002B02D104489E
:10FC900003F0F4FE606803689B69984710BDC04696
:10FCA000C6500200436810B50400002B02D104487E
:10FCB00003F0E4FE606803685B6B984710BDC046C4
:10FCC000C6500200030007B59A680830002A06D023
:10FCD000034A002A03D0019301A95B69984707BD35
:10FCE00089FB0100704710B50800FFF78FFFFFF791
:10FCF000E9FF10BDF7B5FA26B6007143009308ABD3
:10FD00001B780400080015491700019304F028FD32
:10FD100085B2300025807843104904F021FD6B4600
:10FD20001B8880B2A3806B461B796080A371032D72
:10FD300001D80423238080232288DB019A4200D942
:10FD40002380032801D80422628062889A4202D963
:10FD50008023DB0163802000FEBDC04671020000ED
:10FD600010B50B68984710BD10B50400044B036034
:10FD700003F098FD200003F00DFE200010BDC046EA
:10FD8000D056020010B50400FFF7EEFF200003F08C
:10FD900011FC200010BD000013B50422019101A93F
:10FDA000040004F04BF9019B034A591E8B415B424E
:10FDB0001A40E26013BDC04661FD010010B5084C59
:10FDC000200003F0C3FD2000064B18300021236003
:10FDD000FFF7E2FF044A0549200004F0AFF810BD28
:10FDE000102A0020D05602000028002069FD0100E2
:10FDF00093DF704710B50368002B01D008009847C7
:10FE000010BD10B50368002B01D00800984710BD45
:10FE100003680A6870B505000C0093422BD1037982
:10FE2000002B0CD10B79002B25D1C28ACB8A9A42A8
:10FE300021D12B7E227E53405B060DD01BE0012B8F
:10FE400019D10B79012B16D105310530102204F0A0
:10FE5000E6F80028EDD00EE06A8B638B9A420AD157
:10FE6000EB69E269934206D12B8C208C181A42422E
:10FE70004241D0B200E0002070BDF8B504000D0092
:10FE8000222204F0DBF82A0023002432243343CA60
:10FE900043C32B6B00212363230061633833083293
:10FEA000C1CAC1C36B6C20006364A164F8BD70B5A6
:10FEB00006000D000400E43629002000FFF7A8FF2B
:10FEC000002802D14C34B442F6D170BD70B50D009B
:10FED00004000B68102203600B790371CB8A053193
:10FEE000C382053004F0AAF82B7E200023766B8BAA
:10FEF0006383AB8BA383EB8BE3832B8C238470BD59
:10FF000007B501AB198019005A80FFF771FF032371
:10FF100010280CD003D80023984208D006E005230F
:10FF2000112804D0034A013B904200D00B23180053
:10FF30000EBDC046023000000023010070B5040071
:10FF400003600371421D15311370013200258A428E
:10FF5000FAD120002900E58225766583A583E58313
:10FF600025840C22243004F072F82000064B6563CF
:10FF7000236329000C22383004F069F8034BA56490
:10FF80002000636470BDC046F5FD010003FE010062
:10FF900010B50400FFF7D0FF20004C30FFF7CCFF76
:10FFA00020009830FFF7C8FF200010BDF8B504000E
:10FFB00016001D00FFF78AFF23003200243383CA96
:10FFC00083C3F3680022236323002900626338336C
:10FFD000C1C9C1C3EB6820006364A264F8BD70B5F9
:10FFE0008AB004000190038C0E000168132003AD59
:10FFF000AB8013780391AB71538A511C6844102273
:020000022000DC
:100000002B8304F01BF820006E8302952430236BB1
:1000100001A998470AB070BD07B503006A46009071
:10002000117138305B6C6946984707BDF0B50C001C
:10003000A7B068461500FFF749FF220009AB24323C
:1000400043CA43C30021236B0D910C9308320EABBE
:10005000C1CAC1C3636C13A811931291FFF76CFF5F
:1000600013A92000FFF709FF29006846FFF7D4FF16
:1000700027B0F0BD30B5040097B003A8FFF75CFFD0
:1000800003A92000FFF7C4FE051E18D00F9B226BAA
:100090000193934213D121000C2224310CA803F0C8
:1000A000BEFF00280BD1149B626C934207D1210044
:1000B0000C22383111A803F0B2FF002800D000252F
:1000C000280017B030BD70B505000E000400E435FF
:1000D00031002000FFF79CFE002806D02000FFF72B
:1000E000C9FF002801D1200003E04C34A542EFD124
:1000F000002070BD10B50400FFF7E5FF011E03D01E
:1001000000222000FFF792FF10BD70B505000E0021
:100110000400E435238CB34206D12000FFF7AAFF88
:10012000002801D1200003E04C34A542F2D1002088
:1001300070BD70B504001500FFF7E7FF011E03D086
:100140002A002000FFF772FF70BD10B5FFF7DDFF3A
:10015000431E9841C0B210BDF0B58BB006000191AE
:100160001700FFF7D2FF051E33D000243B889C42C6
:100170001AD206236343FB185A889B880292039382
:1001800000239C4605AA13706146D01801334170C4
:10019000102BF9D16B469B890299280001345382B8
:1001A000A4B2FFF71CFFE1E70622013B5343FF180F
:1001B0007988EA8B013189B2914201D9002204E0A9
:1001C0000198FFF79DFE021E03D029003000FFF7C3
:1001D0002DFF0BB0F0BD70B505000400E435200024
:1001E000FFF748FF002803D14C34AC42F7D104009C
:1001F000200070BDF0B54C8B1E000234CB8B99B043
:10020000A4B207000D00039201939C420BD908226F
:10021000002105A803F01BFF0595F36805A9300030
:10022000984700241EE00B8C19000293FFF78DFF06
:10023000002801D0052415E03800FFF7CCFF071E89
:10024000F8D02100019A0298FFF75AFE041E09D146
:1002500029003300039A05A8FFF7A8FE05A9380076
:10026000FFF70BFE200019B0F0BD0284012230B56B
:1002700003AC258804AC4583150024881D40848385
:10028000047E01609443590811402C43022591409B
:10029000AC430C4304219D081540AD008C432C4316
:1002A0000825D9081140C900AC430C4310211D0991
:1002B00015402D018C432C43202559099B09AC4343
:1002C00011401A409301220049010A4340218A4308
:1002D0001A43027630BDF0B589B01C000EAB1D7814
:1002E0000FAB1B8810AE009333880026B446016024
:1002F00003A9019302840E7063468A190136537074
:10030000102EF9D14C82041D8CC98CC40CC90CC4AC
:100310006B461B88047E43836B469B8869088383F6
:1003200001231A009C432A40194014430222994099
:1003300094430C430421AA081A4092008C431443AE
:100340000822E9081940C90094432A091A400C43BD
:100350001201B4431443202269099443AA091940A5
:1003600013409A01230049010B4340218B4313435F
:10037000037609B0F0BD70DF704771DF704772DF40
:10038000704773DF704774DF704775DF704776DF43
:10039000704777DF704778DF704779DF70477ADF23
:1003A00070477BDF70477CDF70477DDF704786DFFB
:1003B000704787DF704788DF7047142070476420DC
:1003C0007047A0208001704710B5FFF7F2FF031EB1
:1003D00000D00523180010BD10B50400FFF7D3FFAF
:1003E0000323002806D12300012158331A788A43B9
:1003F0001A700300180010BD08003B2110B58A4296
:1004000000D02839FFF7C3FF03005A1E9341032091
:100410005B42184010BD030010B5FE330A00D98BB3
:1004200003681B6A984710BD10B50800FFF7B9FFB5
:1004300003005A1E934103205B42184010BD10B5C3
:100440000800FFF7ACFF03005A1E934103205B42F4
:10045000184010BD080010B51100FFF796FF031EED
:1004600000D00323180010BD080010B51100FFF7DD
:100470009CFF031E00D00323180010BD10B5080018
:10048000FFF789FF031E00D00323180010BD10B52D
:100490000800FFF782FF031E00D00323180010BDE1
:1004A00010B50800FFF775FF0023984203D005330D
:1004B000112800D0023B180010BD0000024B0B6059
:1004C000092313607047C046E950020008207047B6
:1004D000B830017000207047B930017000207047BB
:1004E00002207047B83000787047B9300078704704
:1004F0000020704710B50368002B01D00800984712
:1005000010BD10B50368002B01D00800984710BD3E
:100510000200030010B5F33211786C309B6F9847DE
:1005200010BD10B518C96210E10701D58158CB582C
:100530008018984710BD13B50C001100012C06D887
:100540006B460622581C03F079FD002005E0A31E2F
:10055000012B01D9032007E001206B4669461C707E
:10056000FFF709FF0028F5D116BD37B568460D0025
:100570001400FFF702FF032300280DD1002D02D045
:100580006B461B782B70231E06D06B460622591C27
:10059000200003F053FD002318003EBDF8B506000F
:1005A0000D00002407273300BA331B78A3420ED96D
:1005B0006B79A3420BD9380060432B683118BB31EB
:1005C00018180722013403F039FDE4B2EBE72C716F
:1005D0000020F8BD70B5050088B0002001F090FF44
:1005E000036800269B69984703000400F3331D70DD
:1005F00025000F4B069002A9082204A80293039637
:1006000003F01CFD0B4B0D350793069BFF35AB60CC
:10061000082204A92800019303F010FD2000079B85
:10062000F430EB60310003F059F908B070BDC046FA
:100630001105020023050200112337B5080001ACA3
:1006400023700D0003F03EFD290082B22000FFF769
:10065000AAFE031E00D0032318003EBD012110B5E1
:10066000044A0800FBF7C8FD031E00D00B23180046
:1006700010BDC046D505020010B50C00C97F012091
:100680001F290ED8002901D103200AE0D37F2000C2
:10069000FFF775FE0028F7D1208CFFF77CFE0028BD
:1006A000F2D110BD70B504000068002804D00569BF
:1006B00002F080FF2800F8E7206070BDF8B50368FD
:1006C0000700DB6C0D000C7998470323844228D87F
:1006D000002307212879DAB2904208D90A005A4348
:1006E0002C680133125D032AF5D1042319E03E0082
:1006F0000024BA3634702B79A34211D90721614303
:100700002B68307859180723584338181A00BB3023
:1007100003F094FC3378013401333370E4B2EAE738
:1007200000231800F8BD0000F0B50600040087B0F3
:10073000AC367368B360B568002D08D0EB68210053
:1007400028009847B368002BF3D01B69F2E720001C
:10075000B030FFF7A7FF2200FC23583211782600A3
:100760000B40137023000A3656331D709D7129000B
:100770001F22300003F06BFCF5772A3629001F2278
:10078000300003F064FC2000F5776430FFF78AFF47
:1007900020009830FFF786FF200001AEA430FFF75D
:1007A00081FF29000C22300003F051FC23003200AD
:1007B0006C3383CA83C3094BE567A3670C22290006
:1007C000300003F044FC2300803307CE07C3280029
:1007D000034A90341A60256007B0F0BD030502009B
:1007E000F504020010B50400FFF79EFF00280AD1AF
:1007F00023000122FE335242DA83BA34463B18709A
:100800005870207000E0062010BDFE30C183704794
:10081000FE30C08B70470000F0B593B0019000200F
:100820000C0001F06DFE0368DB6A984702F04CFB98
:1008300006AB00280DD000221A7105AA06920822E4
:1008400018001A730AAA9A6002F008FC002802D065
:1008500052E01871187300231F0023732371019B4A
:10086000BA331B78BB4246D907237B43019AD2187F
:10087000BB321278022A31D1002506AE337BAB425F
:1008800036D907207843AB000293019BAA001818C1
:10089000089BBB30995802F0F9FB00281BD0B368C5
:1008A000AA009A58237BA1689B005A50237B0133EE
:1008B0002373337B5A1E954208D01049B2685B18E7
:1008C0009B009B5803930399029BD15006AA137B6C
:1008D000013B13730CE00135EDB2CEE701992279AB
:1008E000CB182168BB339200535023790133237115
:1008F0007B1CDFB2B3E7002013B0F0BDFFFFFF3F6A
:1009000070B598B008AB009310AB02936A46002311
:10091000050013711373B9352B780C00002B1ED111
:10092000012304A82A780678A1799E431940134030
:100930005A0033000B4302218B43134303706B4671
:1009400043602388038163884381A3888381FFF701
:100950002EFD421E904103234042034005E06946BC
:10096000FFF75AFF0028DBD00300180018B070BD55
:10097000F0B59DB01F006B4605001A70581C06228A
:10098000229E02AC03F05AFB002F07D03B88238045
:100990007B886380BB88A380FB8806E032232380AA
:1009A000DB186380F533A780FF33E3800CAB04A929
:1009B000049314AB8B602F000023B9370B710B73BA
:1009C0003B78002B17D101203B78022708A9034070
:1009D0005A000B78BB4304AF4F601343002E10D076
:1009E000B2798343024013430B7033880B817388C1
:1009F0004B81B38811E02800FFF70EFF0028E2D0FA
:100A000029E02A00323212788343024013430B70EC
:100A1000AB8D0B81EB8D4B812B8E220068468B8139
:100A2000FFF7C9FC03000020834214D00630082BD6
:100A300011D005D80130042B0DD0834208D109E034
:100A40000520112B07D0054A934203D0102B01D06B
:100A50000B2000E004201DB0F0BDC04602320000B3
:100A600070B50C0009789AB0022201293ED0638843
:100A7000032906D1A03B1F4D9BB20A00AB4235D8DB
:100A800005E0203B1C499BB203228B422ED81B4B16
:100A9000A1880322994229D80AAB009312AB029392
:100AA0006A460023050013711373B8352B78002BA9
:100AB00004D06946FFF7B0FE021E17D104AE18221B
:100AC0000021300003F0C3FA2378300033702B7814
:100AD00033726B46F36063883382A3887382FFF7B7
:100AE00050FC431E984103224042024010001AB0BD
:100AF00070BDC046603F0000E03F0000FF3F0000C7
:100B00000220704700207047704790DF704795DFE4
:100B1000704797DF704793300078431E9841C0B20A
:100B20007047080010B511001A00FFF7F0FF00230E
:100B3000984204D01138434243410620C31A18009A
:100B400010BD000030B5002485B001AD6B80089B5E
:100B50002970EB80099B290010006C70AC80039316
:100B6000FFF7D7FFA04207D00534112804D0044B6B
:100B7000C018444244410634200005B030BDC04690
:100B8000FCCFFFFF10B50368002B01D00800984789
:100B900010BD10B50368002B01D00800984710BDA8
:100BA00010B50368002B01D00800984710BD10B5A0
:100BB000ED30FF30FFF71EFB10BD10B5ED30FF30FC
:100BC000FFF775F910BD10B5ED30FF30FFF792FA61
:100BD00010BD70B504000068002804D0056902F05B
:100BE000E9FC2800F8E7206070BDF0B587B001ABE4
:100BF0001A000C00E0CCE0C20200B532FF32C96836
:100C000070CB70C20023B530FF30C160036107B004
:100C1000F0BD10B5002204000270431C11341A709C
:100C20000133A342FBD1418210BD0000F0B597B063
:100C30000593036807AC1B6804910393110023001C
:100C40000600A1C9A1C30025D36829000C220CA865
:100C50000A9311AF0B9503F0FAF9094B29003800FC
:100C60000F931095FFF7D5FF059B22000093019786
:100C70000CAB04993000039CA04717B0F0BDC046F0
:100C8000930B0200F0B50026050089B003AC868006
:100C900031002000FFF7BDFF2100A81D142203F042
:100CA000CDF931000C22200003F0D1F92B002200F5
:100CB0001C3383CA83C30F4B3100AB62EE6220004A
:100CC0000192FFF7A6FF2B002200303383CA83C3B3
:100CD000019A03CA03C30C223100200003F0B7F9C4
:100CE0002B00443307CC07C33000034B6E652B65E4
:100CF00009B0F0BD850B0200930B020070B5040033
:100D000086B0E36A2363206B002807D0C368210004
:100D10009847236B002BF4D01B69F3E720002C309D
:100D2000FFF757FF20000830FFF753FF2000143073
:100D3000FFF74FFF20002030FFF74BFF200034303B
:100D4000FFF7A0FF051E29D12300903318705870BB
:100D50009870D870C2235B00E050E218863BFF3BDE
:100D600053609360D3601361CE225200A0502200E2
:100D70009D32FF3201AE53609360D3601361010076
:100D80000C22300003F063F92300B533FF3307CEA4
:100D900007C3B534034BFF34E3602561002006B080
:100DA00070BDC046A10B020070B504008AB001AD51
:100DB00024220021280003F04AF9002102A8FFF7AD
:100DC00028FF20000026953022222900FF302E76B1
:100DD0006E83AE83EE832E8403F030F92368200007
:100DE0005B68984723005F331E70B0420DD0C0236C
:100DF0005B00E358B34208D0054BB34205D0200056
:100E00008130FF30A188C36898470AB070BDC046E2
:100E100089FB010010B53430FFF7C6FF10BD00009C
:100E2000F0B591B0019106A904009C4610000B009A
:100E3000E0C8E0C3D368654603930BAB1800029388
:100E4000C8CDC8C0200027003430059093373D78C6
:100E50000620002D3FD16046C368049350239C4672
:100E6000A444634645C945C3039B029AE365230036
:100E70002566783343CA43C32000049A16991A6042
:100E800004331D6014223A3003F0D8F820001422F5
:100E90001799643003F0D2F86B469B8801212387B1
:100EA0002300903491331D702A0025700198397009
:100EB000FFF72BFE04002800002C0CD00598FFF74C
:100EC00073FF0520112C06D0044B9C4202D0013048
:100ED000072C00D1042011B0F0BDC0460230000044
:100EE000A0DF7047A4DF7047A5DF7047A6DF70471B
:100EF000A8DF7047A9DF70470020704713B504686A
:100F00000093A46813000A000149A04716BDC0461B
:100F1000FFFF0000F7B50D0016000021082268460B
:100F20001F00089C03F093F86A46238831002800CC
:100F300013800197FFF7D8FF0323002803D16B46E6
:100F40001B88238003001800FEBD000037B506ACE7
:100F50002578046801950093246913000A0001496B
:100F6000A0473EBDFFFF0000F8B5040000200D00C3
:100F7000160001F0C5FA03689B69984723689F69CA
:100F8000FFF746FC330001002A002000B847F8BDF7
:100F900070B504000068002804D0056902F00AFB5F
:100FA0002800F8E7206070BDF0B5D48B02001E0069
:100FB0000023457985B0C4329D4223D908321700F9
:100FC000083F3F88A74210D11833DB00C3180E2416
:100FD0001A8902236C442380036803AD00949F6840
:100FE0002B00B847021E02D00DE00133E4E723884E
:100FF0000620022B07D12B8810009B0703D001236A
:10100000337000E0042005B0F0BD0000F0B589B0F9
:10101000019307000FAB0D0016000021082202A863
:101020001C7803F014F80EAB1B8802AA1380019BF6
:101030000393002C09D031002800FFF753FF421E14
:10104000904103234042034071E03B007A79C4336E
:10105000A24211D90833190008390988B14209D1CF
:1010600030221C34A4003F197B680133DB7F13421C
:1010700027D101E00134EBE702AA31002800FFF795
:1010800031FF0C2801D1032351E00C2808D8052892
:10109000F9D0072813D00023984248D00B2346E00C
:1010A00010280CD003D808230F2840D0F6E7214B96
:1010B0009842E8D0D0239B019842E4D0EEE7042385
:1010C00035E002220020DB06DB0F04ACD31AA3704C
:1010D000019B2680E3600EABA360174BA0809D426E
:1010E00007D101F00DFA03689B699847FFF790FB61
:1010F000050021002800FFF7F9FE83B2002B16D06F
:101100001800112B12D002D8082B06D007E00B4B89
:1011100098420BD00A4B984201D1062307E002AA5D
:1011200031002800FFF7DEFE0028ACD105231800AF
:1011300009B0F0BD02300000FFFF000003300000E6
:101140000134000010B50378002B08D10B78002B78
:1011500011D1428A4B8A9A420DD101200CE0012B19
:1011600009D10B78012B06D101310130102202F098
:1011700056FF0028F1D0002010BD0000F0B505009A
:1011800097B008002E240B9101F0B0FF04ABE418D7
:101190001090220010A90120FFF7A2FE002801D024
:1011A0000320D1E023880B9A0A9093830B9B0A9A21
:1011B0001B7D934253D96B79132B01D90720C3E0D0
:1011C0000B9B9B690C930A9B0C9A9B009C58636930
:1011D000002B49D1638B002B46D1631CDB7F022B94
:1011E00042D137E06979A31C1831C900691804316C
:1011F000621CDB7FD27F089121002A310978002010
:10120000079121002931097806910D9905910C99D2
:101210000491217F0391218B0291618B019161697E
:10122000009110A901F0BEFF0028B9D16B79070029
:101230001A001C3292001833AA18DB005460EB1815
:101240009B88E3836B7901336B71230028331B7810
:10125000BB422FD80A980130C3B20A93A6E72B7974
:10126000002001332B716FE0200001F03FFF0026CA
:1012700010900D960C96230028331B78B342B1D9F9
:10128000626AB3009F580023180011A90B70CA1896
:1012900001335070102BFAD12C4B38004B82FFF7E2
:1012A00051FF002803D07B690C937B8B0D93013693
:1012B000F6B2E0E7C2235B00EB5C072B00D97DE7C9
:1012C000626ABB009E580023180011A90B70CA184F
:1012D00001335070102BFAD11C4B30004B82FFF7BA
:1012E00031FF0C9000282CD1300001F0FFFEC2220B
:1012F0005200AA5C738BC0325200AA1806320292C6
:10130000327F10900192328B10A9009272690C9872
:1013100002F00CF8002800D042E7C2235B00EB5C2F
:101320001A0058329200C033AA185B005660EB18BE
:10133000DB88C222F383C2235B00EB5C52000133E3
:10134000AB54781CC7B280E717B0F0BD012900008C
:10135000F0B5040087B0236B6363666B002E08D082
:10136000F368210030009847636B002BF3D01B69B2
:10137000F2E720003030FFF70BFE20002671667187
:101380000C30FFF705FE20001830FFF701FE2000AB
:1013900001AD2430FFF7FCFD31000C22280002F0E3
:1013A00056FE23002A00383383CA83C30F4B310013
:1013B0006364A6640C22280002F049FE23002A0080
:1013C0004C3383CA83C3094B0C22A3653100E66505
:1013D000280002F03CFE2300603307CD07C3300035
:1013E000024B2667E36607B0F0BDC046A10B0200C2
:1013F00070B50500FFF7ACFF041E1DD12800502278
:101400002100743002F023FE2800653020222100E4
:10141000FF3002F01CFE280008222100C43002F038
:1014200016FE28008730FF301022210002F00FFE48
:10143000C2235B00EC5400E00624200070BD0000D5
:101440000B68002B01D1036002E0024B0360002314
:101450004360704789FB010070B504000D006368AC
:10146000A360A068002807D0C36829009847A36834
:10147000002BF4D01B69F3E770BD10B5C368984723
:1014800010BD30B5150087B004290ED0052917D03E
:10149000032925D138300100040004A8FFF7D0FF4C
:1014A000049B002B18D1059B14E04C300100040074
:1014B0006846FFF7C5FF009B002B0DD1019B09E09B
:1014C00060300100040002A8FFF7BAFF029B002B66
:1014D00002D1039BDB0703D529002000FFF7CDFFD6
:1014E00007B030BDF0B50B888FB005000C00512B54
:1014F0003FD00AD8012B26D0502B00D005E10200A6
:10150000CE88C832417900230EE0522B2AD0532BCB
:1015100000D0FAE0CE88052138E008321000083803
:101520000088B04203D001339942F6D82DE0302133
:101530001C339B00EB185A68531CDB7F0B4200D016
:10154000C8E02E3922E00C7AEB682B61286900286C
:1015500000D1DAE0C368210098472B69002BF3D053
:101560001B69F2E7002388881A001900FFF7C2FC04
:10157000CBE08B79012B05D0022B00D0C5E00E8982
:10158000072103E00E89062100E002212B00002044
:101590006A79C43300900098824200D8B5E00833DD
:1015A000180008380088B04214D1062959D00729FC
:1015B00013D03200022900D098E0A3880AA90B803A
:1015C0004E80237A0B71A38BCB80E38B20340B816D
:1015D000CC6041E000980130DCE71022002102A835
:1015E00002F035FDA38802AA13805680E38B06AF74
:1015F0009380238C0021D3802300102222333800D3
:101600000193049302F023FD02233B70009B1C33E3
:101610009B00EB185B681A002A3211780022914275
:1016200006D0180002A9DB6C4030984702AB9A89BB
:10163000A0883900BA80FFF75BFCBB88002B64D11F
:10164000A3880AA90B804E80A37A0B71E38BCB8011
:10165000238C0B81019BCB6028001430FFF7FCFE2C
:1016600053E006AF10220021380002F0F0FCA388FE
:101670007E803B80A38B0AAE102200213000BB800D
:1016800002F0E5FC0123009833701C3080002D1817
:101690006B681A00293211780022914205D0180097
:1016A00039002C309B6B9847BA89B280BB89002BDC
:1016B0000BD1BA68002A08D00121B3790B43B3716A
:1016C000BB883381FB88F2607381A0883100FFF70B
:1016D0000FFC1AE0A11CC97F0134E07F0902084316
:1016E000990607D50321840704D5D28B2800FFF77C
:1016F000C8FE0AE00421DB06F7D5012301001940EA
:101700000B00594259410331EFE70FB0F0BD90DFB4
:10171000704792DF704794DF704770B50025040072
:10172000290020C0FFF775FA25766583A583E58338
:101730002584200070BD02680300002A0AD0511ED3
:10174000920040689A1819600433934204D0596893
:101750001960F9E701204042704702680300002A3F
:101760000AD0511E920040689A18196004339342BF
:1017700004D059681960F9E7012040427047000021
:10178000F7B50600182733687569002B1DD02B00AC
:10179000032274685F337C431A700F4904222C19AA
:1017A000684602F04BFC230074331B8801AA1380A7
:1017B0007634238869465380A888FFF7ACFF002859
:1017C00009D03000FFF7B7FFDDE75F352B78032B3B
:1017D00001D1023B2B70F7BDEC5102000300002247
:1017E000F0B55C331A700A788BB004000133042A18
:1017F00000D90422A8201A700122002627004000E8
:101800005242231826508D1C5A609A60DA601A6181
:101810006037019023005D331B789E4228D2AB785D
:10182000002B0ED1019B0199E3585A1C62502200F3
:101830005132FF329B00D318AA885E60EB88BA82CF
:1018400011E0298805A8FFF7E4F9AB881422029378
:10185000EB8805A93800039302F0F0FB6B461B8967
:10186000BB826B469B89FB82013608351837D1E76E
:101870002300FC335B6D002B04D020005130FF307F
:10188000FFF77EFF0BB0F0BDF7B5060024273368E5
:101890007469002B1CD0230004225F331A700422C9
:1018A00075680F497D43C03589186846651902F08F
:1018B000C5FB6B8B01AA138001335380A088694656
:1018C000FFF729FF002809D03000FFF746FFDEE7C9
:1018D0005F342378042B01D1023B2370F7BDC0464F
:1018E000EC5102000300F0B50A7887B004000F0045
:1018F0005E33042A00D90422B4211A700122002583
:1019000049006318524265505A609A60DA601A6161
:10191000A83B0493BE1C059123005E331B789D42B7
:1019200030D2B3783189002B17D1059B0598E35845
:101930005A1C225022006932FF329B00D3185D608E
:101940000A236B430191F188FB180091A2889B79CF
:10195000A16D0498FEF789FC0EE033880291F188AE
:10196000684601910A21694379188979A288017032
:10197000A16D0498FEF7AFFC049B0135243304935A
:101980000A36C9E72300FC33DB6E002B04D02000AD
:101990006930FF30FFF778FF07B0F0BD7FB5030077
:1019A0005F331B780600032B2DD105002E4B0A68F0
:1019B0005135FF359A4222D110228968684602F0DB
:1019C0003DFB2800FFF7B7FE18234343F41823001C
:1019D0000122200060331A7069460F32613002F034
:1019E0002DFB230022006E331B786D3421781B02FF
:1019F00072320B4313802800FFF7C2FE33E0280049
:101A0000FFF799FE2FE0042B2DD10500174B0A6834
:101A10006935FF359A4223D189681022033168461F
:101A200002F00CFB2800FFF798FE24234343F41830
:101A3000230001222000C4331A7069460F32C530DA
:101A400002F0FCFA23002200D2331B78D134217833
:101A50001B02D6320B4313802800FFF715FF02E06C
:101A60002800FFF77AFE7FBD01001000010013007F
:101A70000B68002B01D1036002E0024B03600023DE
:101A80004360704789FB010010B5C368984710BDDB
:101A90000300F0B505005F3391B001931B7804009B
:101AA0000E005C35022B58D103009533FF33002123
:101AB000242207A8009302F0CAFA07A8FFF72DFE18
:101AC00007A90098FEF7A4F9002843D1002E32D1CF
