:020000021000EC
:10C0000000400020F9C8010035C9010037C901000E
:10C010000000000000000000000000000000000020
:10C0200000000000000000000000000039C901000D
:10C0300000000000000000003BC901003DC90100F4
:10C040003FC901003FC9010075CB01003FC9010094
:10C050003FC90100000000003FC901003FC90100C5
:10C060003FC901003FC901003FC901003FC90100AC
:10C070003FC901003FC901003FC901003FC901009C
:10C080003FC90100A9D301003FC901003FC9010018
:10C090003FC901003FC901003FC901003FC901007C
:10C0A0003FC901003FC9010000000000000000007E
:10C0B0000000000000000000000000000000000080
:10C0C00010B5064C2378002B07D1054B002B02D06E
:10C0D000044800E000BF0123237010BDE4290020C4
:10C0E0000000000030060200084B10B5002B03D002
:10C0F0000749084800E000BF07480368002B00D14B
:10C1000010BD064B002BFBD09847F9E7000000005C
:10C11000E829002030060200E42900200000000089
:10C12000164B002B00D1144B9D46402292029A1AC6
:10C13000924600218B460F461348144A121A01F00A
:10C14000D1FD0F4B002B00D098470E4B002B00D099
:10C1500098470020002104000D000D48002802D05F
:10C160000C4800E000BF01F00BFD2000290000F0AA
:10C17000C7FA01F00BFAC04600000800004000209A
:10C1800000000000F5C60100E4290020BC2B0020BF
:10C19000000000000000000000B583B00190009195
:10C1A000019B1B785BB2013305D10B490B4B242259
:10C1B000180000F0B9FE009B002B05D0019BDB6846
:10C1C000019A52681A6004E0019B1B69019A526847
:10C1D0001A60C04603B000BD24FE01006CFE0100E1
:10C1E00000B583B001900A006B4603331A70019BBF
:10C1F000180018231A00002101F074FD019A6B4603
:10C2000003331B785BB21900100000F022FF019B82
:10C21000180003B000BDC04600B583B00190009186
:10C22000019B009A11001800FFF7B6FFC04603B04B
:10C2300000BDC04600B583B001900091009A019BFB
:10C2400011001800FFF7E8FF019B180003B000BDC4
:10C2500082B00190019B180002B0704700B583B016
:10C260000190074A019B1A600023002B03D0019B19
:10C27000180000F084FA019B180003B000BDC0460E
:10C28000D801020000B583B00190019B1800FFF7B0
:10C29000E5FF019B180000F072FA019B180003B043
:10C2A00000BDC04600B583B00023019396239A01D8
:10C2B000114B1100180000F08DFD019B013301931B
:10C2C0000E4B01211800FFF7B5FFFE239B05181C3C
:10C2D00000F0D0FE094B00211800FFF7ABFFFE2352
:10C2E0009B05181C00F0C6FE054A064B11001800FD
:10C2F00000F0FEFDE1E7C046182A0020002A0020D9
:10C3000084FE0100482A002000B583B00190114A44
:10C31000019B1A60104A019B1A63104A019B5A63E1
:10C32000019B48331800FFF793FF019B303318003F
:10C3300000F0CCFD019B1800FFF790FF0023002BBD
:10C3400003D0019B180000F01AFA019B180003B0FB
:10C3500000BDC0466801020088010200C40102005D
:10C3600008B4024B9C46303808BC604709C3010042
:10C3700008B4024B9C46343808BC604709C301002E
:10C3800000B583B00190019B1800FFF7BDFF019B32
:10C39000180000F0F4F9019B180003B000BDC0467E
:10C3A00008B4024B9C46303808BC604781C301008A
:10C3B00008B4024B9C46343808BC604781C3010076
:10C3C00000B583B001900091019B012B14D1009B1B
:10C3D0000B4A934210D10B4B07211800FFF700FFC7
:10C3E000094800230B220A2100F08EFC074A084965
:10C3F000054B180001F0AFF8C04603B000BDC046C1
:10C40000FFFF0000002A0020182A0020002800203A
:10C4100009C3010010B5034B19000120FFF7D0FF3D
:10C4200010BDC046FFFF000038B50023C356041CF2
:10C430000D1C013304D106480649242200F074FD86
:10C440006368002D01D0E26800E02269136038BD06
:10C45000A6FE0100BEFE010000B599B0684612219B
:10C4600000F0F7FD06A8132100F0F3FD0CA812213F
:10C4700000F0EFFD12A8132100F0EBFD684601214A
:10C48000FFF7D2FF06A80021FFF7CEFF0CA800217E
:10C49000FFF7CAFF12A80121FFF7C6FF962000F0A0
:10C4A000F5FD68460021FFF7BFFF06A80121FFF751
:10C4B000BBFF0CA80121FFF7B7FF12A80021FFF76F
:10C4C000B3FF962000F0E2FDD8E7000070B5051C30
:10C4D0000C1CA0B000F040FD291C6846221C02F094
:10C4E00095FB051E03DC00F065FD20B070BD0A4B16
:10C4F0000A4E1B68002B04D1301C09210B2200F0CE
:10C50000B5FA00246B46301C195D013400F072FB53
:10C51000AC42F7D1E7E7C046742B0020B02B0020D7
:10C520000FB407B504A901C90191FFF7CFFF03B00C
:10C5300008BC04B018477047704770B5041C036806
:10C540005B6A98472368201C1B69002101229847D9
:10C550002368061C421C04D1201C9B6A9847301C8F
:10C5600010E01B6900210222201C9847051C23684B
:10C57000311C1B690022201C98472368201C9B6AE1
:10C580009847281C70BD0000084B10B51B68002B95
:10C590000AD1074C0921201C0B2200F067FA9621D2
:10C5A000201C890100F0D6FA10BDC046742B002073
:10C5B000B02B002008B5031C0020022B0DDD07491D
:10C5C000033B9B005A585850824204D01368101CF9
:10C5D0005B68984701E00120404208BD702A0020B6
:10C5E00070B50C1C151C022810DC0F4B1B68002BAF
:10C5F00001D1FFF7C9FF6619B44205D021780B4875
:10C6000000F0F8FA0134F7E7281C0BE00338084B78
:10C610008000C058002803D003681B68984701E0D9
:10C620000120404270BDC046742B0020B02B00207A
:10C63000702A002010B50C1C02280BDC0C4B1B6868
:10C64000002B01D1FFF7A0FF0A4800F0C5FA2070C7
:10C6500001200BE00338084B8000C058002803D0AD
:10C6600003689B68984701E00120404210BDC04626
:10C67000742B0020B02B0020702A002008B5031C6A
:10C680000120022B0BDD033B054A9B009858002834
:10C6900003D00368DB68984701E00120404208BDF1
:10C6A000702A002008B5031C0020022B0BDD033B81
:10C6B00005489B001858002803D003681B69984759
:10C6C00001E00120404208BD702A002008B5022880
:10C6D00004D880239B014B60002005E000F050FF50
:10C6E000092303600120404208BD08B5012000F085
:10C6F0004DFF704708B5FFF7FCFF08BD7047704756
:10C7000008B5FFF7FCFFFFF7F9FFFFF7CBFD08BD0A
:10C710000C4910B50B681818EFF30882904205D346
:10C720000C220120084B40421A600AE0074A1268B6
:10C73000002A04D0064C2468A2189042F0D2086067
:10C74000181C10BD04280020B82B00206C2A0020E3
:10C75000702B002008B5002801D0FFF77DFEFEE712
:10C7600008B5002101F054FF08BD7047704708B5B7
:10C77000FFF7FBFF08BD08B5FFF7F8FF08BD08B5D8
:10C78000002801D001F090FA08BD0000031C04CB82
:10C7900010B5041C002A00D1036022689A4204D01C
:10C7A00003480449562200F0BFFB206810BDC04674
:10C7B000300002004400020038B50C4B0C4C08332A
:10C7C0000360051C201CFFF7E1FF0023201C094A21
:10C7D0009958A94201D10021995080220433520076
:10C7E0009342F4D1FFF7D2FF281C38BD9800020015
:10C7F000642A0020702A0020F0B585B001913749E5
:10C80000051C02F057F8041E02D1FFF7BDFE61E0DF
:10C81000281C334902F04EF8002803D1FFF7B4FE7C
:10C82000012457E0281C2F4902F044F8002803D1C6
:10C83000FFF7AAFE02244DE02B4E0024301CFFF728
:10C84000A5FF301C294FA600F359002B05D0013459
:10C85000402CF7D1FFF79AFF3AE001235B42F351F6
:10C86000FFF794FF2B783A2B06D1281C204902AA07
:10C8700001F0AAFF029826E002A8291C00F0C8F9DE
:10C8800002A800F011FA002801D1F05120E002A81E
:10C8900000F0F4F9002803D002A800F0F9F912E042
:10C8A00002A800F0E2F9051E01D1F05110E0036882
:10C8B00002A89F6800F0CCF90E4A019B011C1340AE
:10C8C0001A1C281CB847094B03349851002801D181
:10C8D00001246442201C05B0F0BDC04634FF0100B5
:10C8E0008D0002003BFF0100642A0020702A002016
:10C8F00089000200FFFFFEFF0848026803210A4387
:10C9000002600749074A084B9B1A03DD043BC858DD
:10C91000D050FBDC0548804705480047240500400F
:10C920003C06020000280020E429002041C9010043
:10C9300021C10100FEE7FEE7FEE7FEE7FEE7FEE7B6
:10C94000334A10B51378111C012B19D1314B1B68D8
:10C950001B0715D1304BE0241A68F023101C184037
:10C9600022420BD12D4A12681A4209D12C4A2D4B72
:10C970001A6080222C4B12021A6001E03028F1D09C
:10C980000B68DBB2012B0DD1224A1268120709D1C4
:10C99000F021214A12680A40402A03D11F4A126836
:10C9A0000A422DD08022A32301210020D205DB00E2
:10C9B000D1501E4B986091601D4A9968002925D17D
:10C9C000C831C046C046C046C046C046C046C04644
:10C9D000C046C046C046C046C046C046C0460139F3
:10C9E0000029EED1013A002AE7D18021A320C90510
:10C9F000C0000A5001328A609A68002AFCD005E023
:10CA0000C1228021D200C9058B50CBE710BDC046A2
:10CA1000E00F00F0E40F00F0E80F00F0EC0F00F082
:10CA2000DFFF07C004050040186C0040FC00004018
:10CA300088130000012310B50A4ADC00A458A14263
:10CA400007DA013BDB00D3185A680168064BCA506D
:10CA500007E00133112BEFD180210268024B490519
:10CA6000D15010BDCC00020024050000F7B50F1C0A
:10CA700001212F4BB9400360A023161C2D4ADB0572
:10CA8000051C98580843985080209C584000044347
:10CA90009C50294C1A59114319510121B1401A597E
:10CAA00002431A511A59281C8A431A511959234A08
:10CAB0000A4096211A518901FFF7BCFF0022042089
:10CAC0002B681F495A506C395850181C0121FC30F2
:10CAD000996001901960C26001201A494042585083
:10CAE0000198026218481A500198006A0128FBD187
:10CAF0006A60A1220730D20098505F500A210832A4
:10CB000099501E517B1C03D0381C073900F002FBE2
:10CB1000731C03D0301C032100F0FCFA01220B4BE4
:10CB2000291C1A600A48073201F0D3F8F7BDC04645
:10CB3000002000400405000014050000FFFBFFFF7B
:10CB40006C0500000C0500001C050000742B002083
:10CB5000B02B002008B59623DB00994202DDFFF7D9
:10CB600069FF04E09E210268014BC902D15008BD53
:10CB70002405000008B5C1230D4A9B00D1580906C1
:10CB800003D50C49096A002908D1D3585B070DD594
:10CB9000084B0021DB68002B01D107E00121064B87
:10CBA0001868002802D0054B1B68984708BDC0468E
:10CBB00000200040FC200040782B00207C2B00202F
:10CBC000034B1960436803499B005A507047C046A5
:10CBD0007C2B0020782B002003681A1CFC32D168C3
:10CBE0000129FAD10021D160A322D2009858C0B205
:10CBF0007047000003681A1CFC32106A0128FAD141
:10CC000000201062014AC9B2995070471C0500000B
:10CC1000002310B5036043600A78041C2F2A15D145
:10CC20004A789A4212D0481C191C206023681A784E
:10CC30002F2A02D10133236005E0002A03D00133FB
:10CC400001312360F2E700F011FC6060201C10BD90
:10CC50000068704708B54368181E05D000F0B2FBA5
:10CC6000013843425841C0B208BD10B5041CFFF75B
:10CC7000F1FF031E00D06368181C10BD08B543689F
:10CC8000181E04D000F09EFB43425841C0B208BDBC
:10CC900010B5041CFFF7F2FF031E03D06268131ED9
:10CCA00000D0131F181C10BD4068431E9841C0B22D
:10CCB0007047704708B4024B9C46303808BC604748
:10CCC000B3CC01007047000008B4024B9C463038DA
:10CCD00008BC6047C5CC010008B500F08BF808BD62
:10CCE00008B4024B9C46303808BC6047D9CC0100E0
:10CCF00008B500F084F808BD08B4024B9C463038F3
:10CD000008BC6047F1CC010038B5041C1D1C00F0C4
:10CD100025F8201C291C303000F0B6F8054B201CEB
:10CD20001A1C083222601A1C64332832226363639F
:10CD300038BDC046600102007047704708B5090160
:10CD400042189369002B03D0111C50690C3198478D
:10CD500008BD08B50B68984708BD0000F7B5002767
:10CD6000041C194B0E1C0833151C01A903604760F5
:10CD7000876004220C30019700F0ABFF019B201C60
:10CD8000591E8B41114A5B421A4001A9A2611C3015
:10CD90000422019700F09DFF019B0C4A591E8B4114
:10CDA0005B421A409623271D9B01381C311CA2624E
:10CDB000E3622A1CFFF75AFE381C0549221CFFF7C4
:10CDC000FFFE201CFEBDC046D001020053CD010075
:10CDD0003DCD010038B5041C0D1C03681B68984745
:10CDE000291C201DFFF7B6FE2368E5625B68201C46
:10CDF000984738BD08B50430FFF7EEFE08BD10B502
:10CE00000C1C0430FFF7F6FE201C10BD00207047FC
:10CE1000F8B50F1C0368051C5B6A8C183E1C98470C
:10CE2000A64209D001362B68721EDB6A1178281CD5
:10CE30009847431CF4D1341C2B68281C9B6A9847E4
:10CE4000E01BF8BDF8B50F1C0368051C5B6A8C1865
:10CE50003E1C9847B44209D02B68281C1B6B98478E
:10CE6000431C02D030700136F4E7341C2B68281CB8
:10CE70009B6A9847E01BF8BD002070470020704770
:10CE800000207047002070471FB5041C00F012FB03
:10CE90000B4B01A81A1C4433636000230832636102
:10CEA00022600849221C01F06DFC074901A800F02E
:10CEB0009FFD6061FFF754FC201C04B010BDC0460C
:10CEC000E80102008900020034020200074B10B59D
:10CED0001A1C041C0832443302604360406900F0AD
:10CEE000C3FB201C00F0FAFA201C10BDE801020070
:10CEF0000EB477B5041C036807AD40CD5B6A984754
:10CF00006069019500F06CFC311C019A606901F0C8
:10CF100035F8051C2368201C9B6A9847281C7EBC9A
:10CF200008BC03B01847000070B5061C0D1C141C8B
:10CF300000F012F8311C2A1C0348231CFFF7F0FAFA
:10CF4000FFF78AFA70BDC04637020200EFF3108384
:10CF5000012098437047000038B5FFF7F7FF01251F
:10CF60006840C5B272B60E4C2368002B01D10D4B40
:10CF70001D702368013304D10B480C493222FFF79E
:10CF8000D3FF2368002B06D0002D04D108480749A1
:10CF90003622FFF7C9FF23680133236038BDC0463E
:10CFA000802B0020842B0020680202008E020200E9
:10CFB000D302020010B50C4C2368002B13D0FFF7EE
:10CFC000C5FF002804D0094809494722FFF7ACFFF4
:10CFD0002368013B23602368002B04D1054B1B7899
:10CFE000002B00D162B610BD802B0020D3020200BE
:10CFF0008E020200842B002038B50023C356041C87
:10D000000D1C013304D1064806492422FFF78CFF8A
:10D010006368002D01D0E26800E02269136038BD2A
:10D02000A6FE0100BEFE010070B50D1C041C161CFE
:10D0300000F034F86B1C0BD0201C311CFFF7DCFF18
:10D04000201C012100F048F8201C002100F03EF8CF
:10D0500070BD08B50022FFF7E7FF08BD38B5041C16
:10D0600000F012F9051C00F00FF9401BA042FAD3A2
:10D0700038BD000008B5044902F06CFC02F07EFDEA
:10D08000FFF7ECFF08BDC0460024744908B5FA2339
:10D090009B005843FFF7E2FF08BD000001704B1CE6
:10D0A0000AD001238B404360044BC360044B0361EF
:10D0B000044B4361044B83607047C0460805005031
:10D0C0000C050050100500501405005008B50078FC
:10D0D00040B200F01FF808BD38B50023C356051C48
:10D0E0000C1C013304D1094809492A22FFF71CFF0F
:10D0F000002C01D0012C07D10023A022EB56D20531
:10D10000C133FF339B009C5038BDC046A6FE0100D2
:10D11000E702020038B5041C0D1C431C04D10A4868
:10D120000A491A22FFF700FFA023A400DB05E0183C
:10D13000E0230C21DB00C258AD008A43C250C25824
:10D140001543C55038BDC046ABFE01004E0302007A
:10D150000A480B4982680B4B002A08D01A68013232
:10D160001A6000228260D222022092008850064A71
:10D170001B688858190A1B0618437047FC100140A9
:10D18000001001408C2B0020040500002F23C04616
:10D19000C046C046C046C046C046C046C046C0465F
:10D1A000C046C046C046C046C046013B002BEED13B
:10D1B00070477047F8B5184B9A68002A0AD017498B
:10D1C00002200A6801320A6000229A60D2221449C1
:10D1D000920088505B6C124C002B1BD000270E4B2A
:10D1E00080255F64D2236D029B00E5500D4B1B78B8
:10D1F000BB420FD00C4B1E68FFF7AAFF361ABE4287
:10D2000008DC084B1F70C2239B00E5504033E550FB
:10D2100000F076F9F8BDC046FC1001408C2B0020D0
:10D2200000100140912B0020882B002038B5124CB3
:10D230002378002B1ED1A121C420104AC9005350CD
:10D24000C1390233FF395350443953500C498000DF
:10D250000D580C4B2B40C0252D022B430B50802327
:10D26000012591389B02FF380B500B601560FFF7CA
:10D270008DFF257038BDC046902B00200010014066
:10D2800000E100E0FF00FFFF08B5084B1B78002B12
:10D2900001D1FFF7CBFFFFF75BFF054A002302F048
:10D2A0006DFA4904C00B084308BDC046902B00200E
:10D2B00040420F00F8B5284B041C1B78002B01D10D
:10D2C000FFF7B4FFFFF744FF244A002302F056FAA9
:10D2D0004B04C00BCF0B18430026221C00238021D7
:10D2E00092197B410906884205D9002C03DB0020F6
:10D2F000012112184B41D9030023540CD003184AC2
:10D300002143801859410023144A02F017FA154DA1
:10D31000041C2B78144E002B02D0336898421AD08C
:10D32000FFF716FF201A022802DCFFF711FF841C0A
:10D33000A82122020D4B120AC9005A502A783460E3
:10D34000002A08D101322A708022F9395202FF39AD
:10D350005A5044395A50F8BD902B002040420F00DB
:10D360003F420F00912B0020882B0020001001402D
:10D37000074B1A78002A09D08021C220054A4902A9
:10D38000800011504030115000221A707047C04682
:10D39000912B0020001001400022024B9A605A6439
:10D3A0007047C046FC10014005480168002901D0C3
:10D3B000FFF7FFFE08B5FFF7FDFE08BDC046000001
:10D3C00044110140007B70470D4B70B5083303607A
:10D3D000041C00230B4D4360A1600273281C0E1C2B
:10D3E000FFF7D4F9281C002E04D0074B1A681C60E4
:10D3F000626000E06660FFF7C9F9201C70BDC0469E
:10D40000B8030200982B0020942B002038B5041C90
:10D410000E4B0F4D08330360281CFFF7B7F9A368C4
:10D42000281C002B0DD00B4A1368A34202D163685D
:10D43000136006E05A68A24201D0131CFAE7626842
:10D440005A60FFF7A3F9201C38BDC046B80302009C
:10D45000982B0020942B002010B5041CFFF7D6FF5A
:10D46000201CFFF78CF9201C10BD0000F8B50F4DF3
:10D47000071C281C0E1CFFF789F90D4B1C68002C9B
:10D480000FD0A06800280AD0391C321C01F023FA02
:10D49000002804D1A06801F017FAB04201D06468F6
:10D4A000EDE7281CFFF772F9201CF8BD982B00202F
:10D4B000942B0020074B10B50022041C08C0FFF776
:10D4C00083FF054B201C1A1C3C330832226063602A
:10D4D00010BDC046A0000200C8030200074B10B5F3
:10D4E0001A1C041C08323C33026043600430FFF70E
:10D4F0008DFF201CFFF760F9201C10BDC80302003F
:10D5000008B5024800F004F808BDC0462004020037
:10D5100038B50368041CDB68984763685A68236859
:10D52000002A02D19B68984714E05B681568984709
:10D5300063682D1A002D08DC5A68916859601B68D1
:10D54000002BEAD050689847E7E75A6821681068CE
:10D550000B69984738BD0B0010B50100180000F0AA
:10D5600001F810BD70B5054C05001300201E04D055
:10D570000A000220290000E000BF70BD000000008A
:10D58000014B18687047C04668280020084B10B54A
:10D590000400002B02D0002100E000BF054B1868FA
:10D5A000836A002B00D098472000FFF7D3F8C046CD
:10D5B000000000008804020070B505000C1E01D1B7
:10D5C000002049E0002804D08369002B01D100F03D
:10D5D0005DF9224B9C4201D16C6808E0204B9C42D3
:10D5E00001D1AC6803E01F4B9C4200D1EC680C22D7
:10D5F000A35E002BE4D02100280000F03FF8236B4D
:10D600000600002B06D0216A28009847002801DA7E
:10D6100001267642A3891B0603D52169280002F062
:10D6200001FB616B002908D023004433994202D0EA
:10D63000280002F0F7FA00236363A16C002904D0EC
:10D64000280002F0EFFA0023A36400F091F9002310
:10D65000A38100F08EF9300070BDC046280402009E
:10D66000480402006804020010B5034B010018686A
:10D67000FFF7A2FF10BDC04668280020F7B58A89D1
:10D6800005000C0013075AD44B68002B02DC0B6C0E
:10D69000002B19DDE76A002F16D000232E682B60BF
:10D6A00080235B011A4001D0606D14E00123216AE0
:10D6B0002800B847431C0ED12B68002B0BD01D2B24
:10D6C00001D0162B02D12E6000205AE04022A389FF
:10D6D0001343A38155E0A3895B0706D56368C01A8D
:10D6E000636B002B01D0236CC01A00230200216A57
:10D6F0002800E76AB847A389421C06D129681D297A
:10D700003AD8204ACA40D20736D500226260226940
:10D710002260DB0405D5431C02D12B68002B00D10D
:10D720006065616B2E600029CED02300443399429E
:10D7300002D0280002F076FA0020606321E00F6931
:10D74000002FC1D00B680F60DB1B019300239207F1
:10D7500000D14B69A36003E0019B3F181B1A0193A2
:10D76000019B002BB0DD019B3A00216A2800A66ACC
:10D77000B0470028F0DCA389402201201343A38195
:10D780004042FEBD010040200B6970B505000C0051
:10D79000002B01D100201CE0002804D08369002B5D
:10D7A00001D100F073F80B4B9C4201D16C6808E08A
:10D7B000094B9C4201D1AC6803E0084B9C4200D16C
:10D7C000EC680C22A35E002BE4D021002800FFF7B8
:10D7D00055FF70BD280402004804020068040200DE
:10D7E00010B5011E05D1054B0549186800F0A6F9D2
:10D7F00003E0044B1868FFF7C7FF10BD8804020060
:10D8000089D701006828002010B5024900F096F978
:10D8100010BDC04689D70100002310B50400036085
:10D820004360836081814366C28103614361836198
:10D83000190008225C3000F055FA054B246263623F
:10D84000044BA362044BE362044B236310BDC04648
:10D8500019E8010045E801007DE80100A9E80100A0
:10D8600070B568254B1E5D430E002900743102F02F
:10D87000D1F9041E08D000212A00016046600C3056
:10D88000A060683200F02EFA200070BD836913B5E5
:10D890000400002B28D18364C3640365134B144A2E
:10D8A0001B6882620193984201D1012383612000A9
:10D8B00000F020F86060200000F01CF8A06020005C
:10D8C00000F018F80022E06004216068FFF7A4FF70
:10D8D00001220921A068FFF79FFF02221221E068C0
:10D8E000FFF79AFF0123A36113BDC046880402001D
:10D8F00009D80100F8B51D4B06001D68AB69002B67
:10D9000002D12800FFF7C2FF4835AC686B68013BC5
:10D9100005D40C22A75E002F10D06834F7E72B68DF
:10D92000002B01D02D68F0E704213000FFF798FFAD
:10D9300028600028F6D10C23336016E00123200074
:10D940005B42E3810233A38167662760A76067605B
:10D9500027616761A7615C300822390000F0C2F9D5
:10D9600020006763A763A764E764F8BD880402002A
:10D9700070477047F7B50F00110001AA050001F0CC
:10D9800043FA061E01D1002427E02800FFF7B2FF6A
:10D99000041EF8D0DB23019A5B003900280000F058
:10D9A000F1FD002806DA0025FFF7E2FFA581FFF769
:10D9B000E0FFE8E70A4BE08163620A4BA681A362BD
:10D9C000094B2462E362094B2363F30505D5022367
:10D9D00000222100280000F015F82000FEBDC046FE
:10D9E00019E8010045E801007DE80100A9E801000F
:10D9F00010B5034B0A0001001868FFF7BBFF10BD0C
:10DA00006828002010B500F001F810BDF7B505003A
:10DA10000C0001921E00002804D08369002B01D164
:10DA2000FFF734FF414B9C4201D16C6808E0404B4A
:10DA30009C4201D1AC6803E03E4B9C4200D1EC68B3
:10DA40008422A38952001340934203D1210028006D
:10DA5000FFF79AFEE36A0093002B01D11D3331E0FA
:10DA6000012E05D0022E31D01623002E2AD12DE012
:10DA700021002800FFF788FE8023A2895B011A405D
:10DA800001D0606D06E03300216A2800009EB04797
:10DA9000431C18D0A3895A0707D56368C01A636B63
:10DAA000002B0AD0236CC01A07E01B0705D523689A
:10DAB000002B02D022699B1AC018019B00261B185C
:10DAC000019303E02B6001277F422DE02369002BA7
:10DAD00003D12100280000F09FF821002800FFF763
:10DAE00053FE071EEFD13300019A216A2800009EE1
:10DAF000B047431CE7D0616B002908D023004433B2
:10DB0000994202D0280002F08DF8002363630021BF
:10DB100020002369A2892360074B61601340A38121
:10DB20005C30082200F0DEF83800FEBD2804020058
:10DB30004804020068040200DFF7FFFFF7B50400A5
:10DB40000700002601914834002C16D06368A568B0
:10DB50000093009B013B00930DD4AB89012B08D9A6
:10DB60000E22AB5E013304D029003800019B984798
:10DB700006436835EDE72468E6E73000FEBD0000A7
:10DB80000E4B70B500251E000D4CE41AA410A542E2
:10DB900004D0AB00F35898470135F8E702F036F9A6
:10DBA000084B00251E00084CE41AA410A54204D01E
:10DBB000AB00F35898470135F8E770BDD82900202D
:10DBC000D8290020D8290020E029002070B50E00B7
:10DBD0001D000E23C95E90B01400002906DA002350
:10DBE0002B60B3891B060FD540230FE001AA01F07B
:10DBF00045F90028F3DBF023029A1B021340054A83
:10DC00009B185A4253412B608023DB000020236085
:10DC100010B070BD00E0FFFFF7B502268B8905004C
:10DC20000C00334210D101AB6A46FFF7CFFF0099D9
:10DC30000700280001F0EEFF00280CD10C22A35EA3
:10DC40009A0523D43343A381230047332360236100
:10DC5000012363611AE080220D4BAB62A38920602F
:10DC60001343A381009B20616361019B002B0AD0B9
:10DC70000E23E15E280001F013F9002803D00122F1
:10DC8000A3891343A381A3891F43A781F7BDC0467E
:10DC900009D8010010B5034B0100186801F0BAFF64
:10DCA00010BDC0466828002010B5034B010018685D
:10DCB00001F0B8FF10BDC04668280020C9B2821824
:10DCC000904204D003788B4202D00130F8E7002064
:10DCD0007047002310B59A4203D0CC5CC454013382
:10DCE000F9E710BD03008218934202D01970013386
:10DCF000FAE77047936810B5013B9360002B05DA93
:10DD00009469A34208DBCBB20A2B05D01368581CD8
:10DD100010601970C8B201E000F084FF10BDF8B5C2
:10DD200006000F001400D518AC4208D021783A0044
:10DD30003000FFF7DFFF0134431CF5D100E0002085
:10DD4000F8BD0000F0B59FB006000F0002920593E9
:10DD5000002804D08369002B01D1FFF797FD7F4B8A
:10DD60009F4201D1776808E07D4B9F4201D1B7689F
:10DD700003E07C4B9F4200D1F768BB891B070AD5A3
:10DD80003B69002B07D0002306AD6B6120336B7617
:10DD90001033AB763DE03900300000F0ADFF0028D5
:10DDA000F1D001204042D6E0059A111D126805917C
:10DDB000002A00DA7FE00992013423782E2B00D16B
:10DDC0008DE0217803226848FFF778FF002807D00C
:10DDD000654B2A68C01A4023834013432B600134EB
:10DDE0002178631C0622614802932976FFF766FFBB
:10DDF000002800D19DE05E4B002B00D090E0072270
:10DE0000059B07339343083305936B69039A9B186B
:10DE10006B61029C2378002B04D1029BE31A0493CC
:10DE200012D003E0252BF8D00134F3E7049B029ACB
:10DE300039003000FFF773FF431C00D186E06A69A8
:10DE4000049B944663446B612378002B7ED00122AF
:10DE5000002352426A6002A95432521801342B60E6
:10DE6000EB60AB601370AB65217805224148FFF78A
:10DE700025FF002808D03F4B2A68C01A01238340A1
:10DE800013432B600134EFE72B68DA0604D55322E5
:10DE9000202102A8121811701A0704D553222B2131
:10DEA00002A81218117022782A2A00D17CE7099B57
:10DEB00000200A2105E05242EA60022213432B604F
:10DEC0007AE72278303A092A04D84B4301349B1868
:10DED0000120F6E7002800D16FE709936DE763782A
:10DEE0002A2B0AD1059B02341A1D1B680592002BB0
:10DEF00001DA01235B42079363E700230A201A003B
:10DF000001346B6021783039092904D84243013447
:10DF100052180123F6E7002B00D152E7079250E791
:10DF200005AB00933A00144B2900300000E000BF1D
:10DF300007E005AB00933A000F4B2900300000F0DA
:10DF400097F80390039B013300D05EE7BB895B0623
:10DF500000D526E70B981FB0F0BDC046280402008C
:10DF600048040200680402009204020096040200C1
:10DF7000000000008C0402001FDD010010B513003A
:10DF80000A00010002480068FFF7DCFE10BDC04631
:10DF900068280020F7B5170001938A680B69009084
:10DFA0000C00934200DA130022003B6043321278E7
:10DFB000002A01D001333B6023689B0602D53B68F1
:10DFC00002333B60062523681D401ED023004333E7
:10DFD0001B785A1E9341226892061CD53020E11806
:10DFE0004331087021005A1C45310978A218433288
:10DFF000023311700FE022000123193201990098B9
:10E00000089EB047431C0ED00135E3683A689B1A5E
:10E010009D42F0DBDAE72200019943320098089D27
:10E02000A847431C02D10120404220E0062320687B
:10E03000E1683A6803400025042B03D18D1AEB43B5
:10E04000DB171D40A3682269934201DD9B1AED187E
:10E050000027BD420AD0220001231A3201990098FC
:10E06000089EB047431CDED00137F2E70020FEBD1A
:10E07000F0B58BB006920A004332079305900492E4
:10E080000A7E0C00109B6E2A00D1ABE011D8632AE7
:10E0900022D009D8002A00D1B5E0582A00D0C5E026
:10E0A00045310A70814A4FE0642A1DD0692A1BD08D
:10E0B000BCE0732A00D1AAE009D86F2A29D0702ABF
:10E0C00000D0B3E0202209680A43226037E0752AB5
:10E0D0001FD0782A33D0A9E00E001A684236111DED
:10E0E000196013683370A4E021681A68080606D422
:10E0F000490604D5111D19600023D55E02E0111DEB
:10E1000019601568002D3BDA2D23049A6D421370B7
:10E1100036E021681A68080606D4490604D5156851
:10E12000111D1960ADB202E0111D196015685F4B39
:10E13000227E039308276F2A1DD00A271BE02200A6
:10E140007821453211705A4A19680392081D2268D5
:10E1500018600D68100602D4500600D5ADB2D30782
:10E1600002D520231A4322601027002D03D120233B
:10E1700022689A4322602300002243331A7002E08F
:10E180000A274A4B03936368A360002B09DB042230
:10E19000216891432160002D05D1049E002B11D0F0
:10E1A0007BE0002D79D0049E2800390001F0C0FAF0
:10E1B000039B013E5B5C28003370390001F032FAAA
:10E1C000051EF1D1082F09D12368DB0706D5636846
:10E1D0002269934202DC3023013E3370049B9B1B77
:10E1E00023612BE009681A68080607D4490605D59B
:10E1F000111D19601368A28A1A8004E0111D1960AC
:10E20000136862691A600023049E236116E01A688D
:10E21000111D19601668002162683000FFF74EFD7D
:10E22000002801D0801B6060636803E0260042364E
:10E230003270012323610023049A1370079B09AAFB
:10E2400000932100069B0598FFF7A4FE431C02D112
:10E250000120404227E02369320006990598079D76
:10E26000A847431CF4D0236800259B070FD4099BC3
:10E27000E068984217DA180015E0220001231932ED
:10E2800006990598079EB047431CE1D00135E36825
:10E29000099A9B1A9D42F0DBE9E72600039B423670
:10E2A0001B7833708EE70BB0F0BDC0469D040200B2
:10E2B000AE040200F7B515008A6801900C00002A30
:10E2C00006D18A69511E8A41012152420A43A26045
:10E2D0002268D20603D41A68111D19601768002637
:10E2E000A369002B1ED1102223680136134203D1EB
:10E2F0002B681B783B7001372A686B6801322A60F3
:10E30000A268013B013A6B60A260002A29D0002B71
:10E31000E6DCC0235B00E3582900019898470028F9
:10E32000DED01EE0012B06D12B6862691B78D35C1E
:10E33000002BD8D113E0022B02D0002E0AD010E01F
:10E3400000F0D0FD08222B681B78C01843781342D8
:10E35000C9D0F2E7A369012B03D1012010E0002E00
:10E36000FBD010232268134006D1E2680132E2603C
:10E37000A269002A00D03B70002023699E19266103
:10E38000FEBD0000F0B50C008DB00293774B0590F8
:10E39000160009AA23CB23C2754B0693A369032B4E
:10E3A00001D0744B0693AE220020A3685200591E80
:10E3B0000490914205D95E3BFF3B04935E23FF33FB
:10E3C000A36023001C330193D023002722681B0184
:10E3D00013432360019B0393336809A81978BB009A
:10E3E00002221858FFF76AFC00283BD0012F0DD1FC
:10E3F0006368002B06D1083322686360F933FF336A
:10E40000134323605C4B226813400EE0022F0DD1B2
:10E41000C02180222368C90019409200914224D172
:10E42000F13AFF3A6260F03213432360A3685A1E48
:10E43000A260002B16D0039B5D1C33685A1C32600F
:10E440001B78039A039513707368013B7360002B6C
:10E4500008DCC0235B00E358310005980793984718
:10E46000002847D10137032FB6D16368002B01D1B3
:10E470000A3363601021002763686069C91A3F4B43
:10E48000C91800F093F8039DA368002B33D03268BD
:10E4900060691178405C00282DD030290DD1802092
:10E4A00021680001014208D0049A0137002A0BD0EC
:10E4B000013A01330492A36006E02168304B0B401F
:10E4C000236013782B7001357368013B7360002B58
:10E4D00003DD33680133336008E0C0235B00E35899
:10E4E0003100059803939847002804D1A368013BA5
:10E4F000A360C9E700272368DB050ED5019B9D4279
:10E5000007D9BE23013D5B002978E3583200059806
:10E510009847019B01209D4225D0102223681A4074
:10E520001AD12A70636801990598069EB047029B2C
:10E5300022681B68910607D4D10705D502991A1DD8
:10E540000A601B68188004E002991A1D0A601B68A3
:10E550001860E3680133E3600020019BED1A236932
:10E56000ED195D1925610DB0F0BDC046C004020073
:10E5700019EA010041EB0100FFFAFFFFCC040200A1
:10E58000FFF6FFFF70B50500080011000022064CE1
:10E5900022601A00FEF730F9431C03D12368002BD8
:10E5A00000D02B6070BDC046B82B002070B50B7832
:10E5B0005E2B02D04A1C002502E001254B788A1C04
:10E5C0000100441CFF340D700131A142FBD1002B2E
:10E5D00001D1501E1BE001214D401100C5540C78A3
:10E5E0004A1C2D2C07D05D2C10D0002C01D023000C
:10E5F000F3E708000BE04E785D2EF8D0B342F6DC6E
:10E6000002310133C5549E42FBDCE8E7100070BDC7
:10E610004A424A41802310B55200DB0000F002F864
:10E6200010BD0000F0B51D00514B85B01E68040000
:10E630000F000092002E05D0B369002B02D13000EC
:10E64000FFF724F94B4B9C4201D1746808E04A4B18
:10E650009C4201D1B46803E0484B9C4200D1F4686D
:10E66000009B022B05D0012B00D97CE0002D00DAA5
:10E6700079E021003000FFF787F8616B002908D0AE
:10E6800023004433994202D0300001F0CBFA00233A
:10E6900063630023A3616360A3891B0603D521691B
:10E6A000300001F0BFFAA289354B1340A381009BD3
:10E6B000022B21D003AB02AA21003000FFF786FA1B
:10E6C000A3891843A081002D01D1029D01E0002FF4
:10E6D00025D12800FFF7DEFA0195071E1AD1029B0B
:10E6E0000193AB4202D10120404206E00198FFF7BE
:10E6F000D1FA071E0ED1F6E700200222A3891343A8
:10E70000A3810023A36023004733236023610123F7
:10E7100063612AE08022A389019D1343A381B36929
:10E72000002B02D13000FFF7B1F8009B012B03D181
:10E73000A389009A1A43A2810823A2892760134063
:10E7400027616561181E0CD001231A4000231000B8
:10E750009A4204D06D42A360A561180005E0A5604F
:10E7600003E0A36001E00120404205B0F0BDC046D7
:10E7700068280020280402004804020068040200FF
:10E780005CF3FFFF0EB410B59DB002A902900861C2
:10E790000B48822488604861012040421FABC88139
:10E7A000084804CBA400006801938C8100F042FC6F
:10E7B0000023029A13701DB010BC08BC03B01847A8
:10E7C000FFFFFF7F682800200EB4812370B59DB045
:10E7D00002AC21AD9B0040CDA3810290069000F0D9
:10E7E00073F80B4B606063620023606109486363E8
:10E7F000A364013BE38132002B00210000680195F6
:10E8000000F072FD1DB070BC08BC03B01847C046D4
:10E8100041E801006828002070B50C000E25495F12
:10E8200000F0E0FE002803DB636D1B18636503E066
:10E83000A289024B1340A38170BDC046FFEFFFFFCA
:10E8400000207047F8B51F008B8905000C001600EA
:10E85000DB0505D50E23C95E0022022300F04CFB28
:10E86000A289054B28001340A38132000E23E15EEC
:10E870003B0000F02DFAF8BDFFEFFFFF70B50C0074
:10E880000E25495F00F038FBA389421C03D1054ADD
:10E890001340A38104E0802252011343A3816065E9
:10E8A00070BDC046FFEFFFFF10B50E23C95E00F03C
:10E8B00099FA10BD02780B78002A03D0013001319B
:10E8C0009A42F7D0D01A70470023C25C0133002A65
:10E8D000FBD1581E7047002330B59A420BD0013A45
:10E8E000C45CCD5CAC4205D19A4202D00133002C0D
:10E8F000F6D12500631B180030BD0000F0B51F00E5
:10E900000E0087B00590039102920C98347800F0C5
:10E91000E5FA082300194078751C184001D02E0034
:10E92000F3E72D2C04D1073BB51C7478019304E068
:10E9300001902B2C01D17478B51C002F02D0102F20
:10E940000AD162E0302C5ED120222B789343582BE1
:10E9500054D110276C780235019E3900731E9E41F8
:10E960002C4BF618300000F0E3FE30000491390023
:10E9700000F058FE00230200180021003039092958
:10E9800001D80C000AE021004139192901D8373C8F
:10E9900004E021006139192914D8573CA74211DD40
:10E9A000591C0CD0824208D302D1049BA34203DB42
:10E9B00078430123201802E0100001235B422C78E9
:10E9C0000135DAE75A1C0BD10198124B471EB841AA
:10E9D000C0182223059A1360029B002B0AD117E06E
:10E9E000019A002A00D04042029A002A10D0039ACD
:10E9F000002B00D06A1E029B1A6009E03024002F11
:10EA0000AAD10827A8E70A27A6E7302C9CD0A3E7BD
:10EA100007B0F0BDFFFFFF7F13B5054C2468246AE3
:10EA2000002C00D1034C0094FFF768FF16BDC046D0
:10EA3000682800206C280020F0B51F000E0085B06B
:10EA40000390029100920A98347800F047FA082265
:10EA500000194378751C134001D02E00F3E72D2CCC
:10EA600004D10133B51C7478019304E001932B2C7D
:10EA700001D17478B51C002F02D0102F0AD15AE0B2
:10EA8000302C56D120222B789343582B4CD1102771
:10EA90006C78023501203900404200F0C3FD0600C9
:10EAA00001203900404200F043FE002318002200FC
:10EAB000303A092A01D814000AE02200413A192A02
:10EAC00001D8373C04E02200613A192A13D8573C98
:10EAD000A74210DD002B09DB864207D301D1A142FA
:10EAE00003DB78430123201802E0300001235B425E
:10EAF0002C780135DBE7002B08DA22230120039A6A
:10EB000040421360009B002B0AD117E0019A002AB3
:10EB100000D04042009A002A10D0029A002B00D068
:10EB20006A1E009B1A6009E03024002FB2D108272A
:10EB3000B0E70A27AEE7302CA4D0ABE705B0F0BDB4
:10EB400013B5054C2468246A002C00D1034C0094B2
:10EB5000FFF772FF16BDC046682800206C28002011
:10EB60000B00F7B54D6B44330C009D421BD1802642
:10EB7000F600310001F04EF8002802D10120404299
:10EB800025E023006063A66346331A78104BC25415
:10EB9000230045331A780F4BC2542A780E4BC254C7
:10EBA000C018206012E08E6B290073001A000193D8
:10EBB00001F034F8051EE1D0871901003200380059
:10EBC000FFF787F8019B27606563A3630020FEBD04
:10EBD000FF030000FE030000FD03000030B59BB002
:10EBE0000091049108496D4602910591012182240A
:10EBF0004942E981A4006946AC8100F01BFA002378
:10EC0000009A13701BB030BDFFFFFF7F10B51300DB
:10EC10000A00010002480068FFF7E0FF10BDC0468F
:10EC200068280020F8B505000F001400002804D063
:10EC30008369002B01D1FEF729FE224B9C4201D1B2
:10EC40006C6808E0204B9C4201D1AC6803E01F4B8C
:10EC50009C4200D1EC68A369A360A3891B070AD575
:10EC60002369002B07D023682269FEB2981A6369D2
:10EC700098420FDB08E02100280000F03DF8002852
:10EC8000F1D0012676421BE021002800FEF77CFD32
:10EC90000028F6D1A3680130013BA36023685A1C09
:10ECA00022601F706369984204D0A389DB0707D5EF
:10ECB0000A2E05D121002800FEF766FD0028E0D1CC
:10ECC0003000F8BD28040200480402006804020075
:10ECD00070B50500080011000022064C22601A00E1
:10ECE000FDF77EFC431C03D12368002B00D02B6072
:10ECF00070BDC046B82B0020364B70B51D680600AD
:10ED00000C00002D05D0AB69002B02D12800FEF7C6
:10ED1000BDFD314B9C4201D16C6808E02F4B9C42F9
:10ED200001D1AC6803E02E4B9C4200D1EC680C2270
:10ED3000A35E9AB2110723D4D10607D40922012079
:10ED4000326037321343A381404242E0530713D568
:10ED5000616B002908D023004433994202D030006F
:10ED600000F060FF002363632422A3899343A381FF
:10ED700000236360236923600822A3891343A381CE
:10ED80002369002B0BD1A0238022A1899B00920034
:10ED90000B40934203D021003000FEF73DFF0123DA
:10EDA000A289134005D00023A36063695B42A3617D
:10EDB00003E0920700D46369A360002023698342C3
:10EDC00007D10C22A35E1A0603D540221343A38168
:10EDD000013870BD682800202804020048040200A1
:10EDE00068040200002370B5064C0500080023608B
:10EDF000FDF7E0FB431C03D12368002B00D02B6000
:10EE000070BDC046B82B00200B78F0B5722B0ED029
:10EE1000772B07D0612B13D182248420A4000123F7
:10EE2000400007E0C0240123E400082002E00024A1
:10EE3000042023008026102536011C27AC4610E054
:10EE400016230360002018E0622D0FD0782D10D01B
:10EE50002B2D06D16546B84328430325AB43013D1E
:10EE60002B4301310D78002DEED104E080256D0299
:10EE7000F6E73343F5E723431360F0BD002370B595
:10EE8000064C0500080011002360FDF71FFC431C21
:10EE900003D12368002B00D02B6070BDB82B00205D
:10EEA000002370B5064C050008002360FDF7E6FB63
:10EEB000431C03D12368002B00D02B6070BDC046DB
:10EEC000B82B0020034B1B68186A002800D10248A9
:10EED0007047C046682800206C280020EC3000688D
:10EEE00070470000034B10B51868FFF7EBFFEC30DC
:10EEF000006810BD6828002070B5050008001100EA
:10EF00000022064C22601A00FDF7CCFB431C03D103
:10EF10002368002B00D02B6070BDC046B82B0020AA
:10EF200082B0002900D101A9101E09D0002B05D004
:10EF300013780B601078431E984101E00220404294
:10EF400002B0704710B5884202D98B18984201D39D
:10EF5000002305E09B1A013A08D3995C8154FAE733
:10EF6000934203D0CC5CC4540133F9E710BD0000D8
:10EF7000F0B58E6885B007000C00039201939E42A5
:10EF800043D890238A89DB001A423ED003250969C1
:10EF9000236801985B1A029363695D43EB0F5D1967
:10EFA000029B6D1001331B18AB4200D91D005305A5
:10EFB00010D52900380000F02DFE061E14D0029A4C
:10EFC0002169FEF786FEA289194B13408022134364
:10EFD000A38112E02A00380000F020FE061E0CD1AA
:10EFE0002169380000F01EFE0C23402201203B6006
:10EFF000A38940421343A38117E0029B2661F618C0
:10F0000026606561019EED1AA560019BB34200D2A6
:10F010001E00320003992068FFF794FF0020A368C8
:10F020009B1BA36023689E19266005B0F0BDC046F7
:10F030007FFBFFFFF0B59FB0029005938B890F0017
:10F0400016001B0610D50B69002B0DD1402100F0D6
:10F05000E1FD38603861002804D10C23029A0138A0
:10F060001360D8E040237B61002306AD6B61203341
:10F070006B761033AB7634002378002B03D1A31BBF
:10F08000049312D003E0252BF9D00134F4E7A31B3D
:10F09000320039000298FFF76BFF431C00D1B4E047
:10F0A0006A69049B944663446B612378002B00D10A
:10F0B000ABE00122002352426A6002A95432521886
:10F0C00001342B60EB60AB601370AB65534E21785D
:10F0D00005223000FEF7F2FD002807D00123801B37
:10F0E00083402A68013413432B60EFE72B68DA066C
:10F0F00004D55322202102A8121811701A0704D532
:10F1000053222B2102A81218117022782A2A03D028
:10F11000099B00200A210EE0059A111D1268059135
:10F12000002A01DB099204E05242EA600222134302
:10F130002B6001340BE02278303A092A04D84B4383
:10F1400001349B180120F6E7002800D009932378AA
:10F150002E2B1ED163782A2B0AD1059B02341A1D4F
:10F160001B680592002B01DA01235B42079310E034
:10F1700000230A201A0001346B60217830390929F4
:10F1800004D84243013452180123F6E7002B00D083
:10F190000792234E217803223000FEF78FFD0028CE
:10F1A00006D04023801B83402A68013413432B6020
:10F1B000217806221B48661C2976FEF77FFD002871
:10F1C00012D0194B002B06D10722059B073393431E
:10F1D0000833059314E005AB00933A00134B290064
:10F1E000029800E000BF07E005AB00933A000F4B28
:10F1F00029000298FEF73CFF0390039B013304D0E3
:10F200006B69039A9B186B6135E7BB890B985B06AA
:10F2100001D5012040421FB0F0BDC0468C04020061
:10F2200092040200960402000000000071EF010049
:10F2300070B50E0014004B1C02D101256D4231E067
:10F24000938920229343626BA381CDB26368002A25
:10F250000ED0A26B934205DA2368013B23601E7037
:10F26000636810E02100FFF77BFC0028F4D0E4E79E
:10F2700021692268002908D0914206D2511E0878DF
:10F28000854202D1216001330BE023642300443323
:10F2900063630323A36323004633E2631E7023608A
:10F2A00001236360280070BD10B50C00496B002974
:10F2B0000ED023004433994201D000F0B3FC00206B
:10F2C000236C60636360834202D0E36B236009E0D8
:10F2D000236920222360002301206360A389404228
:10F2E0001343A38110BD0000F0B5B94C0D00A54437
:10F2F00003930023019048934993862005AB4A93DA
:10F30000BE234000170002A9B24A5B000918CA5088
:10F3100004331E00B04A02A90918CA503B78002BDA
:10F3200000D14CE1FFF7DEFD08223C78001943785C
:10F33000134024D06B68002B12DDFFF7D3FD0821AA
:10F340002B681A78801842780A4214D0499A0133FF
:10F350000092013249926A682B60013A6A60E9E7DB
:10F36000862202AB52009B189B59290001980093FA
:10F3700098470028E1D07B1C0093009FCEE77A1CC1
:10F380000092252C57D1479345937B782A2B03D1A4
:10F390001A3B4593BB1C00930A22009C21780B006A
:10F3A000303B092B07D8479B013400935343303B34
:10F3B00059184791F2E7894F03223800FEF77EFC87
:10F3C000002807D00123C01B8340459A0134134312
:10F3D00000924593631C24780093672C18D8652C01
:10F3E00000D38BE0472C08D8452C00D386E0002CB6
:10F3F00000D1E6E0252C1ED082E05B2C56D002D84E
:10F40000582C41D07CE0632C5ED0642C45D077E052
:10F41000702C33D007D86E2C5ED040D8692C6FD1B9
:10F420000023469340E0752C37D0782C2CD0022353
:10F43000732C47D064E06B68002B0EDD2B681A78C4
:10F44000944200D0BBE001336A682B60499B013ACB
:10F45000029301336A6049938FE7862202AB520020
:10F460009B189B5929000198029398470028E5D0E2
:10F470004898002800D09EE00138A4E0459B029304
:10F480002023029A13434593459B02938023029ABB
:10F490009B0013434593102302E00A2300E0082356
:10F4A000469304236E2C0DDC03230BE0009905A882
:10F4B000FFF77CF8459B009002934023029A134388
:10F4C000459301234B931FE0459B02934023029AEF
:10F4D000134345930023F5E74599CB0600D54CE748
:10F4E000039B499AC80704D5191D03911B681A800C
:10F4F00043E7191D03911B681A603EE70523E1E706
:10F5000003234B93073346936B68002B04DD459B25
:10F5100002935B0617D51FE0862202AB52009B18B0
:10F520009B5929000198029398470028EFD09FE744
:10F53000499A0292013249926A68013A6A60002A45
:10F5400014DD01332B60FFF7CDFC08212B681A78FE
:10F55000801842780A42EBD14B9B022B12DC03ABA2
:10F560002A0045A90198FEF7A5FE1EE0862202ABFF
:10F5700052009B189B592900019802939847002834
:10F58000E1D075E7042B06DC03AB2A0045A90198FE
:10F59000FEF7F8FE09E0124B002B00D1EDE603ABBD
:10F5A0002A0045A9019800E000BF012807D00228E1
:10F5B00000D0E2E65CE7AB895B0604D501E0489841
:10F5C00001E001204042A7239B009D44F0BDC046BE
:10F5D00064FDFFFF31F20100A9F201009204020074
:10F5E0000000000070B50500080011000022064C64
:10F5F00022601A00FDF71EF8431C03D12368002B7C
:10F6000000D02B6070BDC046B82B00200B1E07D069
:10F61000FF2A03D98A2303608B3B01E001230A7090
:10F6200018007047002243088B4274D303098B42B1
:10F630005FD3030A8B4244D3030B8B4228D3030CC2
:10F640008B420DD3FF22090212BA030C8B4202D364
:10F650001212090265D0030B8B4219D300E0090A8C
:10F66000C30B8B4201D3CB03C01A5241830B8B4295
:10F6700001D38B03C01A5241430B8B4201D34B037E
:10F68000C01A5241030B8B4201D30B03C01A5241E3
:10F69000C30A8B4201D3CB02C01A5241830A8B4268
:10F6A00001D38B02C01A5241430A8B4201D34B0251
:10F6B000C01A5241030A8B4201D30B02C01A5241B5
:10F6C000CDD2C3098B4201D3CB01C01A5241830969
:10F6D0008B4201D38B01C01A524143098B4201D3A3
:10F6E0004B01C01A524103098B4201D30B01C01ACE
:10F6F0005241C3088B4201D3CB00C01A5241830848
:10F700008B4201D38B00C01A524143088B4201D374
:10F710004B00C01A5241411A00D2014652411046D4
:10F720007047FFE701B5002000F006F802BDC046B3
:10F730000029F7D076E770477047C046002B11D1FB
:10F74000002A0FD1002900D1002802D00021C9438E
:10F75000081C07B4024802A14018029003BDC0462D
:10F76000D9FFFFFF03B4684601B5029800F032F8F4
:10F77000019B9E4602B00CBC7047C046F0B54F4698
:10F780004646C0B41604360C9946330005042C0CCA
:10F79000070C150C63437E436F4365431C0CAD1986
:10F7A00064199C46A64203D980235B0298464744CD
:10F7B0006346250CEF191D044B464A4343432D0C69
:10F7C000240464199918C91920000CBC9046994664
:10F7D000F0BDC046F0B54D46564644465F46F0B4CF
:10F7E000924683B004000D0099468B422FD82CD04E
:10F7F0004946504600F002FA29000600200000F0B9
:10F80000FDF9331A9846203B9B4600D574E05346D9
:10F810005A4693401F005346424693401E00AF4253
:10F8200029D826D05B46A41BBD41002B00DA79E025
:10F83000002200230092019301235A469340019332
:10F84000012342469340009319E08242D0D900221E
:10F850000023009201930C9B002B01D01C605D6083
:10F860000098019903B03CBC90469946A246AB462D
:10F87000F0BDA342D6D90022002300920193434653
:10F88000002BE8D0FB0772081A4346467B080EE0BF
:10F89000AB4201D1A2420CD8A41A9D4101202419E7
:10F8A0006D410021013E24184D41002E06D0AB428F
:10F8B000EED9013E24196D41002EF8D15B46009827
:10F8C000019900196941002B22DB2B005A46D340D5
:10F8D0002A004446E2401C005B461500002B2CDB4E
:10F8E00026009E40330026004746BE403200801A64
:10F8F000994100900191AEE7424620239B1A52465F
:10F90000DA40414613004A468A4017001F4382E707
:10F91000424620239B1A2A0046469A402300F34081
:10F920001343D5E74246202300219B1A0022009171
:10F9300001920122DA40019282E74246202326000A
:10F940009B1ADE402F00B446974066463B00334387
:10F95000C9E7C046F0B557464E4645464300E0B4B9
:10F9600046028846760A1F0EC40F002F47D0FF2F8D
:10F9700025D0002380259A469946F600ED042E43B3
:10F980007F3F434642465D02D20F5B006D0A1B0E6D
:10F99000904640D0FF2B39D080220020ED00D204C9
:10F9A00015437F3BFB1842465746591C62408C4624
:10F9B00007430F2F5CD86F49BF00C9598F46002EEF
:10F9C00045D108239A46063B9946DAE74246022883
:10F9D0002DD0032800D1C3E0012800D0A2E00025EB
:10F9E00000260240D4B27602ED05760A2E43E407E3
:10F9F000264330001CBC90469946A246F0BD002E1E
:10FA00001AD104239A46033B9946BAE72A00511EAD
:10FA10008A41901CC6E70120002DC3D0280000F0C9
:10FA2000CFF8431F76309D4043420020BAE70124BF
:10FA3000FF2514400026D6E7300000F0C1F8431F30
:10FA40009E400023763047429A46994699E70C2318
:10FA50009A46093B994694E780260024F603FF2541
:10FA6000C1E735004846B2E7350022004846AEE718
:10FA70002904090C0800370C3604360C2C0C794389
:10FA8000704367437443060C64183619B14203D9B6
:10FA900080214902884647440004000C31040918BB
:10FAA0008D01681E8541890E2943350CED19AD0184
:10FAB0000D43290104D5012369081D4063460D4308
:10FAC00019007F31002925DD680704D00F20284068
:10FAD000042800D00435280103D5274980330D4080
:10FAE0001900FE29A3DC0124AD016E0A1440CDB239
:10FAF00079E78020C003064207D0054205D128439C
:10FB00004602760A4446FF256DE706437602760AEA
:10FB1000FF2568E70124611A1B2905DD1440002533
:10FB2000002660E76346CBE72E002023CE40591A1B
:10FB30008D406B1E9D412E43730704D00F2333402D
:10FB4000042B00D00436730104D501240125144090
:10FB5000002648E70124B601760A1440002542E752
:10FB600080260124F6032E437602760A1440FF25F0
:10FB700039E7C046F0050200FFFFFFF74302590ACC
:10FB80004300C20F1B0E00207E2B0EDD9D2B0DDCD3
:10FB9000802000040143952B0BDC9620C31AD9402A
:10FBA0000B005842002A00D118007047034BD018B0
:10FBB000FBE7963B99400B00F3E7C046FFFFFF7F52
:10FBC0001C2101231B04984201D3000C10391B0A8D
:10FBD000984201D3000A08391B09984201D3000951
:10FBE000043902A2105C40187047C04604030202A8
:10FBF00001010101000000000000000010B5002913
:10FC000003D1FFF7DDFF203002E0081CFFF7D8FF2B
:10FC100010BDC04608B500F055F808BD08B500F0A5
:10FC2000B1F808BD08B500F001F808BD70B50500D1
:10FC3000002944D00C1F2368002B00DAE4182800A8
:10FC4000FCF795FD1E4A13681100002B02D163607A
:10FC5000146031E0A3420DD92268A018834203D179
:10FC600018685B688218226063600C6024E0A2421E
:10FC700003D813005A68002AF9D11E689819A042C7
:10FC80000BD12168711858181960824214D110687C
:10FC90005268411819605A600EE0A04202D90C2344
:10FCA0002B6009E021686018824203D11068526815
:10FCB0004118216062605C602800FCF75CFD70BD4B
:10FCC000AC2B0020032370B5CD1C9D4308350600E6
:10FCD0000C2D01D20C2501E0002D01DBA94202D937
:10FCE0000C23336048E03000FCF741FD234B1C68D7
:10FCF0001A002100002913D00B685B1B0DD40B2BBD
:10FD000002D90B60CC181EE08C4202D163681360EC
:10FD10001AE04B6863600C0016E00C004968E9E7E4
:10FD2000174C2368002B03D1300000F051F82060FD
:10FD30002900300000F04CF8431C18D00323C41CE9
:10FD40009C43A0420DD125603000FCF714FD20003B
:10FD500007220B30231D9043C31A0ED05A42E250A3
:10FD60000BE0211A300000F033F8431CEBD10C23D8
:10FD700030003360FCF7FFFC002070BDAC2B00208E
:10FD8000A82B0020F8B506000C001500002904D1AE
:10FD90001100FFF73FFF040018E0002A03D1FFF72E
:10FDA00041FF2C0012E000F025F885420ED9290011
:10FDB0003000FFF72FFF071E07D021002A00FDF7B4
:10FDC00088FF21003000FFF72DFF3C002000F8BD28
:10FDD000002370B5064C050008002360FCF798FC72
:10FDE000431C03D12368002B00D02B6070BDC0469C
:10FDF000B82B00200B1F1A68101F002A04DA89187C
:10FE000004390B68D018043870470000F8B5C046B4
:10FE1000F8BC08BC9E467047F8B5C046F8BC08BCA4
:10FE20009E4670472E2E2F6D6265642F54415247B7
:10FE300045545F4E524635313832322F5441524785
:10FE400045545F4E4F524449432F54415247455405
:10FE50005F4D43555F4E524635313832322F677011
:10FE6000696F5F6F626A6563742E68006F626A2DE6
:10FE70003E70696E20213D202850696E4E616D658F
:10FE8000294E430056424C556E6F202D206D626501
:10FE900064204F53202D2048656C6C6F20576F7283
:10FEA0006C64210D0A006F626A2D3E70696E20211C
:10FEB0003D202850696E4E616D65294E4300433ADE
:10FEC0002F4A656E6B696E732F776F726B737061FB
:10FED00063652F6D6265642D322D6275696C642DCA
:10FEE0006C6962726172792F2E6275696C642F6D14
:10FEF0006265642F5441524745545F4E5246353136
:10FF00003832322F5441524745545F4E4F52444984
:10FF1000432F5441524745545F4D43555F4E52461F
:10FF200035313832322F6770696F5F6F626A65638F
:10FF3000742E68002F737464696E002F7374646587
:10FF4000727200457863657074696F6E0030203D91
:10FF50003D20282A67756172645F6F626A65637409
:10FF60002026204358415F47554152445F4D41533D
:10FF70004B2900433A5C4A656E6B696E735C776F20
:10FF8000726B73706163655C6D6265642D322D62A6
:10FF900075696C642D6C6962726172795C68616C00
:10FFA0005C636F6D6D6F6E5C7265746172676574B2
:10FFB0002E637070004358415F47554152445F497A
:10FFC0004E49545F494E5F50524F4752455353205C
:10FFD0003D3D20282A67756172645F6F626A6563C0
:10FFE000742026204358415F47554152445F4D419C
:10FFF000534B29004F70657261746F72206E657784
:020000022000DC
:10000000206F7574206F66206D656D6F72790D0AB3
:10001000004F70657261746F72206E65775B5D2052
:100020006F7574206F66206D656D6F72790D0A00B3
:100030005F707472203D3D202854202A29265F6479
:1000400061746100433A2F4A656E6B696E732F7756
:100050006F726B73706163652F6D6265642D322DF5
:100060006275696C642D6C6962726172792F2E629F
:1000700075696C642F6D6265642F53696E676C657A
:10008000746F6E5074722E68003A2570002F73746E
:10009000646F7574000000000000000000000000A4
:1000A000EBC60100EBC60100EBC60100EBC6010088
:1000B000EBC60100EBC601003BC5010000000000DB
:1000C0000000000037C5010039C50100B004000080
:1000D00000F004006009000000D00900C012000018
:1000E00000B01300802500000050270040380000B9
:1000F00000003B00004B000000A04E00807000009C
:1001000000F07500127A00000000800000960000E8
:1001100000509D00C0DA00000010E50000E1000082
:1001200000F0EB00002C010000903A0100C2010039
:1001300000E0D7010084030000B0AF0390D00300BB
:10014000000000040008070000705F0700100E00A8
:1001500000D0BE0E40420F00000000100000000062
:100160000000000000000000B3CC0100C5CC01007D
:1001700009C3010081C30100D9CC0100F1CC010009
:10018000D0FFFFFF0000000011CE01000DCE0100E6
:1001900045CE01007DCE010079CE010081CE010067
:1001A00085CE010061C30100A1C30100B5CC0100EF
:1001B000C9CC0100F9CC0100E1CC0100CCFFFFFF6C
:1001C0000000000071C30100B1C301000000000085
:1001D000000000000000000039CD01003BCD01000F
:1001E0005DC2010085C201000000000000000000A7
:1001F00011CE01000DCE010045CE01007DCE0100E3
:1002000079CE010081CE010085CE01000000000002
:100210000000000037C5010039C50100EBC6010030
:10022000EBC60100FCFFFFFF000000000000000023
:1002300000000000772B006D6265642061737365B8
:1002400072746174696F6E206661696C65643A20CE
:1002500025732C2066696C653A2025732C206C6907
:100260006E65202564200A00696E7465727275706F
:10027000745F656E61626C655F636F756E746572E5
:10028000203C2055494E5433325F4D415800433A8B
:100290005C4A656E6B696E735C776F726B737061CD
:1002A00063655C6D6265642D322D6275696C642DC9
:1002B0006C6962726172795C68616C5C636F6D6DB0
:1002C0006F6E5C6D6265645F637269746963616CB3
:1002D0002E6300696E74657272757074735F646901
:1002E0007361626C656400433A5C4A656E6B696E6B
:1002F000735C776F726B73706163655C6D6265646C
:100300002D322D6275696C642D6C6962726172792F
:100310005C68616C5C746172676574735C68616C65
:100320005C5441524745545F4E4F524449435C54DC
:1003300041524745545F4D43555F4E524635313823
:1003400032325C6770696F5F6170692E6300433A97
:100350005C4A656E6B696E735C776F726B7370610C
:1003600063655C6D6265642D322D6275696C642D08
:100370006C6962726172795C68616C5C74617267ED
:100380006574735C68616C5C5441524745545F4EC0
:100390004F524449435C5441524745545F4D435585
:1003A0005F4E524635313832325C70696E6D617025
:1003B0002E630000000000000000000000000000AC
:1003C0000DD4010059D4010000000000000000001D
:1003D000EBC60100EBC60100EBC60100EBC6010055
:1003E000EBC60100EBC601003BC5010000000000A8
:1003F0000000000037C5010039C50100FCFFFFFF08
:100400000000000000000000000000002DD20100EC
:1004100089D2010071D3010099D30100B5D2010046
:100420000C040200A02B00200000000000000000CF
:1004300000000000000000000000000000000000BC
:1004400000000000000000000000000000000000AC
:10045000000000000000000000000000000000009C
:10046000000000000000000000000000000000008C
:10047000000000000000000000000000000000007C
:10048000000000000000000008280020232D302B71
:100490002000686C4C006566674546470030313285
:1004A00033343536373839414243444546003031DC
:1004B000323334353637383961626364656600003B
:1004C000DE040200E1040200E4040200412D466162
:1004D0002D66383930313233343536375D002B2DC7
:1004E00000303000785800504F534958002E00001B
:1004F00020202020202020202028282828282020D4
:1005000020202020202020202020202020202020EB
:100510008810101010101010101010101010101063
:100520000404040404040404040410101010101043
:10053000104141414141410101010101010101011C
:100540000101010101010101010101101010101050
:1005500010424242424242020202020202020202ED
:100560000202020202020202020202101010102015
:10057000000000000000000000000000000000007B
:10058000000000000000000000000000000000006B
:10059000000000000000000000000000000000005B
:1005A000000000000000000000000000000000004B
:1005B000000000000000000000000000000000003B
:1005C000000000000000000000000000000000002B
:1005D000000000000000000000000000000000001B
:1005E000000000000000000000000000000000000B
:1005F00070FA0100CEF90100CEF90100CCF901003A
:1006000062FA010062FA010058FA0100CCF9010017
:1006100062FA010058FA010062FA0100CCF9010007
:1006200068FA010068FA010068FA0100F2FA0100B4
:0406300000000000C6
:08063400ECBAFF7F0100000099
:10063C0000000000C02B0020000000002804020075
:10064C0048040200680402000000000000000000E2
:10065C00000000000000000000000000000000008E
:10066C00000000000000000000000000000000007E
:10067C00000000000000000000000000000000006E
:10068C00000000000000000000000000000000005E
:10069C0000000000000000000828002043000000BB
:1006AC00000000000000000000000000000000003E
:1006BC0000000000000000000000000043000000EB
:1006CC00000000000000000000000000000000001E
:1006DC0000000000000000000000000043000000CB
:1006EC0000000000000000000000000000000000FE
:1006FC0000000000000000000000000043000000AB
:10070C0000000000000000000000000000000000DD
:10071C00000000000000000000000000430000008A
:10072C0000000000000000000000000000000000BD
:10073C00000000000000000000000000430000006A
:10074C00000000000000000000000000000000009D
:10075C00000000000000000000000000430000004A
:10076C00000000000000000000000000000000007D
:10077C000000000000000000000000000DF6010069
:10078C0021EF010000000000EF040200ED04020064
:10079C002F0002002F0002002F0002002F00020089
:1007AC002F0002002F0002002F0002002F00020079
:1007BC002F000200FFFFFFFFFFFFFFFFFFFFFFFF08
:1007CC00FFFF0000010041534349490000000000B5
:1007DC00000000000000000000000000000000000D
:1007EC000000000000004153434949000000000094
:1007FC0000000000000000000000000000000000ED
:10080C000000000000000000E9C0010015C4010058
:04081C00C1C0010056
:040000031000C8F928
:00000001FF
